{"abi":[{"type":"function","name":"addClaimTopic","inputs":[{"name":"_claimTopic","type":"uint256","internalType":"uint256"}],"outputs":[],"stateMutability":"nonpayable"},{"type":"function","name":"getClaimTopics","inputs":[],"outputs":[{"name":"","type":"uint256[]","internalType":"uint256[]"}],"stateMutability":"view"},{"type":"function","name":"init","inputs":[],"outputs":[],"stateMutability":"nonpayable"},{"type":"function","name":"owner","inputs":[],"outputs":[{"name":"","type":"address","internalType":"address"}],"stateMutability":"view"},{"type":"function","name":"removeClaimTopic","inputs":[{"name":"_claimTopic","type":"uint256","internalType":"uint256"}],"outputs":[],"stateMutability":"nonpayable"},{"type":"function","name":"renounceOwnership","inputs":[],"outputs":[],"stateMutability":"nonpayable"},{"type":"function","name":"transferOwnership","inputs":[{"name":"newOwner","type":"address","internalType":"address"}],"outputs":[],"stateMutability":"nonpayable"},{"type":"event","name":"ClaimTopicAdded","inputs":[{"name":"claimTopic","type":"uint256","indexed":true,"internalType":"uint256"}],"anonymous":false},{"type":"event","name":"ClaimTopicRemoved","inputs":[{"name":"claimTopic","type":"uint256","indexed":true,"internalType":"uint256"}],"anonymous":false},{"type":"event","name":"Initialized","inputs":[{"name":"version","type":"uint64","indexed":false,"internalType":"uint64"}],"anonymous":false},{"type":"event","name":"OwnershipTransferred","inputs":[{"name":"previousOwner","type":"address","indexed":true,"internalType":"address"},{"name":"newOwner","type":"address","indexed":true,"internalType":"address"}],"anonymous":false},{"type":"error","name":"InvalidInitialization","inputs":[]},{"type":"error","name":"NotInitializing","inputs":[]},{"type":"error","name":"OwnableInvalidOwner","inputs":[{"name":"owner","type":"address","internalType":"address"}]},{"type":"error","name":"OwnableUnauthorizedAccount","inputs":[{"name":"account","type":"address","internalType":"address"}]}],"bytecode":{"object":"0x608060405234801561001057600080fd5b50610750806100206000396000f3fe608060405234801561001057600080fd5b506004361061007d5760003560e01c8063c7b225511161005b578063c7b22551146100de578063df09d604146100f1578063e1c7392a14610106578063f2fde38b1461010e57600080fd5b80630829784614610082578063715018a6146100975780638da5cb5b1461009f575b600080fd5b61009561009036600461063a565b610121565b005b61009561020a565b7f9016d09d72d40fdae2fd8ceac6b6234c7706214fd39c1cd1e609a0528c199300546040516001600160a01b0390911681526020015b60405180910390f35b6100956100ec36600461063a565b61021e565b6100f9610367565b6040516100d59190610653565b6100956103bf565b61009561011c366004610697565b6104ce565b61012961050c565b60008054905b8181101561020557826000828154811061014b5761014b6106c7565b9060005260206000200154036101fd5760006101686001846106dd565b81548110610178576101786106c7565b906000526020600020015460008281548110610196576101966106c7565b906000526020600020018190555060008054806101b5576101b5610704565b60019003818190600052602060002001600090559055827f0b1381093c776453c1bbe54fd68be1b235c65db61d099cb50d194b2991e0eec560405160405180910390a2505050565b60010161012f565b505050565b61021261050c565b61021c6000610567565b565b61022661050c565b600054600f81106102895760405162461bcd60e51b815260206004820152602260248201527f63616e6e6f742072657175697265206d6f7265207468616e20313520746f7069604482015261637360f01b60648201526084015b60405180910390fd5b60005b818110156103085782600082815481106102a8576102a86106c7565b9060005260206000200154036103005760405162461bcd60e51b815260206004820152601960248201527f636c61696d546f70696320616c726561647920657869737473000000000000006044820152606401610280565b60010161028c565b50600080546001810182558180527f290decd9548b62a8d60345a988386fc84ba6bc95484008f6362f93160ef3e5630183905560405183917f01c928b7f7ade2949e92366aa9454dbef3a416b731cf6ec786ba9595bbd814d691a25050565b606060008054806020026020016040519081016040528092919081815260200182805480156103b557602002820191906000526020600020905b8154815260200190600101908083116103a1575b5050505050905090565b7ff0c57e16840df040f15088dc2f81fe391c3923bec73e23a9662efc9c229c6a008054600160401b810460ff16159067ffffffffffffffff166000811580156104055750825b905060008267ffffffffffffffff1660011480156104225750303b155b905081158015610430575080155b1561044e5760405163f92ee8a960e01b815260040160405180910390fd5b845467ffffffffffffffff19166001178555831561047857845460ff60401b1916600160401b1785555b610481336105d8565b83156104c757845460ff60401b19168555604051600181527fc7f505b2f371ae2175ee4913f4499e1f2633a7b5936321eed1cdaeb6115181d29060200160405180910390a15b5050505050565b6104d661050c565b6001600160a01b03811661050057604051631e4fbdf760e01b815260006004820152602401610280565b61050981610567565b50565b3361053e7f9016d09d72d40fdae2fd8ceac6b6234c7706214fd39c1cd1e609a0528c199300546001600160a01b031690565b6001600160a01b03161461021c5760405163118cdaa760e01b8152336004820152602401610280565b7f9016d09d72d40fdae2fd8ceac6b6234c7706214fd39c1cd1e609a0528c19930080546001600160a01b031981166001600160a01b03848116918217845560405192169182907f8be0079c531659141344cd1fd0a4f28419497f9722a3daafe3b4186f6b6457e090600090a3505050565b6105e06105e9565b61050981610632565b7ff0c57e16840df040f15088dc2f81fe391c3923bec73e23a9662efc9c229c6a0054600160401b900460ff1661021c57604051631afcd79f60e31b815260040160405180910390fd5b6104d66105e9565b60006020828403121561064c57600080fd5b5035919050565b6020808252825182820181905260009190848201906040850190845b8181101561068b5783518352928401929184019160010161066f565b50909695505050505050565b6000602082840312156106a957600080fd5b81356001600160a01b03811681146106c057600080fd5b9392505050565b634e487b7160e01b600052603260045260246000fd5b818103818111156106fe57634e487b7160e01b600052601160045260246000fd5b92915050565b634e487b7160e01b600052603160045260246000fdfea2646970667358221220d2a8a4e17538f99f50be357adfb4a72113123fb919a4d633da862a75bbdcba0864736f6c63430008180033","linkReferences":{}},"methodIdentifiers":{"addClaimTopic(uint256)":"c7b22551","getClaimTopics()":"df09d604","init()":"e1c7392a","owner()":"8da5cb5b","removeClaimTopic(uint256)":"08297846","renounceOwnership()":"715018a6","transferOwnership(address)":"f2fde38b"},"id":75}