{"abi":[{"type":"function","name":"allowUser","inputs":[{"name":"_userAddress","type":"address","internalType":"address"}],"outputs":[],"stateMutability":"nonpayable"},{"type":"function","name":"batchAllowUsers","inputs":[{"name":"_userAddresses","type":"address[]","internalType":"address[]"}],"outputs":[],"stateMutability":"nonpayable"},{"type":"function","name":"batchDisallowUsers","inputs":[{"name":"_userAddresses","type":"address[]","internalType":"address[]"}],"outputs":[],"stateMutability":"nonpayable"},{"type":"function","name":"bindCompliance","inputs":[{"name":"_compliance","type":"address","internalType":"address"}],"outputs":[],"stateMutability":"nonpayable"},{"type":"function","name":"canComplianceBind","inputs":[{"name":"","type":"address","internalType":"address"}],"outputs":[{"name":"","type":"bool","internalType":"bool"}],"stateMutability":"view"},{"type":"function","name":"disallowUser","inputs":[{"name":"_userAddress","type":"address","internalType":"address"}],"outputs":[],"stateMutability":"nonpayable"},{"type":"function","name":"isComplianceBound","inputs":[{"name":"_compliance","type":"address","internalType":"address"}],"outputs":[{"name":"","type":"bool","internalType":"bool"}],"stateMutability":"view"},{"type":"function","name":"isPlugAndPlay","inputs":[],"outputs":[{"name":"","type":"bool","internalType":"bool"}],"stateMutability":"pure"},{"type":"function","name":"isUserAllowed","inputs":[{"name":"_compliance","type":"address","internalType":"address"},{"name":"_userAddress","type":"address","internalType":"address"}],"outputs":[{"name":"","type":"bool","internalType":"bool"}],"stateMutability":"view"},{"type":"function","name":"moduleBurnAction","inputs":[{"name":"_from","type":"address","internalType":"address"},{"name":"_value","type":"uint256","internalType":"uint256"}],"outputs":[],"stateMutability":"nonpayable"},{"type":"function","name":"moduleCheck","inputs":[{"name":"_from","type":"address","internalType":"address"},{"name":"_to","type":"address","internalType":"address"},{"name":"","type":"uint256","internalType":"uint256"},{"name":"_compliance","type":"address","internalType":"address"}],"outputs":[{"name":"","type":"bool","internalType":"bool"}],"stateMutability":"view"},{"type":"function","name":"moduleMintAction","inputs":[{"name":"_to","type":"address","internalType":"address"},{"name":"_value","type":"uint256","internalType":"uint256"}],"outputs":[],"stateMutability":"nonpayable"},{"type":"function","name":"moduleTransferAction","inputs":[{"name":"_from","type":"address","internalType":"address"},{"name":"_to","type":"address","internalType":"address"},{"name":"_value","type":"uint256","internalType":"uint256"}],"outputs":[],"stateMutability":"nonpayable"},{"type":"function","name":"name","inputs":[],"outputs":[{"name":"_name","type":"string","internalType":"string"}],"stateMutability":"pure"},{"type":"function","name":"unbindCompliance","inputs":[{"name":"_compliance","type":"address","internalType":"address"}],"outputs":[],"stateMutability":"nonpayable"},{"type":"event","name":"ComplianceBound","inputs":[{"name":"_compliance","type":"address","indexed":true,"internalType":"address"}],"anonymous":false},{"type":"event","name":"ComplianceUnbound","inputs":[{"name":"_compliance","type":"address","indexed":true,"internalType":"address"}],"anonymous":false},{"type":"event","name":"UserAllowed","inputs":[{"name":"_compliance","type":"address","indexed":false,"internalType":"address"},{"name":"_userAddress","type":"address","indexed":false,"internalType":"address"}],"anonymous":false},{"type":"event","name":"UserDisallowed","inputs":[{"name":"_compliance","type":"address","indexed":false,"internalType":"address"},{"name":"_userAddress","type":"address","indexed":false,"internalType":"address"}],"anonymous":false}],"bytecode":{"object":"0x608060405234801561001057600080fd5b50610b4c806100206000396000f3fe608060405234801561001057600080fd5b50600436106100f55760003560e01c80634cf4d29511610097578063a9fb3b3511610066578063a9fb3b3514610220578063bcc210531461025c578063e6f5e80714610270578063f104a8c91461019557600080fd5b80634cf4d295146101bb57806358591fb7146101e7578063726bb465146101fa578063771c456f1461020d57600080fd5b80632cb7e1ec116100d35780632cb7e1ec1461016f57806332bb1f1614610182578063372491a2146101955780634a932544146101a857600080fd5b8063013b7ce4146100fa5780630694a5fb1461012257806306fdde0314610137575b600080fd5b61010d610108366004610856565b610277565b60405190151581526020015b60405180910390f35b6101356101303660046108a3565b6102e2565b005b60408051808201825260168152755472616e7366657252657374726963744d6f64756c6560501b6020820152905161011991906108c5565b61013561017d366004610914565b6103e1565b610135610190366004610966565b610415565b6101356101a3366004610a2b565b6104dc565b6101356101b63660046108a3565b61050f565b61010d6101c93660046108a3565b6001600160a01b031660009081526020819052604090205460ff1690565b6101356101f53660046108a3565b610642565b610135610208366004610966565b6106da565b61013561021b3660046108a3565b6107a6565b61010d61022e366004610a55565b6001600160a01b03918216600090815260016020908152604080832093909416825291909152205460ff1690565b61010d61026a3660046108a3565b50600190565b600161010d565b6001600160a01b03808216600090815260016020908152604080832093881683529290529081205460ff16156102af575060016102da565b506001600160a01b0380821660009081526001602090815260408083209387168352929052205460ff165b949350505050565b3360009081526020819052604090205460ff1661031a5760405162461bcd60e51b815260040161031190610a88565b60405180910390fd5b6001600160a01b0381166103705760405162461bcd60e51b815260206004820152601f60248201527f696e76616c696420617267756d656e74202d207a65726f2061646472657373006044820152606401610311565b336001600160a01b038216146103985760405162461bcd60e51b815260040161031190610abf565b6001600160a01b038116600081815260208190526040808220805460ff19169055517f408b49d9be1c914c52a0227e18a077e5a892dddf32a26cfa94a5d9708fad77189190a250565b3360009081526020819052604090205460ff166104105760405162461bcd60e51b815260040161031190610a88565b505050565b3360009081526020819052604090205460ff166104445760405162461bcd60e51b815260040161031190610a88565b805160005b8181101561041057600083828151811061046557610465610b00565b6020908102919091018101513360008181526001845260408082206001600160a01b03851680845290865291819020805460ff191690558051928352938201529092507fe9ab2574b9b111f06f42baaa274030c7228b1dad45b248037101cd11de348240910160405180910390a150600101610449565b3360009081526020819052604090205460ff1661050b5760405162461bcd60e51b815260040161031190610a88565b5050565b6001600160a01b0381166105655760405162461bcd60e51b815260206004820152601f60248201527f696e76616c696420617267756d656e74202d207a65726f2061646472657373006044820152606401610311565b6001600160a01b03811660009081526020819052604090205460ff16156105ce5760405162461bcd60e51b815260206004820152601860248201527f636f6d706c69616e636520616c726561647920626f756e6400000000000000006044820152606401610311565b336001600160a01b038216146105f65760405162461bcd60e51b815260040161031190610abf565b6001600160a01b038116600081815260208190526040808220805460ff19166001179055517f1f7b76c58fb697eb53c6c7c1becb96911516a136e24d7ced386b2355358b75a39190a250565b3360009081526020819052604090205460ff166106715760405162461bcd60e51b815260040161031190610a88565b3360008181526001602090815260408083206001600160a01b03861680855290835292819020805460ff191690558051938452908301919091527fe9ab2574b9b111f06f42baaa274030c7228b1dad45b248037101cd11de34824091015b60405180910390a150565b3360009081526020819052604090205460ff166107095760405162461bcd60e51b815260040161031190610a88565b805160005b8181101561041057600083828151811061072a5761072a610b00565b602090810291909101810151336000818152600180855260408083206001600160a01b03861680855290875292819020805460ff19169092179091558051928352938201529092507f767240d3c58c1058ed268ca225eb1cc93d85cf46b6e85d8d120b39921475b1c1910160405180910390a15060010161070e565b3360009081526020819052604090205460ff166107d55760405162461bcd60e51b815260040161031190610a88565b3360008181526001602081815260408084206001600160a01b03871680865290835293819020805460ff191690931790925581519384528301919091527f767240d3c58c1058ed268ca225eb1cc93d85cf46b6e85d8d120b39921475b1c191016106cf565b80356001600160a01b038116811461085157600080fd5b919050565b6000806000806080858703121561086c57600080fd5b6108758561083a565b93506108836020860161083a565b9250604085013591506108986060860161083a565b905092959194509250565b6000602082840312156108b557600080fd5b6108be8261083a565b9392505050565b60006020808352835180602085015260005b818110156108f3578581018301518582016040015282016108d7565b506000604082860101526040601f19601f8301168501019250505092915050565b60008060006060848603121561092957600080fd5b6109328461083a565b92506109406020850161083a565b9150604084013590509250925092565b634e487b7160e01b600052604160045260246000fd5b6000602080838503121561097957600080fd5b823567ffffffffffffffff8082111561099157600080fd5b818501915085601f8301126109a557600080fd5b8135818111156109b7576109b7610950565b8060051b604051601f19603f830116810181811085821117156109dc576109dc610950565b6040529182528482019250838101850191888311156109fa57600080fd5b938501935b82851015610a1f57610a108561083a565b845293850193928501926109ff565b98975050505050505050565b60008060408385031215610a3e57600080fd5b610a478361083a565b946020939093013593505050565b60008060408385031215610a6857600080fd5b610a718361083a565b9150610a7f6020840161083a565b90509250929050565b6020808252601e908201527f6f6e6c7920626f756e6420636f6d706c69616e63652063616e2063616c6c0000604082015260600190565b60208082526021908201527f6f6e6c7920636f6d706c69616e636520636f6e74726163742063616e2063616c6040820152601b60fa1b606082015260800190565b634e487b7160e01b600052603260045260246000fdfea264697066735822122090d09d7327dae6dc10689f3973696964be74282ec0466eb403227819d83d36f964736f6c63430008180033","linkReferences":{}},"methodIdentifiers":{"allowUser(address)":"771c456f","batchAllowUsers(address[])":"726bb465","batchDisallowUsers(address[])":"32bb1f16","bindCompliance(address)":"4a932544","canComplianceBind(address)":"bcc21053","disallowUser(address)":"58591fb7","isComplianceBound(address)":"4cf4d295","isPlugAndPlay()":"e6f5e807","isUserAllowed(address,address)":"a9fb3b35","moduleBurnAction(address,uint256)":"372491a2","moduleCheck(address,address,uint256,address)":"013b7ce4","moduleMintAction(address,uint256)":"f104a8c9","moduleTransferAction(address,address,uint256)":"2cb7e1ec","name()":"06fdde03","unbindCompliance(address)":"0694a5fb"},"id":58}