{"abi":[{"type":"function","name":"addAllowedCountry","inputs":[{"name":"_country","type":"uint16","internalType":"uint16"}],"outputs":[],"stateMutability":"nonpayable"},{"type":"function","name":"batchAllowCountries","inputs":[{"name":"_countries","type":"uint16[]","internalType":"uint16[]"}],"outputs":[],"stateMutability":"nonpayable"},{"type":"function","name":"batchDisallowCountries","inputs":[{"name":"_countries","type":"uint16[]","internalType":"uint16[]"}],"outputs":[],"stateMutability":"nonpayable"},{"type":"function","name":"bindCompliance","inputs":[{"name":"_compliance","type":"address","internalType":"address"}],"outputs":[],"stateMutability":"nonpayable"},{"type":"function","name":"canComplianceBind","inputs":[{"name":"","type":"address","internalType":"address"}],"outputs":[{"name":"","type":"bool","internalType":"bool"}],"stateMutability":"view"},{"type":"function","name":"isComplianceBound","inputs":[{"name":"_compliance","type":"address","internalType":"address"}],"outputs":[{"name":"","type":"bool","internalType":"bool"}],"stateMutability":"view"},{"type":"function","name":"isCountryAllowed","inputs":[{"name":"_compliance","type":"address","internalType":"address"},{"name":"_country","type":"uint16","internalType":"uint16"}],"outputs":[{"name":"","type":"bool","internalType":"bool"}],"stateMutability":"view"},{"type":"function","name":"isPlugAndPlay","inputs":[],"outputs":[{"name":"","type":"bool","internalType":"bool"}],"stateMutability":"pure"},{"type":"function","name":"moduleBurnAction","inputs":[{"name":"_from","type":"address","internalType":"address"},{"name":"_value","type":"uint256","internalType":"uint256"}],"outputs":[],"stateMutability":"nonpayable"},{"type":"function","name":"moduleCheck","inputs":[{"name":"","type":"address","internalType":"address"},{"name":"_to","type":"address","internalType":"address"},{"name":"","type":"uint256","internalType":"uint256"},{"name":"_compliance","type":"address","internalType":"address"}],"outputs":[{"name":"","type":"bool","internalType":"bool"}],"stateMutability":"view"},{"type":"function","name":"moduleMintAction","inputs":[{"name":"_to","type":"address","internalType":"address"},{"name":"_value","type":"uint256","internalType":"uint256"}],"outputs":[],"stateMutability":"nonpayable"},{"type":"function","name":"moduleTransferAction","inputs":[{"name":"_from","type":"address","internalType":"address"},{"name":"_to","type":"address","internalType":"address"},{"name":"_value","type":"uint256","internalType":"uint256"}],"outputs":[],"stateMutability":"nonpayable"},{"type":"function","name":"name","inputs":[],"outputs":[{"name":"_name","type":"string","internalType":"string"}],"stateMutability":"pure"},{"type":"function","name":"removeAllowedCountry","inputs":[{"name":"_country","type":"uint16","internalType":"uint16"}],"outputs":[],"stateMutability":"nonpayable"},{"type":"function","name":"unbindCompliance","inputs":[{"name":"_compliance","type":"address","internalType":"address"}],"outputs":[],"stateMutability":"nonpayable"},{"type":"event","name":"ComplianceBound","inputs":[{"name":"_compliance","type":"address","indexed":true,"internalType":"address"}],"anonymous":false},{"type":"event","name":"ComplianceUnbound","inputs":[{"name":"_compliance","type":"address","indexed":true,"internalType":"address"}],"anonymous":false},{"type":"event","name":"CountryAllowed","inputs":[{"name":"_compliance","type":"address","indexed":false,"internalType":"address"},{"name":"_country","type":"uint16","indexed":false,"internalType":"uint16"}],"anonymous":false},{"type":"event","name":"CountryUnallowed","inputs":[{"name":"_compliance","type":"address","indexed":false,"internalType":"address"},{"name":"_country","type":"uint16","indexed":false,"internalType":"uint16"}],"anonymous":false},{"type":"error","name":"CountryAlreadyAllowed","inputs":[{"name":"_compliance","type":"address","internalType":"address"},{"name":"_country","type":"uint16","internalType":"uint16"}]},{"type":"error","name":"CountryNotAllowed","inputs":[{"name":"_compliance","type":"address","internalType":"address"},{"name":"_country","type":"uint16","internalType":"uint16"}]}],"bytecode":{"object":"0x608060405234801561001057600080fd5b50610d66806100206000396000f3fe608060405234801561001057600080fd5b50600436106100f55760003560e01c80634cf4d29511610097578063bcc2105311610066578063bcc2105314610248578063c08e15021461025c578063e6f5e8071461026f578063f104a8c9146101bd57600080fd5b80634cf4d295146101e35780634f44425e1461020f578063771c528114610222578063817544c31461023557600080fd5b80630f4f0904116100d35780630f4f09041461016b5780632cb7e1ec146101aa578063372491a2146101bd5780634a932544146101d057600080fd5b8063013b7ce4146100fa5780630694a5fb1461012257806306fdde0314610137575b600080fd5b61010d610108366004610a44565b610276565b60405190151581526020015b60405180910390f35b610135610130366004610a97565b6102bb565b005b6040805180820182526012815271436f756e747279416c6c6f774d6f64756c6560701b602082015290516101199190610ab4565b61010d610179366004610b13565b6001600160a01b038216600090815260016020908152604080832061ffff8516845290915290205460ff1692915050565b6101356101b8366004610b4c565b6103ba565b6101356101cb366004610b8d565b6103ee565b6101356101de366004610a97565b610421565b61010d6101f1366004610a97565b6001600160a01b031660009081526020819052604090205460ff1690565b61013561021d366004610bb9565b610554565b610135610230366004610bd6565b61062f565b610135610243366004610bb9565b61072d565b61010d610256366004610a97565b50600190565b61013561026a366004610bd6565b6107f9565b600161010d565b60008061028383866108f4565b6001600160a01b038416600090815260016020908152604080832061ffff8516845290915290205490915060ff169695505050505050565b3360009081526020819052604090205460ff166102f35760405162461bcd60e51b81526004016102ea90610c4b565b60405180910390fd5b6001600160a01b0381166103495760405162461bcd60e51b815260206004820152601f60248201527f696e76616c696420617267756d656e74202d207a65726f20616464726573730060448201526064016102ea565b336001600160a01b038216146103715760405162461bcd60e51b81526004016102ea90610c82565b6001600160a01b038116600081815260208190526040808220805460ff19169055517f408b49d9be1c914c52a0227e18a077e5a892dddf32a26cfa94a5d9708fad77189190a250565b3360009081526020819052604090205460ff166103e95760405162461bcd60e51b81526004016102ea90610c4b565b505050565b3360009081526020819052604090205460ff1661041d5760405162461bcd60e51b81526004016102ea90610c4b565b5050565b6001600160a01b0381166104775760405162461bcd60e51b815260206004820152601f60248201527f696e76616c696420617267756d656e74202d207a65726f20616464726573730060448201526064016102ea565b6001600160a01b03811660009081526020819052604090205460ff16156104e05760405162461bcd60e51b815260206004820152601860248201527f636f6d706c69616e636520616c726561647920626f756e64000000000000000060448201526064016102ea565b336001600160a01b038216146105085760405162461bcd60e51b81526004016102ea90610c82565b6001600160a01b038116600081815260208190526040808220805460ff19166001179055517f1f7b76c58fb697eb53c6c7c1becb96911516a136e24d7ced386b2355358b75a39190a250565b3360009081526020819052604090205460ff166105835760405162461bcd60e51b81526004016102ea90610c4b565b33600090815260016020818152604080842061ffff861685529091529091205460ff16151590036105cb57338160405163af6d613560e01b81526004016102ea929190610cc3565b33600081815260016020818152604080842061ffff8716855290915291829020805460ff19169091179055517f48c279381632bf87fca2680865a7384b6eb20716fd96b882b305a2198930a07491610624918490610cc3565b60405180910390a150565b3360009081526020819052604090205460ff1661065e5760405162461bcd60e51b81526004016102ea90610c4b565b60005b818110156103e9573360009081526001602081905260408220909185858581811061068e5761068e610ce0565b90506020020160208101906106a39190610bb9565b61ffff1681526020810191909152604001600020805460ff19169115159190911790557f48c279381632bf87fca2680865a7384b6eb20716fd96b882b305a2198930a074338484848181106106fa576106fa610ce0565b905060200201602081019061070f9190610bb9565b60405161071d929190610cc3565b60405180910390a1600101610661565b3360009081526020819052604090205460ff1661075c5760405162461bcd60e51b81526004016102ea90610c4b565b33600090815260016020908152604080832061ffff8516845290915281205460ff16151590036107a357338160405163236a687560e11b81526004016102ea929190610cc3565b33600081815260016020908152604080832061ffff8616845290915290819020805460ff19169055517f35c7374bcb82f2355cb703c8ab6162f87fe83b99618bdb78c6d19b07ddf060a291610624918490610cc3565b3360009081526020819052604090205460ff166108285760405162461bcd60e51b81526004016102ea90610c4b565b60005b818110156103e9573360009081526001602052604081208185858581811061085557610855610ce0565b905060200201602081019061086a9190610bb9565b61ffff1681526020810191909152604001600020805460ff19169115159190911790557f35c7374bcb82f2355cb703c8ab6162f87fe83b99618bdb78c6d19b07ddf060a2338484848181106108c1576108c1610ce0565b90506020020160208101906108d69190610bb9565b6040516108e4929190610cc3565b60405180910390a160010161082b565b6000826001600160a01b0316636a3edf286040518163ffffffff1660e01b8152600401602060405180830381865afa158015610934573d6000803e3d6000fd5b505050506040513d601f19601f820116820180604052508101906109589190610cf6565b6001600160a01b031663134e18f46040518163ffffffff1660e01b8152600401602060405180830381865afa158015610995573d6000803e3d6000fd5b505050506040513d601f19601f820116820180604052508101906109b99190610cf6565b604051637e42683b60e01b81526001600160a01b0384811660048301529190911690637e42683b90602401602060405180830381865afa158015610a01573d6000803e3d6000fd5b505050506040513d601f19601f82011682018060405250810190610a259190610d13565b9392505050565b6001600160a01b0381168114610a4157600080fd5b50565b60008060008060808587031215610a5a57600080fd5b8435610a6581610a2c565b93506020850135610a7581610a2c565b9250604085013591506060850135610a8c81610a2c565b939692955090935050565b600060208284031215610aa957600080fd5b8135610a2581610a2c565b60006020808352835180602085015260005b81811015610ae257858101830151858201604001528201610ac6565b506000604082860101526040601f19601f8301168501019250505092915050565b61ffff81168114610a4157600080fd5b60008060408385031215610b2657600080fd5b8235610b3181610a2c565b91506020830135610b4181610b03565b809150509250929050565b600080600060608486031215610b6157600080fd5b8335610b6c81610a2c565b92506020840135610b7c81610a2c565b929592945050506040919091013590565b60008060408385031215610ba057600080fd5b8235610bab81610a2c565b946020939093013593505050565b600060208284031215610bcb57600080fd5b8135610a2581610b03565b60008060208385031215610be957600080fd5b823567ffffffffffffffff80821115610c0157600080fd5b818501915085601f830112610c1557600080fd5b813581811115610c2457600080fd5b8660208260051b8501011115610c3957600080fd5b60209290920196919550909350505050565b6020808252601e908201527f6f6e6c7920626f756e6420636f6d706c69616e63652063616e2063616c6c0000604082015260600190565b60208082526021908201527f6f6e6c7920636f6d706c69616e636520636f6e74726163742063616e2063616c6040820152601b60fa1b606082015260800190565b6001600160a01b0392909216825261ffff16602082015260400190565b634e487b7160e01b600052603260045260246000fd5b600060208284031215610d0857600080fd5b8151610a2581610a2c565b600060208284031215610d2557600080fd5b8151610a2581610b0356fea2646970667358221220374da104fa8396451ede082fab68ba7b5eb2405c5e30dcd8862c1f243e10ba2364736f6c63430008180033","linkReferences":{}},"methodIdentifiers":{"addAllowedCountry(uint16)":"4f44425e","batchAllowCountries(uint16[])":"771c5281","batchDisallowCountries(uint16[])":"c08e1502","bindCompliance(address)":"4a932544","canComplianceBind(address)":"bcc21053","isComplianceBound(address)":"4cf4d295","isCountryAllowed(address,uint16)":"0f4f0904","isPlugAndPlay()":"e6f5e807","moduleBurnAction(address,uint256)":"372491a2","moduleCheck(address,address,uint256,address)":"013b7ce4","moduleMintAction(address,uint256)":"f104a8c9","moduleTransferAction(address,address,uint256)":"2cb7e1ec","name()":"06fdde03","removeAllowedCountry(uint16)":"817544c3","unbindCompliance(address)":"0694a5fb"},"id":46}