{"abi":[{"type":"constructor","inputs":[{"name":"initialManagementKey","type":"address","internalType":"address"}],"stateMutability":"nonpayable"},{"type":"function","name":"addClaim","inputs":[{"name":"_topic","type":"uint256","internalType":"uint256"},{"name":"_scheme","type":"uint256","internalType":"uint256"},{"name":"_issuer","type":"address","internalType":"address"},{"name":"_signature","type":"bytes","internalType":"bytes"},{"name":"_data","type":"bytes","internalType":"bytes"},{"name":"_uri","type":"string","internalType":"string"}],"outputs":[{"name":"claimRequestId","type":"bytes32","internalType":"bytes32"}],"stateMutability":"nonpayable"},{"type":"function","name":"addKey","inputs":[{"name":"_key","type":"bytes32","internalType":"bytes32"},{"name":"_purpose","type":"uint256","internalType":"uint256"},{"name":"_type","type":"uint256","internalType":"uint256"}],"outputs":[{"name":"success","type":"bool","internalType":"bool"}],"stateMutability":"nonpayable"},{"type":"function","name":"approve","inputs":[{"name":"_id","type":"uint256","internalType":"uint256"},{"name":"_approve","type":"bool","internalType":"bool"}],"outputs":[{"name":"success","type":"bool","internalType":"bool"}],"stateMutability":"nonpayable"},{"type":"function","name":"execute","inputs":[{"name":"_to","type":"address","internalType":"address"},{"name":"_value","type":"uint256","internalType":"uint256"},{"name":"_data","type":"bytes","internalType":"bytes"}],"outputs":[{"name":"executionId","type":"uint256","internalType":"uint256"}],"stateMutability":"payable"},{"type":"function","name":"getClaim","inputs":[{"name":"_claimId","type":"bytes32","internalType":"bytes32"}],"outputs":[{"name":"topic","type":"uint256","internalType":"uint256"},{"name":"scheme","type":"uint256","internalType":"uint256"},{"name":"issuer","type":"address","internalType":"address"},{"name":"signature","type":"bytes","internalType":"bytes"},{"name":"data","type":"bytes","internalType":"bytes"},{"name":"uri","type":"string","internalType":"string"}],"stateMutability":"view"},{"type":"function","name":"getClaimIdsByTopic","inputs":[{"name":"_topic","type":"uint256","internalType":"uint256"}],"outputs":[{"name":"claimIds","type":"bytes32[]","internalType":"bytes32[]"}],"stateMutability":"view"},{"type":"function","name":"getKey","inputs":[{"name":"_key","type":"bytes32","internalType":"bytes32"}],"outputs":[{"name":"purposes","type":"uint256[]","internalType":"uint256[]"},{"name":"keyType","type":"uint256","internalType":"uint256"},{"name":"key","type":"bytes32","internalType":"bytes32"}],"stateMutability":"view"},{"type":"function","name":"getKeyPurposes","inputs":[{"name":"_key","type":"bytes32","internalType":"bytes32"}],"outputs":[{"name":"_purposes","type":"uint256[]","internalType":"uint256[]"}],"stateMutability":"view"},{"type":"function","name":"getKeysByPurpose","inputs":[{"name":"_purpose","type":"uint256","internalType":"uint256"}],"outputs":[{"name":"keys","type":"bytes32[]","internalType":"bytes32[]"}],"stateMutability":"view"},{"type":"function","name":"getRecoveredAddress","inputs":[{"name":"sig","type":"bytes","internalType":"bytes"},{"name":"dataHash","type":"bytes32","internalType":"bytes32"}],"outputs":[{"name":"addr","type":"address","internalType":"address"}],"stateMutability":"pure"},{"type":"function","name":"initialize","inputs":[{"name":"initialManagementKey","type":"address","internalType":"address"}],"outputs":[],"stateMutability":"nonpayable"},{"type":"function","name":"isClaimRevoked","inputs":[{"name":"_sig","type":"bytes","internalType":"bytes"}],"outputs":[{"name":"","type":"bool","internalType":"bool"}],"stateMutability":"view"},{"type":"function","name":"isClaimValid","inputs":[{"name":"_identity","type":"address","internalType":"contract IIdentity"},{"name":"claimTopic","type":"uint256","internalType":"uint256"},{"name":"sig","type":"bytes","internalType":"bytes"},{"name":"data","type":"bytes","internalType":"bytes"}],"outputs":[{"name":"claimValid","type":"bool","internalType":"bool"}],"stateMutability":"view"},{"type":"function","name":"keyHasPurpose","inputs":[{"name":"_key","type":"bytes32","internalType":"bytes32"},{"name":"_purpose","type":"uint256","internalType":"uint256"}],"outputs":[{"name":"result","type":"bool","internalType":"bool"}],"stateMutability":"view"},{"type":"function","name":"removeClaim","inputs":[{"name":"_claimId","type":"bytes32","internalType":"bytes32"}],"outputs":[{"name":"success","type":"bool","internalType":"bool"}],"stateMutability":"nonpayable"},{"type":"function","name":"removeKey","inputs":[{"name":"_key","type":"bytes32","internalType":"bytes32"},{"name":"_purpose","type":"uint256","internalType":"uint256"}],"outputs":[{"name":"success","type":"bool","internalType":"bool"}],"stateMutability":"nonpayable"},{"type":"function","name":"revokeClaim","inputs":[{"name":"_claimId","type":"bytes32","internalType":"bytes32"},{"name":"_identity","type":"address","internalType":"address"}],"outputs":[{"name":"","type":"bool","internalType":"bool"}],"stateMutability":"nonpayable"},{"type":"function","name":"revokeClaimBySignature","inputs":[{"name":"signature","type":"bytes","internalType":"bytes"}],"outputs":[],"stateMutability":"nonpayable"},{"type":"function","name":"revokedClaims","inputs":[{"name":"","type":"bytes","internalType":"bytes"}],"outputs":[{"name":"","type":"bool","internalType":"bool"}],"stateMutability":"view"},{"type":"function","name":"version","inputs":[],"outputs":[{"name":"","type":"string","internalType":"string"}],"stateMutability":"pure"},{"type":"event","name":"Approved","inputs":[{"name":"executionId","type":"uint256","indexed":true,"internalType":"uint256"},{"name":"approved","type":"bool","indexed":false,"internalType":"bool"}],"anonymous":false},{"type":"event","name":"ClaimAdded","inputs":[{"name":"claimId","type":"bytes32","indexed":true,"internalType":"bytes32"},{"name":"topic","type":"uint256","indexed":true,"internalType":"uint256"},{"name":"scheme","type":"uint256","indexed":false,"internalType":"uint256"},{"name":"issuer","type":"address","indexed":true,"internalType":"address"},{"name":"signature","type":"bytes","indexed":false,"internalType":"bytes"},{"name":"data","type":"bytes","indexed":false,"internalType":"bytes"},{"name":"uri","type":"string","indexed":false,"internalType":"string"}],"anonymous":false},{"type":"event","name":"ClaimChanged","inputs":[{"name":"claimId","type":"bytes32","indexed":true,"internalType":"bytes32"},{"name":"topic","type":"uint256","indexed":true,"internalType":"uint256"},{"name":"scheme","type":"uint256","indexed":false,"internalType":"uint256"},{"name":"issuer","type":"address","indexed":true,"internalType":"address"},{"name":"signature","type":"bytes","indexed":false,"internalType":"bytes"},{"name":"data","type":"bytes","indexed":false,"internalType":"bytes"},{"name":"uri","type":"string","indexed":false,"internalType":"string"}],"anonymous":false},{"type":"event","name":"ClaimRemoved","inputs":[{"name":"claimId","type":"bytes32","indexed":true,"internalType":"bytes32"},{"name":"topic","type":"uint256","indexed":true,"internalType":"uint256"},{"name":"scheme","type":"uint256","indexed":false,"internalType":"uint256"},{"name":"issuer","type":"address","indexed":true,"internalType":"address"},{"name":"signature","type":"bytes","indexed":false,"internalType":"bytes"},{"name":"data","type":"bytes","indexed":false,"internalType":"bytes"},{"name":"uri","type":"string","indexed":false,"internalType":"string"}],"anonymous":false},{"type":"event","name":"ClaimRevoked","inputs":[{"name":"signature","type":"bytes","indexed":true,"internalType":"bytes"}],"anonymous":false},{"type":"event","name":"Executed","inputs":[{"name":"executionId","type":"uint256","indexed":true,"internalType":"uint256"},{"name":"to","type":"address","indexed":true,"internalType":"address"},{"name":"value","type":"uint256","indexed":true,"internalType":"uint256"},{"name":"data","type":"bytes","indexed":false,"internalType":"bytes"}],"anonymous":false},{"type":"event","name":"ExecutionFailed","inputs":[{"name":"executionId","type":"uint256","indexed":true,"internalType":"uint256"},{"name":"to","type":"address","indexed":true,"internalType":"address"},{"name":"value","type":"uint256","indexed":true,"internalType":"uint256"},{"name":"data","type":"bytes","indexed":false,"internalType":"bytes"}],"anonymous":false},{"type":"event","name":"ExecutionRequested","inputs":[{"name":"executionId","type":"uint256","indexed":true,"internalType":"uint256"},{"name":"to","type":"address","indexed":true,"internalType":"address"},{"name":"value","type":"uint256","indexed":true,"internalType":"uint256"},{"name":"data","type":"bytes","indexed":false,"internalType":"bytes"}],"anonymous":false},{"type":"event","name":"KeyAdded","inputs":[{"name":"key","type":"bytes32","indexed":true,"internalType":"bytes32"},{"name":"purpose","type":"uint256","indexed":true,"internalType":"uint256"},{"name":"keyType","type":"uint256","indexed":true,"internalType":"uint256"}],"anonymous":false},{"type":"event","name":"KeyRemoved","inputs":[{"name":"key","type":"bytes32","indexed":true,"internalType":"bytes32"},{"name":"purpose","type":"uint256","indexed":true,"internalType":"uint256"},{"name":"keyType","type":"uint256","indexed":true,"internalType":"uint256"}],"anonymous":false}],"bytecode":{"object":"0x60806040526006805461ffff191690553480156200001c57600080fd5b506040516200307b3803806200307b8339810160408190526200003f91620002a3565b8060006001600160a01b0382166200009e5760405162461bcd60e51b815260206004820152601f60248201527f696e76616c696420617267756d656e74202d207a65726f20616464726573730060448201526064015b60405180910390fd5b80620000b557620000af82620000cc565b620000c3565b6006805460ff191660011790555b505050620002d5565b60065460ff161580620000de5750303b155b6200012c5760405162461bcd60e51b815260206004820152601e60248201527f496e697469616c206b65792077617320616c72656164792073657475702e0000604482015260640162000095565b6006805461ffff1916610101179055604080516001600160a01b03831660208201526000910160408051601f1981840301815282825280516020918201206000818152600180845284822060028101849055868501909552808652908290529182905293506200019d929062000237565b506000818152600160208181526040808420830183905560029091527fe90b7bceb6e7df5418fb78d8ee546e97c83a08bbccc01a0644d599ccd2a7c2e0805480840182559084527f7fef4bf8f63cf9dd467136c679c02b5c17fcf6322d9562512bf5eb952cf7cc5301849055519091829184917f480000bb1edad8ca1470381cc334b1917fbd51c6531f3a623ea8e0ec7e38a6e991a45050565b8280548282559060005260206000209081019282156200027a579160200282015b828111156200027a578251829060ff1690559160200191906001019062000258565b50620002889291506200028c565b5090565b5b808211156200028857600081556001016200028d565b600060208284031215620002b657600080fd5b81516001600160a01b0381168114620002ce57600080fd5b9392505050565b612d9680620002e56000396000f3fe60806040526004361061011f5760003560e01c80639f7f9edd116100a0578063c4d66de811610064578063c4d66de814610368578063c9100bcb14610388578063d202158d146103ba578063d2345249146103da578063fb307b341461041557600080fd5b80639f7f9edd146102ad578063b1a34e0d146102cf578063b61d27f6146102fd578063c0969a6e14610310578063c3b129e31461033057600080fd5b806354fd4d50116100e757806354fd4d50146101ec57806373c3370814610220578063747442d31461024057806380e9e9e1146102605780639010f7261461028d57600080fd5b806312aaac70146101245780631d3812401461015c5780632646b2641461018c5780634eee424a146101ac57806353d413c5146101cc575b600080fd5b34801561013057600080fd5b5061014461013f366004612194565b610442565b604051610153939291906121e9565b60405180910390f35b34801561016857600080fd5b5061017c61017736600461220e565b6104bb565b6040519015158152602001610153565b34801561019857600080fd5b5061017c6101a7366004612307565b610715565b3480156101b857600080fd5b5061017c6101c7366004612194565b61074f565b3480156101d857600080fd5b5061017c6101e736600461233c565b610a0e565b3480156101f857600080fd5b506040805180820182526005815264322e322e3160d81b6020820152905161015391906123ae565b34801561022c57600080fd5b5061017c61023b3660046123d6565b610dfe565b34801561024c57600080fd5b5061017c61025b366004612414565b610fdd565b34801561026c57600080fd5b5061028061027b366004612194565b6113ba565b6040516101539190612439565b34801561029957600080fd5b506102806102a8366004612194565b61141c565b3480156102b957600080fd5b506102cd6102c836600461247d565b61147c565b005b3480156102db57600080fd5b506102ef6102ea3660046124ef565b6115ca565b604051908152602001610153565b6102ef61030b3660046125b0565b611896565b34801561031c57600080fd5b5061017c61032b366004612609565b6119c8565b34801561033c57600080fd5b5061035061034b366004612689565b611acb565b6040516001600160a01b039091168152602001610153565b34801561037457600080fd5b506102cd6103833660046126ce565b611b7c565b34801561039457600080fd5b506103a86103a3366004612194565b611bde565b604051610153969594939291906126eb565b3480156103c657600080fd5b5061017c6103d536600461233c565b611ddf565b3480156103e657600080fd5b5061017c6103f5366004612307565b805160208183018101805160388252928201919093012091525460ff1681565b34801561042157600080fd5b50610435610430366004612194565b611ed6565b604051610153919061274b565b6000818152600160208181526040808420928301546002840154845483518186028101860190945280845260609695869590949185918301828280156104a757602002820191906000526020600020905b815481526020019060010190808311610493575b505050505092509250925092509193909250565b60065460009060ff6101009091041615156001146104f45760405162461bcd60e51b81526004016104eb9061275e565b60405180910390fd5b3330148061052a57506040805133602082015261052a91015b604051602081830303815290604052805190602001206001611ddf565b6105465760405162461bcd60e51b81526004016104eb906127b1565b60008481526001602052604090206002015484900361066f576000848152600160209081526040808320805482518185028101850190935280835291929091908301828280156105b557602002820191906000526020600020905b8154815260200190600101908083116105a1575b5050505050905060005b81518110156106485760008282815181106105dc576105dc612801565b6020026020010151905085810361063f5760405162461bcd60e51b815260206004820152602160248201527f436f6e666c6963743a204b657920616c72656164792068617320707572706f736044820152606560f81b60648201526084016104eb565b506001016105bf565b505060008481526001602081815260408320805492830181558352909120018390556106bb565b600084815260016020818152604080842060028101899055815180840190925287825293889052908290526106a4929161209c565b506000848152600160208190526040909120018290555b60008381526002602090815260408083208054600181018255908452918320909101869055518391859187917f480000bb1edad8ca1470381cc334b1917fbd51c6531f3a623ea8e0ec7e38a6e991a45060015b9392505050565b60006038826040516107279190612817565b9081526040519081900360200190205460ff161561074757506001919050565b506000919050565b60065460009060ff61010090910416151560011461077f5760405162461bcd60e51b81526004016104eb9061275e565b333014806107b55750604080513360208201526107b591015b604051602081830303815290604052805190602001206003611ddf565b6107d15760405162461bcd60e51b81526004016104eb90612833565b600082815260046020526040812054908190036108445760405162461bcd60e51b815260206004820152602b60248201527f4e6f6e4578697374696e673a205468657265206973206e6f20636c61696d207760448201526a1a5d1a081d1a1a5cc8125160aa1b60648201526084016104eb565b6000818152600560205260408120545b600083815260056020526040902080548691908490811061087757610877612801565b90600052602060002001541461089c57816108918161289b565b925050808210610854575b60008381526005602052604090206108b56001836128b4565b815481106108c5576108c5612801565b90600052602060002001546005600085815260200190815260200160002083815481106108f4576108f4612801565b906000526020600020018190555060056000848152602001908152602001600020805480610924576109246128c7565b6000828152602080822083016000199081018390559092019092558682526004908190526040918290206002810154600182015493516001600160a01b039091169387938a937f3cf57863a89432c61c4a27073c6ee39e8a764bff5a05aebfbcdcdc80b2e6130a936109a59392600383019290810191600590910190612994565b60405180910390a46000858152600460205260408120818155600181018290556002810180546001600160a01b0319169055906109e560038301826120e7565b6109f36004830160006120e7565b610a016005830160006120e7565b5060019695505050505050565b60065460009060ff610100909104161515600114610a3e5760405162461bcd60e51b81526004016104eb9061275e565b33301480610a5b575060408051336020820152610a5b910161050d565b610a775760405162461bcd60e51b81526004016104eb906127b1565b6000838152600160205260409020600201548314610ae15760405162461bcd60e51b815260206004820152602160248201527f4e6f6e4578697374696e673a204b65792069736e2774207265676973746572656044820152601960fa1b60648201526084016104eb565b600083815260016020908152604080832080548251818502810185019093528083529192909190830182828015610b3757602002820191906000526020600020905b815481526020019060010190808311610b23575b5050505050905060005b83828281518110610b5457610b54612801565b602002602001015114610bd65780610b6b8161289b565b91505081518103610bd15760405162461bcd60e51b815260206004820152602a60248201527f4e6f6e4578697374696e673a204b657920646f65736e27742068617665207375604482015269636820707572706f736560b01b60648201526084016104eb565b610b41565b8160018351610be591906128b4565b81518110610bf557610bf5612801565b6020026020010151828281518110610c0f57610c0f612801565b602090810291909101810191909152600086815260018252604090208351610c399285019061209c565b506000858152600160205260409020805480610c5757610c576128c7565b6000828152602080822083016000199081018390559092019092558582526002905260408120545b6000868152600260205260409020805488919084908110610ca257610ca2612801565b906000526020600020015414610cc75781610cbc8161289b565b925050808210610c7f575b6000868152600260205260409020610ce06001836128b4565b81548110610cf057610cf0612801565b9060005260206000200154600260008881526020019081526020016000208381548110610d1f57610d1f612801565b906000526020600020018190555060026000878152602001908152602001600020805480610d4f57610d4f6128c7565b6001900381819060005260206000200160009055905560006001600089815260200190815260200160002060010154905060018551610d8e91906128b4565b600003610dbf57600088815260016020526040812090610dae8282612121565b506000600182018190556002909101555b8087897f585a4aef50f8267a92b32412b331b20f7f8b96f2245b253b9cc50dcc621d339760405160405180910390a46001955050505050505b92915050565b60065460009060ff610100909104161515600114610e2e5760405162461bcd60e51b81526004016104eb9061275e565b33301480610e4b575060408051336020820152610e4b910161050d565b610e675760405162461bcd60e51b81526004016104eb906127b1565b6000806000606080866001600160a01b031663c9100bcb896040518263ffffffff1660e01b8152600401610e9d91815260200190565b600060405180830381865afa158015610eba573d6000803e3d6000fd5b505050506040513d6000823e601f3d908101601f19168201604052610ee29190810190612a23565b5060405194995092975090955093509150603890610f01908490612817565b9081526040519081900360200190205460ff1615610f615760405162461bcd60e51b815260206004820152601f60248201527f436f6e666c6963743a20436c61696d20616c7265616479207265766f6b65640060448201526064016104eb565b6001603883604051610f739190612817565b908152604051908190036020018120805492151560ff1990931692909217909155610f9f908390612817565b604051908190038120907f7f484e37f24c0a92f81dd74afa3027b3ea31f2e9fb6b9fa29fe9865f81ac556990600090a2506001979650505050505050565b60065460009060ff61010090910416151560011461100d5760405162461bcd60e51b81526004016104eb9061275e565b600054831061106e5760405162461bcd60e51b815260206004820152602760248201527f43616e6e6f7420617070726f76652061206e6f6e2d6578697374696e6720657860448201526632b1baba34b7b760c91b60648201526084016104eb565b60008381526003602081905260409091200154610100900460ff16156110d65760405162461bcd60e51b815260206004820152601860248201527f5265717565737420616c7265616479206578656375746564000000000000000060448201526064016104eb565b600083815260036020526040902054306001600160a01b0390911603611167576040805133602082015261110a910161050d565b6111625760405162461bcd60e51b815260206004820152602360248201527f53656e64657220646f6573206e6f742068617665206d616e6167656d656e74206044820152626b657960e81b60648201526084016104eb565b6111e0565b6040805133602082015261119491015b604051602081830303815290604052805190602001206002611ddf565b6111e05760405162461bcd60e51b815260206004820152601f60248201527f53656e64657220646f6573206e6f74206861766520616374696f6e206b65790060448201526064016104eb565b827fb3932da477fe5d6c8ff2eafef050c0f3a1af18fc07121001482600f36f3715d883604051611214911515815260200190565b60405180910390a281151560010361139c57600083815260036020819052604091829020908101805460ff1916600190811790915581549082015492516001600160a01b03909116929161126d91600290910190612ad8565b60006040518083038185875af1925050503d80600081146112aa576040519150601f19603f3d011682016040523d82523d6000602084013e6112af565b606091505b5090915050801561133457600083815260036020819052604091829020908101805461ff00191661010017905560018101548154925190926001600160a01b03169186917f1f920dbda597d7bf95035464170fa58d0a4b57f13a1c315ace6793b9f63688b89161132491600290910190612b4e565b60405180910390a4506001610df8565b6000838152600360205260409081902060018101548154925190926001600160a01b03169186917fe10c49d9f7c71da23262367013434763cfdb2332267641728d25cd712c5c6a689161138c91600290910190612b4e565b60405180910390a4506000610df8565b50506000908152600360208190526040822001805460ff1916905590565b60008181526005602090815260409182902080548351818402810184019094528084526060939283018282801561141057602002820191906000526020600020905b8154815260200190600101908083116113fc575b50505050509050919050565b60008181526002602090815260409182902080548351818402810184019094528084526060939283018282801561141057602002820191906000526020600020908154815260200190600101908083116113fc5750505050509050919050565b60065460ff6101009091041615156001146114a95760405162461bcd60e51b81526004016104eb9061275e565b333014806114c65750604080513360208201526114c6910161050d565b6114e25760405162461bcd60e51b81526004016104eb906127b1565b603882826040516114f4929190612b61565b9081526040519081900360200190205460ff16156115545760405162461bcd60e51b815260206004820152601f60248201527f436f6e666c6963743a20436c61696d20616c7265616479207265766f6b65640060448201526064016104eb565b600160388383604051611568929190612b61565b908152604051908190036020018120805492151560ff19909316929092179091556115969083908390612b61565b604051908190038120907f7f484e37f24c0a92f81dd74afa3027b3ea31f2e9fb6b9fa29fe9865f81ac556990600090a25050565b60065460009060ff6101009091041615156001146115fa5760405162461bcd60e51b81526004016104eb9061275e565b333014806116175750604080513360208201526116179101610798565b6116335760405162461bcd60e51b81526004016104eb90612833565b6001600160a01b03851630146116f25760405163604b4d3760e11b81526001600160a01b0386169063c0969a6e906116759030908b9089908990600401612b71565b602060405180830381865afa158015611692573d6000803e3d6000fd5b505050506040513d601f19601f820116820180604052508101906116b69190612baa565b6116f25760405162461bcd60e51b815260206004820152600d60248201526c696e76616c696420636c61696d60981b60448201526064016104eb565b604080516001600160a01b038716602082015290810188905260009060600160408051601f1981840301815291815281516020928301206000818152600490935291208981556001810189905590915060030161174f8682612c18565b5060008181526004602081905260409091200161176c8582612c18565b5060008181526004602052604090206005016117888482612c18565b506000818152600460205260409020600201546001600160a01b0387811691161461184157600088815260056020908152604080832080546001810182559084528284200184905583835260049091529081902060020180546001600160a01b0319166001600160a01b0389169081179091559051899083907f46149b18aa084502c3f12bc75e19eda8bda8d102b82cce8474677a6d0d5f43c590611834908c908b908b908b90612cd8565b60405180910390a461188b565b856001600160a01b031688827f3bab293fc00db832d7619a9299914251b8747c036867ec056cbd506f60135b138a8989896040516118829493929190612cd8565b60405180910390a45b979650505050505050565b60065460009060ff6101009091041615156001146118c65760405162461bcd60e51b81526004016104eb9061275e565b600080548082526003602052604090912080546001600160a01b0319166001600160a01b038716178155600181018590556002016119048482612c18565b506000805490806119148361289b565b919050555083856001600160a01b0316827f8afcfabcb00e47a53a8fc3e9f23ff47ee1926194bb1350dd007c50b412a6cee88660405161195491906123ae565b60405180910390a460408051336020820152611970910161050d565b1561198657611980816001610fdd565b506119c0565b6001600160a01b03851630148015906119ae5750604080513360208201526119ae9101611177565b156119c0576119be816001610fdd565b505b949350505050565b6000808585846040516020016119e093929190612d17565b604051602081830303815290604052805190602001209050600081604051602001611a3791907f19457468657265756d205369676e6564204d6573736167653a0a3332000000008152601c810191909152603c0190565b6040516020818303038152906040528051906020012090506000611a5b8683611acb565b604080516001600160a01b038316602082015291925060009101604051602081830303815290604052805190602001209050611a98816003611ddf565b8015611aaa5750611aa887610715565b155b15611abc5760019450505050506119c0565b50600098975050505050505050565b6000806000808551604114611ae65760009350505050610df8565b50505060208301516040840151606085015160001a601b811015611b1257611b0f601b82612d47565b90505b6040805160008082526020820180845288905260ff841692820192909252606081018590526080810184905260019060a0016020604051602081039080840390855afa158015611b66573d6000803e3d6000fd5b5050604051601f19015198975050505050505050565b6001600160a01b038116611bd25760405162461bcd60e51b815260206004820152601f60248201527f696e76616c696420617267756d656e74202d207a65726f20616464726573730060448201526064016104eb565b611bdb81611f36565b50565b600081815260046020819052604082208054600182015460028301546003840180548796879660609687968796919590946001600160a01b03909216939092908101916005909101908390611c32906128dd565b80601f0160208091040260200160405190810160405280929190818152602001828054611c5e906128dd565b8015611cab5780601f10611c8057610100808354040283529160200191611cab565b820191906000526020600020905b815481529060010190602001808311611c8e57829003601f168201915b50505050509250818054611cbe906128dd565b80601f0160208091040260200160405190810160405280929190818152602001828054611cea906128dd565b8015611d375780601f10611d0c57610100808354040283529160200191611d37565b820191906000526020600020905b815481529060010190602001808311611d1a57829003601f168201915b50505050509150808054611d4a906128dd565b80601f0160208091040260200160405190810160405280929190818152602001828054611d76906128dd565b8015611dc35780601f10611d9857610100808354040283529160200191611dc3565b820191906000526020600020905b815481529060010190602001808311611da657829003601f168201915b5050505050905095509550955095509550955091939550919395565b60008281526001602090815260408083208151815460809481028201850190935260608101838152859491938492849190840182828015611e3f57602002820191906000526020600020905b815481526020019060010190808311611e2b575b505050918352505060018201546020820152600290910154604091820152810151909150600003611e74576000915050610df8565b60005b815151811015611ecb57600082600001518281518110611e9957611e99612801565b602002602001015190508060011480611eb157508481145b15611ec25760019350505050610df8565b50600101611e77565b506000949350505050565b60008181526001602090815260409182902080548351818402810184019094528084526060939283018282801561141057602002820191906000526020600020908154815260200190600101908083116113fc5750505050509050919050565b60065460ff161580611f475750303b155b611f935760405162461bcd60e51b815260206004820152601e60248201527f496e697469616c206b65792077617320616c72656164792073657475702e000060448201526064016104eb565b6006805461ffff1916610101179055604080516001600160a01b03831660208201526000910160408051601f198184030181528282528051602091820120600081815260018084528482206002810184905586850190955280865290829052918290529350612002929061213f565b506000818152600160208181526040808420830183905560029091527fe90b7bceb6e7df5418fb78d8ee546e97c83a08bbccc01a0644d599ccd2a7c2e0805480840182559084527f7fef4bf8f63cf9dd467136c679c02b5c17fcf6322d9562512bf5eb952cf7cc5301849055519091829184917f480000bb1edad8ca1470381cc334b1917fbd51c6531f3a623ea8e0ec7e38a6e991a45050565b8280548282559060005260206000209081019282156120d7579160200282015b828111156120d75782518255916020019190600101906120bc565b506120e392915061217f565b5090565b5080546120f3906128dd565b6000825580601f10612103575050565b601f016020900490600052602060002090810190611bdb919061217f565b5080546000825590600052602060002090810190611bdb919061217f565b8280548282559060005260206000209081019282156120d7579160200282015b828111156120d7578251829060ff1690559160200191906001019061215f565b5b808211156120e35760008155600101612180565b6000602082840312156121a657600080fd5b5035919050565b60008151808452602080850194506020840160005b838110156121de578151875295820195908201906001016121c2565b509495945050505050565b6060815260006121fc60608301866121ad565b60208301949094525060400152919050565b60008060006060848603121561222357600080fd5b505081359360208301359350604090920135919050565b634e487b7160e01b600052604160045260246000fd5b604051601f8201601f1916810167ffffffffffffffff811182821017156122795761227961223a565b604052919050565b600067ffffffffffffffff82111561229b5761229b61223a565b50601f01601f191660200190565b60006122bc6122b784612281565b612250565b90508281528383830111156122d057600080fd5b828260208301376000602084830101529392505050565b600082601f8301126122f857600080fd5b61070e838335602085016122a9565b60006020828403121561231957600080fd5b813567ffffffffffffffff81111561233057600080fd5b6119c0848285016122e7565b6000806040838503121561234f57600080fd5b50508035926020909101359150565b60005b83811015612379578181015183820152602001612361565b50506000910152565b6000815180845261239a81602086016020860161235e565b601f01601f19169290920160200192915050565b60208152600061070e6020830184612382565b6001600160a01b0381168114611bdb57600080fd5b600080604083850312156123e957600080fd5b8235915060208301356123fb816123c1565b809150509250929050565b8015158114611bdb57600080fd5b6000806040838503121561242757600080fd5b8235915060208301356123fb81612406565b6020808252825182820181905260009190848201906040850190845b8181101561247157835183529284019291840191600101612455565b50909695505050505050565b6000806020838503121561249057600080fd5b823567ffffffffffffffff808211156124a857600080fd5b818501915085601f8301126124bc57600080fd5b8135818111156124cb57600080fd5b8660208285010111156124dd57600080fd5b60209290920196919550909350505050565b60008060008060008060c0878903121561250857600080fd5b86359550602087013594506040870135612521816123c1565b9350606087013567ffffffffffffffff8082111561253e57600080fd5b61254a8a838b016122e7565b9450608089013591508082111561256057600080fd5b61256c8a838b016122e7565b935060a089013591508082111561258257600080fd5b508701601f8101891361259457600080fd5b6125a3898235602084016122a9565b9150509295509295509295565b6000806000606084860312156125c557600080fd5b83356125d0816123c1565b925060208401359150604084013567ffffffffffffffff8111156125f357600080fd5b6125ff868287016122e7565b9150509250925092565b6000806000806080858703121561261f57600080fd5b843561262a816123c1565b935060208501359250604085013567ffffffffffffffff8082111561264e57600080fd5b61265a888389016122e7565b9350606087013591508082111561267057600080fd5b5061267d878288016122e7565b91505092959194509250565b6000806040838503121561269c57600080fd5b823567ffffffffffffffff8111156126b357600080fd5b6126bf858286016122e7565b95602094909401359450505050565b6000602082840312156126e057600080fd5b813561070e816123c1565b86815285602082015260018060a01b038516604082015260c06060820152600061271860c0830186612382565b828103608084015261272a8186612382565b905082810360a084015261273e8185612382565b9998505050505050505050565b60208152600061070e60208301846121ad565b60208082526033908201527f496e746572616374696e67207769746820746865206c69627261727920636f6e6040820152723a3930b1ba1034b9903337b93134b23232b71760691b606082015260800190565b60208082526030908201527f5065726d697373696f6e733a2053656e64657220646f6573206e6f742068617660408201526f65206d616e6167656d656e74206b657960801b606082015260800190565b634e487b7160e01b600052603260045260246000fd5b6000825161282981846020870161235e565b9190910192915050565b60208082526032908201527f5065726d697373696f6e733a2053656e64657220646f6573206e6f74206861766040820152716520636c61696d207369676e6572206b657960701b606082015260800190565b634e487b7160e01b600052601160045260246000fd5b6000600182016128ad576128ad612885565b5060010190565b81810381811115610df857610df8612885565b634e487b7160e01b600052603160045260246000fd5b600181811c908216806128f157607f821691505b60208210810361291157634e487b7160e01b600052602260045260246000fd5b50919050565b60008154612924816128dd565b808552602060018381168015612941576001811461295b57612989565b60ff1985168884015283151560051b880183019550612989565b866000528260002060005b858110156129815781548a8201860152908301908401612966565b890184019650505b505050505092915050565b8481526080602082015260006129ad6080830186612917565b82810360408401526129bf8186612917565b9050828103606084015261188b8185612917565b60006129e16122b784612281565b90508281528383830111156129f557600080fd5b61070e83602083018461235e565b600082601f830112612a1457600080fd5b61070e838351602085016129d3565b60008060008060008060c08789031215612a3c57600080fd5b86519550602087015194506040870151612a55816123c1565b606088015190945067ffffffffffffffff80821115612a7357600080fd5b612a7f8a838b01612a03565b94506080890151915080821115612a9557600080fd5b612aa18a838b01612a03565b935060a0890151915080821115612ab757600080fd5b508701601f81018913612ac957600080fd5b6125a3898251602084016129d3565b6000808354612ae6816128dd565b60018281168015612afe5760018114612b1357612b42565b60ff1984168752821515830287019450612b42565b8760005260208060002060005b85811015612b395781548a820152908401908201612b20565b50505082870194505b50929695505050505050565b60208152600061070e6020830184612917565b8183823760009101908152919050565b60018060a01b0385168152836020820152608060408201526000612b986080830185612382565b828103606084015261188b8185612382565b600060208284031215612bbc57600080fd5b815161070e81612406565b601f821115612c13576000816000526020600020601f850160051c81016020861015612bf05750805b601f850160051c820191505b81811015612c0f57828155600101612bfc565b5050505b505050565b815167ffffffffffffffff811115612c3257612c3261223a565b612c4681612c4084546128dd565b84612bc7565b602080601f831160018114612c7b5760008415612c635750858301515b600019600386901b1c1916600185901b178555612c0f565b600085815260208120601f198616915b82811015612caa57888601518255948401946001909101908401612c8b565b5085821015612cc85787850151600019600388901b60f8161c191681555b5050505050600190811b01905550565b848152608060208201526000612cf16080830186612382565b8281036040840152612d038186612382565b9050828103606084015261188b8185612382565b60018060a01b0384168152826020820152606060408201526000612d3e6060830184612382565b95945050505050565b60ff8181168382160190811115610df857610df861288556fea2646970667358221220d903dc2e345dbbf9f5b85378c3db3792f25689efa58cde9fa42bac7d1ee8ec1464736f6c63430008180033","linkReferences":{}},"methodIdentifiers":{"addClaim(uint256,uint256,address,bytes,bytes,string)":"b1a34e0d","addKey(bytes32,uint256,uint256)":"1d381240","approve(uint256,bool)":"747442d3","execute(address,uint256,bytes)":"b61d27f6","getClaim(bytes32)":"c9100bcb","getClaimIdsByTopic(uint256)":"80e9e9e1","getKey(bytes32)":"12aaac70","getKeyPurposes(bytes32)":"fb307b34","getKeysByPurpose(uint256)":"9010f726","getRecoveredAddress(bytes,bytes32)":"c3b129e3","initialize(address)":"c4d66de8","isClaimRevoked(bytes)":"2646b264","isClaimValid(address,uint256,bytes,bytes)":"c0969a6e","keyHasPurpose(bytes32,uint256)":"d202158d","removeClaim(bytes32)":"4eee424a","removeKey(bytes32,uint256)":"53d413c5","revokeClaim(bytes32,address)":"73c33708","revokeClaimBySignature(bytes)":"9f7f9edd","revokedClaims(bytes)":"d2345249","version()":"54fd4d50"},"id":112}