{"abi":[{"type":"constructor","inputs":[{"name":"_underlying","type":"address","internalType":"contract ERC20"},{"name":"_name","type":"string","internalType":"string"},{"name":"_symbol","type":"string","internalType":"string"},{"name":"_rewardTokens","type":"address[]","internalType":"address[]"}],"stateMutability":"payable"},{"type":"function","name":"addReward","inputs":[{"name":"_token","type":"address","internalType":"address"},{"name":"_amount","type":"uint256","internalType":"uint256"},{"name":"_vestingPeriod","type":"uint256","internalType":"uint256"}],"outputs":[],"stateMutability":"nonpayable"},{"type":"function","name":"asset","inputs":[],"outputs":[{"name":"","type":"address","internalType":"contract ERC20"}],"stateMutability":"view"},{"type":"function","name":"assetTotalSupply","inputs":[],"outputs":[{"name":"","type":"uint256","internalType":"uint256"}],"stateMutability":"view"},{"type":"function","name":"assetsOf","inputs":[{"name":"user","type":"address","internalType":"address"}],"outputs":[{"name":"","type":"uint256","internalType":"uint256"}],"stateMutability":"view"},{"type":"function","name":"assetsPerShare","inputs":[],"outputs":[{"name":"","type":"uint256","internalType":"uint256"}],"stateMutability":"view"},{"type":"function","name":"claimAllReward","inputs":[{"name":"_startPosition","type":"uint256","internalType":"uint256"}],"outputs":[{"name":"","type":"uint256","internalType":"uint256"},{"name":"","type":"uint256","internalType":"uint256"}],"stateMutability":"nonpayable"},{"type":"function","name":"deposit","inputs":[{"name":"assets","type":"uint256","internalType":"uint256"},{"name":"receiver","type":"address","internalType":"address"}],"outputs":[{"name":"shares","type":"uint256","internalType":"uint256"}],"stateMutability":"nonpayable"},{"type":"function","name":"getAllRewards","inputs":[{"name":"_user","type":"address","internalType":"address"}],"outputs":[{"name":"","type":"uint256[]","internalType":"uint256[]"}],"stateMutability":"view"},{"type":"function","name":"getRewardTokens","inputs":[],"outputs":[{"name":"","type":"address[]","internalType":"address[]"}],"stateMutability":"view"},{"type":"function","name":"getUserReward","inputs":[{"name":"_user","type":"address","internalType":"address"},{"name":"_token","type":"address","internalType":"address"}],"outputs":[{"name":"unclaimedAmount","type":"uint256","internalType":"uint256"}],"stateMutability":"view"},{"type":"function","name":"maxDeposit","inputs":[{"name":"","type":"address","internalType":"address"}],"outputs":[{"name":"","type":"uint256","internalType":"uint256"}],"stateMutability":"pure"},{"type":"function","name":"maxMint","inputs":[{"name":"","type":"address","internalType":"address"}],"outputs":[{"name":"","type":"uint256","internalType":"uint256"}],"stateMutability":"pure"},{"type":"function","name":"maxRedeem","inputs":[{"name":"user","type":"address","internalType":"address"}],"outputs":[{"name":"","type":"uint256","internalType":"uint256"}],"stateMutability":"view"},{"type":"function","name":"maxWithdraw","inputs":[{"name":"user","type":"address","internalType":"address"}],"outputs":[{"name":"","type":"uint256","internalType":"uint256"}],"stateMutability":"view"},{"type":"function","name":"owner","inputs":[],"outputs":[{"name":"","type":"address","internalType":"address"}],"stateMutability":"view"},{"type":"function","name":"previewDeposit","inputs":[{"name":"amount","type":"uint256","internalType":"uint256"}],"outputs":[{"name":"shares","type":"uint256","internalType":"uint256"}],"stateMutability":"view"},{"type":"function","name":"previewMint","inputs":[{"name":"shares","type":"uint256","internalType":"uint256"}],"outputs":[{"name":"amount","type":"uint256","internalType":"uint256"}],"stateMutability":"view"},{"type":"function","name":"previewRedeem","inputs":[{"name":"shares","type":"uint256","internalType":"uint256"}],"outputs":[{"name":"amount","type":"uint256","internalType":"uint256"}],"stateMutability":"view"},{"type":"function","name":"previewWithdraw","inputs":[{"name":"amount","type":"uint256","internalType":"uint256"}],"outputs":[{"name":"shares","type":"uint256","internalType":"uint256"}],"stateMutability":"view"},{"type":"function","name":"renounceOwnership","inputs":[],"outputs":[],"stateMutability":"nonpayable"},{"type":"function","name":"rewardTokens","inputs":[{"name":"","type":"uint256","internalType":"uint256"}],"outputs":[{"name":"","type":"address","internalType":"address"}],"stateMutability":"view"},{"type":"function","name":"share","inputs":[],"outputs":[{"name":"","type":"address","internalType":"contract CustomERC20"}],"stateMutability":"view"},{"type":"function","name":"tokensRewardInfo","inputs":[{"name":"","type":"address","internalType":"address"}],"outputs":[{"name":"vestingPeriod","type":"uint256","internalType":"uint256"}],"stateMutability":"view"},{"type":"function","name":"totalAssets","inputs":[],"outputs":[{"name":"","type":"uint256","internalType":"uint256"}],"stateMutability":"view"},{"type":"function","name":"transferOwnership","inputs":[{"name":"newOwner","type":"address","internalType":"address"}],"outputs":[],"stateMutability":"nonpayable"},{"type":"function","name":"userContribution","inputs":[{"name":"","type":"address","internalType":"address"}],"outputs":[{"name":"sharesAmount","type":"uint256","internalType":"uint256"},{"name":"exist","type":"bool","internalType":"bool"}],"stateMutability":"view"},{"type":"function","name":"withdraw","inputs":[{"name":"amount","type":"uint256","internalType":"uint256"},{"name":"receiver","type":"address","internalType":"address"},{"name":"from","type":"address","internalType":"address"}],"outputs":[{"name":"shares","type":"uint256","internalType":"uint256"}],"stateMutability":"nonpayable"},{"type":"event","name":"Deposit","inputs":[{"name":"user","type":"address","indexed":true,"internalType":"address"},{"name":"receiver","type":"address","indexed":true,"internalType":"address"},{"name":"assets","type":"uint256","indexed":false,"internalType":"uint256"},{"name":"shares","type":"uint256","indexed":false,"internalType":"uint256"}],"anonymous":false},{"type":"event","name":"OwnershipTransferred","inputs":[{"name":"previousOwner","type":"address","indexed":true,"internalType":"address"},{"name":"newOwner","type":"address","indexed":true,"internalType":"address"}],"anonymous":false},{"type":"event","name":"RewardAdded","inputs":[{"name":"rewardToken","type":"address","indexed":true,"internalType":"address"},{"name":"amount","type":"uint256","indexed":false,"internalType":"uint256"}],"anonymous":false},{"type":"event","name":"RewardsClaimed","inputs":[{"name":"user","type":"address","indexed":true,"internalType":"address"},{"name":"totalRewards","type":"uint256","indexed":false,"internalType":"uint256"},{"name":"rewardToken","type":"address","indexed":true,"internalType":"address"}],"anonymous":false},{"type":"event","name":"Withdraw","inputs":[{"name":"user","type":"address","indexed":true,"internalType":"address"},{"name":"receiver","type":"address","indexed":true,"internalType":"address"},{"name":"assets","type":"uint256","indexed":false,"internalType":"uint256"},{"name":"shares","type":"uint256","indexed":false,"internalType":"uint256"}],"anonymous":false},{"type":"error","name":"OwnableInvalidOwner","inputs":[{"name":"owner","type":"address","internalType":"address"}]},{"type":"error","name":"OwnableUnauthorizedAccount","inputs":[{"name":"account","type":"address","internalType":"address"}]},{"type":"error","name":"ReentrancyGuardReentrantCall","inputs":[]}],"bytecode":{"object":"0x60a0604052604051620029a6380380620029a68339810160408190526200002691620002c2565b33806200004d57604051631e4fbdf760e01b81526000600482015260240160405180910390fd5b6200005881620000e7565b50600180556001600160a01b038416608052604051839083906200007c9062000137565b6200008992919062000414565b604051809103906000f080158015620000a6573d6000803e3d6000fd5b50600280546001600160a01b0319166001600160a01b03929092169190911790558051620000dc90600490602084019062000145565b505050505062000446565b600080546001600160a01b038381166001600160a01b0319831681178455604051919092169283917f8be0079c531659141344cd1fd0a4f28419497f9722a3daafe3b4186f6b6457e09190a35050565b610ada8062001ecc83390190565b8280548282559060005260206000209081019282156200019d579160200282015b828111156200019d57825182546001600160a01b0319166001600160a01b0390911617825560209092019160019091019062000166565b50620001ab929150620001af565b5090565b5b80821115620001ab5760008155600101620001b0565b6001600160a01b0381168114620001dc57600080fd5b50565b634e487b7160e01b600052604160045260246000fd5b604051601f8201601f191681016001600160401b0381118282101715620002205762000220620001df565b604052919050565b60005b83811015620002455781810151838201526020016200022b565b50506000910152565b600082601f8301126200026057600080fd5b81516001600160401b038111156200027c576200027c620001df565b62000291601f8201601f1916602001620001f5565b818152846020838601011115620002a757600080fd5b620002ba82602083016020870162000228565b949350505050565b60008060008060808587031215620002d957600080fd5b8451620002e681620001c6565b602086810151919550906001600160401b03808211156200030657600080fd5b6200031489838a016200024e565b955060408801519150808211156200032b57600080fd5b6200033989838a016200024e565b945060608801519150808211156200035057600080fd5b818801915088601f8301126200036557600080fd5b8151818111156200037a576200037a620001df565b8060051b91506200038d848301620001f5565b818152918301840191848101908b841115620003a857600080fd5b938501935b83851015620003d65784519250620003c583620001c6565b8282529385019390850190620003ad565b989b979a50959850505050505050565b600081518084526200040081602086016020860162000228565b601f01601f19169290920160200192915050565b604081526000620004296040830185620003e6565b82810360208401526200043d8185620003e6565b95945050505050565b608051611a4e6200047e6000396000818161025b015281816104010152818161076801528181610c8e0152610fcc0152611a4e6000f3fe608060405234801561001057600080fd5b50600436106101a95760003560e01c80637a07bf3a116100f9578063c4f59f9b11610097578063ce96cb7711610071578063ce96cb77146103b0578063d905777e146103c3578063ef8b30f7146101c9578063f2fde38b146103d657600080fd5b8063c4f59f9b1461037b578063c63d75b614610295578063cd9cdfda1461039057600080fd5b80638f12c2f4116100d35780638f12c2f41461034c578063a8d5fd6514610355578063b3d7f6b9146102bf578063b460af941461036857600080fd5b80637a07bf3a146103005780637bb7bed1146103285780638da5cb5b1461033b57600080fd5b806338d52e0f116101665780634cdad506116101405780634cdad506146102bf5780635ab764ed146102d25780636e553f65146102e5578063715018a6146102f857600080fd5b806338d52e0f14610256578063402d267d1461029557806344ea559a146102aa57600080fd5b806301e1d114146101ae5780630a28a477146101c957806316ad0672146101dc5780632c62fa101461021b57806335d16e171461022e578063362a3fad14610236575b600080fd5b6101b66103e9565b6040519081526020015b60405180910390f35b6101b66101d7366004611560565b610479565b6102066101ea366004611595565b6005602052600090815260409020805460019091015460ff1682565b604080519283529015156020830152016101c0565b6101b6610229366004611595565b6104b6565b6101b6610530565b610249610244366004611595565b6105b7565b6040516101c091906115b0565b61027d7f000000000000000000000000000000000000000000000000000000000000000081565b6040516001600160a01b0390911681526020016101c0565b6101b66102a3366004611595565b5060001990565b6102bd6102b83660046115f4565b6106a6565b005b6101b66102cd366004611560565b6109b9565b6101b66102e0366004611627565b6109e2565b6101b66102f336600461165a565b610c10565b6102bd610dd1565b61031361030e366004611560565b610de5565b604080519283526020830191909152016101c0565b61027d610336366004611560565b610ee1565b6000546001600160a01b031661027d565b6101b660035481565b60025461027d906001600160a01b031681565b6101b661037636600461167d565b610f0b565b610383611099565b6040516101c091906116b9565b6101b661039e366004611595565b60066020526000908152604090205481565b6101b66103be366004611595565b6110fb565b6101b66103d1366004611595565b611106565b6102bd6103e4366004611595565b611175565b6040516370a0823160e01b81523060048201526000907f00000000000000000000000000000000000000000000000000000000000000006001600160a01b0316906370a0823190602401602060405180830381865afa158015610450573d6000803e3d6000fd5b505050506040513d601f19601f8201168201806040525081019061047491906116fa565b905090565b6000806104846103e9565b905080156104ad576104a8816104a285670de0b6b3a76400006111b3565b906111e9565b6104af565b825b9392505050565b6002546040516370a0823160e01b81526001600160a01b03838116600483015260009261052a929116906370a0823190602401602060405180830381865afa158015610506573d6000803e3d6000fd5b505050506040513d601f19601f820116820180604052508101906102cd91906116fa565b92915050565b6000610474600260009054906101000a90046001600160a01b03166001600160a01b031663313ce5676040518163ffffffff1660e01b8152600401602060405180830381865afa158015610588573d6000803e3d6000fd5b505050506040513d601f19601f820116820180604052508101906105ac9190611713565b6102cd90600a611830565b60606001600160a01b0382166105e85760405162461bcd60e51b81526004016105df9061183f565b60405180910390fd5b60045460009067ffffffffffffffff81111561060657610606611880565b60405190808252806020026020018201604052801561062f578160200160208202803683370190505b50905060005b60045481101561069f57610670846004838154811061065657610656611896565b6000918252602090912001546001600160a01b03166109e2565b82828151811061068257610682611896565b602090810291909101015280610697816118ac565b915050610635565b5092915050565b6106ae6111f5565b6001600160a01b0383166106d45760405162461bcd60e51b81526004016105df906118c5565b816000036106f45760405162461bcd60e51b81526004016105df90611907565b6003546000036107465760405162461bcd60e51b815260206004820152601a60248201527f5661756c743a204e6f20746f6b656e207374616b65642079657400000000000060448201526064016105df565b806000036107665760405162461bcd60e51b81526004016105df9061193e565b7f00000000000000000000000000000000000000000000000000000000000000006001600160a01b0316836001600160a01b0316141580156107b657506002546001600160a01b03848116911614155b61081a5760405162461bcd60e51b815260206004820152602f60248201527f5661756c743a2052657761726420616e64205374616b696e6720746f6b656e7360448201526e2063616e6e6f742062652073616d6560881b60648201526084016105df565b6001600160a01b038316600090815260066020526040812082815560045490914291815b8181101561089857876001600160a01b03166004828154811061086357610863611896565b6000918252602090912001546001600160a01b0316036108865760019250610898565b80610890816118ac565b91505061083e565b50816108ea57600480546001810182556000919091527f8a35acfbc15ff81a39ae7d344fd709f28e8600b4aa8c65c6b64bfe7fe36bd19b0180546001600160a01b0319166001600160a01b0389161790555b6108f5878785611222565b6040516323b872dd60e01b8152336004820152306024820152604481018790526001600160a01b038816906323b872dd906064016020604051808303816000875af1158015610948573d6000803e3d6000fd5b505050506040513d601f19601f8201168201806040525081019061096c9190611981565b50866001600160a01b03167fac24935fd910bc682b5ccb1a07b718cadf8cf2f6d1404c4f3ddc3662dae40e29876040516109a891815260200190565b60405180910390a250505050505050565b6000806109c46103e9565b905080156104ad576104a8670de0b6b3a76400006104a285846111b3565b60006001600160a01b038316610a0a5760405162461bcd60e51b81526004016105df9061183f565b6001600160a01b038216610a305760405162461bcd60e51b81526004016105df906118c5565b6001600160a01b0380841660009081526005602090815260408083209386168352600690915290208054610a765760405162461bcd60e51b81526004016105df9061193e565b600282015460018201544291600091825b82811015610c02576000876002018281548110610aa657610aa6611896565b9060005260206000209060030201905060008088600001548360010154610acd91906119a3565b905060005b85811015610bb85760008a6001018281548110610af157610af1611896565b9060005260206000209060030201905060008382600001541115610b16575050610ba6565b8160010154600003610b4857838b10610b3c578154610b3590856119b6565b9050610b73565b8154610b35908c6119b6565b81600101548410610b645781546001830154610b3591906119b6565b8154610b7090856119b6565b90505b8b5460028301548754610b9792916104a2918591610b9191906111b3565b906111b3565b610ba190866119a3565b945050505b80610bb0816118ac565b915050610ad2565b506001600160a01b038c166000908152600284016020526040902054610bde90836119b6565b9150610bea82886119a3565b96505050508080610bfa906118ac565b915050610a87565b509198975050505050505050565b6000610c1a6113ed565b610c2383610479565b905080600003610c625760405162461bcd60e51b815260206004820152600a6024820152695a65726f53686172657360b01b60448201526064016105df565b6040516323b872dd60e01b81526001600160a01b038381166004830152306024830152604482018590527f000000000000000000000000000000000000000000000000000000000000000016906323b872dd906064016020604051808303816000875af1158015610cd7573d6000803e3d6000fd5b505050506040513d601f19601f82011682018060405250810190610cfb9190611981565b508260036000828254610d0e91906119a3565b90915550506002546040516340c10f1960e01b81526001600160a01b03848116600483015260248201849052909116906340c10f1990604401600060405180830381600087803b158015610d6157600080fd5b505af1158015610d75573d6000803e3d6000fd5b505060408051868152602081018590526001600160a01b03861693503392507fdcbc1c05240f31ff3ad067ef1ee35ce4997762752e3a095284754544f4c709d7910160405180910390a3610dc883611417565b61052a60018055565b610dd96111f5565b610de360006114d0565b565b6004546000908190835b8181108015610e075750610e0485600a6119a3565b81105b15610ed957600060048281548110610e2157610e21611896565b60009182526020822001546001600160a01b03169150610e4133836109e2565b905080600003610e52575050610ec7565b60405163a9059cbb60e01b8152336004820152602481018290526001600160a01b0383169063a9059cbb906044016020604051808303816000875af1158015610e9f573d6000803e3d6000fd5b505050506040513d601f19601f82011682018060405250810190610ec39190611981565b5050505b80610ed1816118ac565b915050610def565b509293915050565b60048181548110610ef157600080fd5b6000918252602090912001546001600160a01b0316905081565b6000610f156113ed565b610f1e84611520565b610f2784610479565b60025460405163079cc67960e41b81526001600160a01b038581166004830152602482018490529293509116906379cc679090604401600060405180830381600087803b158015610f7757600080fd5b505af1158015610f8b573d6000803e3d6000fd5b505050508360036000828254610fa191906119b6565b909155505060405163a9059cbb60e01b81526001600160a01b038481166004830152602482018690527f0000000000000000000000000000000000000000000000000000000000000000169063a9059cbb906044016020604051808303816000875af1158015611015573d6000803e3d6000fd5b505050506040513d601f19601f820116820180604052508101906110399190611981565b50826001600160a01b0316826001600160a01b03167ff341246adaac6f497bc2a656f546ab9e182111d630394f0c57c710a59a2cb5678684604051611088929190918252602082015260400190565b60405180910390a36104af60018055565b606060048054806020026020016040519081016040528092919081815260200182805480156110f157602002820191906000526020600020905b81546001600160a01b031681526001909101906020018083116110d3575b5050505050905090565b600061052a826104b6565b6002546040516370a0823160e01b81526001600160a01b03838116600483015260009216906370a0823190602401602060405180830381865afa158015611151573d6000803e3d6000fd5b505050506040513d601f19601f8201168201806040525081019061052a91906116fa565b61117d6111f5565b6001600160a01b0381166111a757604051631e4fbdf760e01b8152600060048201526024016105df565b6111b0816114d0565b50565b6000826000036111c55750600061052a565b6111cf82846119c9565b9050816111dc84836119e0565b1461052a5761052a611a02565b60006104af82846119e0565b6000546001600160a01b03163314610de35760405163118cdaa760e01b81523360048201526024016105df565b6001600160a01b0383166112485760405162461bcd60e51b81526004016105df906118c5565b816000036112685760405162461bcd60e51b81526004016105df90611907565b806000036112c25760405162461bcd60e51b815260206004820152602160248201527f5661756c743a2043757272656e742074696d652063616e2774206265207a65726044820152606f60f81b60648201526084016105df565b6001600160a01b03831660009081526006602052604090206001810154801561131d5782826001016001836112f791906119b6565b8154811061130757611307611896565b9060005260206000209060030201600101819055505b6000611334600354866111e990919063ffffffff16565b90506000811161139e5760405162461bcd60e51b815260206004820152602f60248201527f5661756c743a207265776172645065725368617265206d75737420626520677260448201526e6561746572207468616e207a65726f60881b60648201526084016105df565b6040805160608101825294855260006020808701828152928701938452600195860180548088018255908352912095516003909102909501948555519284019290925550516002909101555050565b60026001540361141057604051633ee5aeb560e01b815260040160405180910390fd5b6002600155565b806000036114375760405162461bcd60e51b81526004016105df90611907565b3360009081526005602052604090206001015460ff16611478573360009081526005602052604090208181556001908101805460ff1916909117905561149d565b33600090815260056020526040812080548392906114979084906119a3565b90915550505b33600090815260056020908152604082206002018054600181810183559184529190922060039091020191825542910155565b600080546001600160a01b038381166001600160a01b0319831681178455604051919092169283917f8be0079c531659141344cd1fd0a4f28419497f9722a3daafe3b4186f6b6457e09190a35050565b336000908152600560205260408120805483929061153f9084906119b6565b92505081905550806003600082825461155891906119b6565b909155505050565b60006020828403121561157257600080fd5b5035919050565b80356001600160a01b038116811461159057600080fd5b919050565b6000602082840312156115a757600080fd5b6104af82611579565b6020808252825182820181905260009190848201906040850190845b818110156115e8578351835292840192918401916001016115cc565b50909695505050505050565b60008060006060848603121561160957600080fd5b61161284611579565b95602085013595506040909401359392505050565b6000806040838503121561163a57600080fd5b61164383611579565b915061165160208401611579565b90509250929050565b6000806040838503121561166d57600080fd5b8235915061165160208401611579565b60008060006060848603121561169257600080fd5b833592506116a260208501611579565b91506116b060408501611579565b90509250925092565b6020808252825182820181905260009190848201906040850190845b818110156115e85783516001600160a01b0316835292840192918401916001016116d5565b60006020828403121561170c57600080fd5b5051919050565b60006020828403121561172557600080fd5b815160ff811681146104af57600080fd5b634e487b7160e01b600052601160045260246000fd5b600181815b8085111561178757816000190482111561176d5761176d611736565b8085161561177a57918102915b93841c9390800290611751565b509250929050565b60008261179e5750600161052a565b816117ab5750600061052a565b81600181146117c157600281146117cb576117e7565b600191505061052a565b60ff8411156117dc576117dc611736565b50506001821b61052a565b5060208310610133831016604e8410600b841016171561180a575081810a61052a565b611814838361174c565b806000190482111561182857611828611736565b029392505050565b60006104af60ff84168361178f565b60208082526021908201527f5661756c743a205573657220616464726573732063616e2774206265207a65726040820152606f60f81b606082015260800190565b634e487b7160e01b600052604160045260246000fd5b634e487b7160e01b600052603260045260246000fd5b6000600182016118be576118be611736565b5060010190565b60208082526022908201527f5661756c743a20546f6b656e20616464726573732063616e2774206265207a65604082015261726f60f01b606082015260800190565b6020808252601b908201527f5661756c743a20416d6f756e742063616e2774206265207a65726f0000000000604082015260600190565b60208082526023908201527f5661756c743a2056657374696e6720706572696f642063616e2774206265207a60408201526265726f60e81b606082015260800190565b60006020828403121561199357600080fd5b815180151581146104af57600080fd5b8082018082111561052a5761052a611736565b8181038181111561052a5761052a611736565b808202811582820484141761052a5761052a611736565b6000826119fd57634e487b7160e01b600052601260045260246000fd5b500490565b634e487b7160e01b600052600160045260246000fdfea264697066735822122011baa4b93ee076a2427486a79745c4c3b642a91b394352215a44c1310d46ca7564736f6c6343000814003360806040523480156200001157600080fd5b5060405162000ada38038062000ada833981016040819052620000349162000123565b818160036200004483826200021c565b5060046200005382826200021c565b5050505050620002e8565b634e487b7160e01b600052604160045260246000fd5b600082601f8301126200008657600080fd5b81516001600160401b0380821115620000a357620000a36200005e565b604051601f8301601f19908116603f01168101908282118183101715620000ce57620000ce6200005e565b81604052838152602092508683858801011115620000eb57600080fd5b600091505b838210156200010f5785820183015181830184015290820190620000f0565b600093810190920192909252949350505050565b600080604083850312156200013757600080fd5b82516001600160401b03808211156200014f57600080fd5b6200015d8683870162000074565b935060208501519150808211156200017457600080fd5b50620001838582860162000074565b9150509250929050565b600181811c90821680620001a257607f821691505b602082108103620001c357634e487b7160e01b600052602260045260246000fd5b50919050565b601f8211156200021757600081815260208120601f850160051c81016020861015620001f25750805b601f850160051c820191505b818110156200021357828155600101620001fe565b5050505b505050565b81516001600160401b038111156200023857620002386200005e565b62000250816200024984546200018d565b84620001c9565b602080601f8311600181146200028857600084156200026f5750858301515b600019600386901b1c1916600185901b17855562000213565b600085815260208120601f198616915b82811015620002b95788860151825594840194600190910190840162000298565b5085821015620002d85787850151600019600388901b60f8161c191681555b5050505050600190811b01905550565b6107e280620002f86000396000f3fe608060405234801561001057600080fd5b50600436106100a95760003560e01c806340c10f191161007157806340c10f191461012357806370a082311461013857806379cc67901461016157806395d89b4114610174578063a9059cbb1461017c578063dd62ed3e1461018f57600080fd5b806306fdde03146100ae578063095ea7b3146100cc57806318160ddd146100ef57806323b872dd14610101578063313ce56714610114575b600080fd5b6100b66101c8565b6040516100c3919061062c565b60405180910390f35b6100df6100da366004610696565b61025a565b60405190151581526020016100c3565b6002545b6040519081526020016100c3565b6100df61010f3660046106c0565b610274565b604051601281526020016100c3565b610136610131366004610696565b610298565b005b6100f36101463660046106fc565b6001600160a01b031660009081526020819052604090205490565b61013661016f366004610696565b6102a6565b6100b66102b0565b6100df61018a366004610696565b6102bf565b6100f361019d36600461071e565b6001600160a01b03918216600090815260016020908152604080832093909416825291909152205490565b6060600380546101d790610751565b80601f016020809104026020016040519081016040528092919081815260200182805461020390610751565b80156102505780601f1061022557610100808354040283529160200191610250565b820191906000526020600020905b81548152906001019060200180831161023357829003601f168201915b5050505050905090565b6000336102688185856102cd565b60019150505b92915050565b6000336102828582856102df565b61028d858585610362565b506001949350505050565b6102a282826103c1565b5050565b6102a282826103f7565b6060600480546101d790610751565b600033610268818585610362565b6102da838383600161042d565b505050565b6001600160a01b03838116600090815260016020908152604080832093861683529290522054600019811461035c578181101561034d57604051637dc7a0d960e11b81526001600160a01b038416600482015260248101829052604481018390526064015b60405180910390fd5b61035c8484848403600061042d565b50505050565b6001600160a01b03831661038c57604051634b637e8f60e11b815260006004820152602401610344565b6001600160a01b0382166103b65760405163ec442f0560e01b815260006004820152602401610344565b6102da838383610502565b6001600160a01b0382166103eb5760405163ec442f0560e01b815260006004820152602401610344565b6102a260008383610502565b6001600160a01b03821661042157604051634b637e8f60e11b815260006004820152602401610344565b6102a282600083610502565b6001600160a01b0384166104575760405163e602df0560e01b815260006004820152602401610344565b6001600160a01b03831661048157604051634a1406b160e11b815260006004820152602401610344565b6001600160a01b038085166000908152600160209081526040808320938716835292905220829055801561035c57826001600160a01b0316846001600160a01b03167f8c5be1e5ebec7d5bd14f71427d1e84f3dd0314c0f7b2291e5b200ac8c7c3b925846040516104f491815260200190565b60405180910390a350505050565b6001600160a01b03831661052d578060026000828254610522919061078b565b9091555061059f9050565b6001600160a01b038316600090815260208190526040902054818110156105805760405163391434e360e21b81526001600160a01b03851660048201526024810182905260448101839052606401610344565b6001600160a01b03841660009081526020819052604090209082900390555b6001600160a01b0382166105bb576002805482900390556105da565b6001600160a01b03821660009081526020819052604090208054820190555b816001600160a01b0316836001600160a01b03167fddf252ad1be2c89b69c2b068fc378daa952ba7f163c4a11628f55a4df523b3ef8360405161061f91815260200190565b60405180910390a3505050565b600060208083528351808285015260005b818110156106595785810183015185820160400152820161063d565b506000604082860101526040601f19601f8301168501019250505092915050565b80356001600160a01b038116811461069157600080fd5b919050565b600080604083850312156106a957600080fd5b6106b28361067a565b946020939093013593505050565b6000806000606084860312156106d557600080fd5b6106de8461067a565b92506106ec6020850161067a565b9150604084013590509250925092565b60006020828403121561070e57600080fd5b6107178261067a565b9392505050565b6000806040838503121561073157600080fd5b61073a8361067a565b91506107486020840161067a565b90509250929050565b600181811c9082168061076557607f821691505b60208210810361078557634e487b7160e01b600052602260045260246000fd5b50919050565b8082018082111561026e57634e487b7160e01b600052601160045260246000fdfea264697066735822122086659dc02583fe01867b249fb2e6b8cb8000540c48339d55a765eb4f88c6289c64736f6c63430008140033","linkReferences":{}},"methodIdentifiers":{"addReward(address,uint256,uint256)":"44ea559a","asset()":"38d52e0f","assetTotalSupply()":"8f12c2f4","assetsOf(address)":"2c62fa10","assetsPerShare()":"35d16e17","claimAllReward(uint256)":"7a07bf3a","deposit(uint256,address)":"6e553f65","getAllRewards(address)":"362a3fad","getRewardTokens()":"c4f59f9b","getUserReward(address,address)":"5ab764ed","maxDeposit(address)":"402d267d","maxMint(address)":"c63d75b6","maxRedeem(address)":"d905777e","maxWithdraw(address)":"ce96cb77","owner()":"8da5cb5b","previewDeposit(uint256)":"ef8b30f7","previewMint(uint256)":"b3d7f6b9","previewRedeem(uint256)":"4cdad506","previewWithdraw(uint256)":"0a28a477","renounceOwnership()":"715018a6","rewardTokens(uint256)":"7bb7bed1","share()":"a8d5fd65","tokensRewardInfo(address)":"cd9cdfda","totalAssets()":"01e1d114","transferOwnership(address)":"f2fde38b","userContribution(address)":"16ad0672","withdraw(uint256,address,address)":"b460af94"},"id":2}