{"abi":[{"type":"function","name":"addAgent","inputs":[{"name":"_agent","type":"address","internalType":"address"}],"outputs":[],"stateMutability":"nonpayable"},{"type":"function","name":"addTokenAgent","inputs":[{"name":"_agentAddress","type":"address","internalType":"address"}],"outputs":[],"stateMutability":"nonpayable"},{"type":"function","name":"bindToken","inputs":[{"name":"_token","type":"address","internalType":"address"}],"outputs":[],"stateMutability":"nonpayable"},{"type":"function","name":"canTransfer","inputs":[{"name":"","type":"address","internalType":"address"},{"name":"","type":"address","internalType":"address"},{"name":"","type":"uint256","internalType":"uint256"}],"outputs":[{"name":"","type":"bool","internalType":"bool"}],"stateMutability":"view"},{"type":"function","name":"created","inputs":[{"name":"_to","type":"address","internalType":"address"},{"name":"_value","type":"uint256","internalType":"uint256"}],"outputs":[],"stateMutability":"nonpayable"},{"type":"function","name":"destroyed","inputs":[{"name":"_from","type":"address","internalType":"address"},{"name":"_value","type":"uint256","internalType":"uint256"}],"outputs":[],"stateMutability":"nonpayable"},{"type":"function","name":"isAgent","inputs":[{"name":"_agent","type":"address","internalType":"address"}],"outputs":[{"name":"","type":"bool","internalType":"bool"}],"stateMutability":"view"},{"type":"function","name":"isTokenAgent","inputs":[{"name":"_agentAddress","type":"address","internalType":"address"}],"outputs":[{"name":"","type":"bool","internalType":"bool"}],"stateMutability":"view"},{"type":"function","name":"isTokenBound","inputs":[{"name":"_token","type":"address","internalType":"address"}],"outputs":[{"name":"","type":"bool","internalType":"bool"}],"stateMutability":"view"},{"type":"function","name":"owner","inputs":[],"outputs":[{"name":"","type":"address","internalType":"address"}],"stateMutability":"view"},{"type":"function","name":"removeAgent","inputs":[{"name":"_agent","type":"address","internalType":"address"}],"outputs":[],"stateMutability":"nonpayable"},{"type":"function","name":"removeTokenAgent","inputs":[{"name":"_agentAddress","type":"address","internalType":"address"}],"outputs":[],"stateMutability":"nonpayable"},{"type":"function","name":"renounceOwnership","inputs":[],"outputs":[],"stateMutability":"nonpayable"},{"type":"function","name":"tokenBound","inputs":[],"outputs":[{"name":"","type":"address","internalType":"contract IToken"}],"stateMutability":"view"},{"type":"function","name":"transferOwnership","inputs":[{"name":"newOwner","type":"address","internalType":"address"}],"outputs":[],"stateMutability":"nonpayable"},{"type":"function","name":"transferred","inputs":[{"name":"_from","type":"address","internalType":"address"},{"name":"_to","type":"address","internalType":"address"},{"name":"_value","type":"uint256","internalType":"uint256"}],"outputs":[],"stateMutability":"nonpayable"},{"type":"function","name":"unbindToken","inputs":[{"name":"_token","type":"address","internalType":"address"}],"outputs":[],"stateMutability":"nonpayable"},{"type":"event","name":"AgentAdded","inputs":[{"name":"_agent","type":"address","indexed":true,"internalType":"address"}],"anonymous":false},{"type":"event","name":"AgentRemoved","inputs":[{"name":"_agent","type":"address","indexed":true,"internalType":"address"}],"anonymous":false},{"type":"event","name":"OwnershipTransferred","inputs":[{"name":"previousOwner","type":"address","indexed":true,"internalType":"address"},{"name":"newOwner","type":"address","indexed":true,"internalType":"address"}],"anonymous":false},{"type":"event","name":"TokenAgentAdded","inputs":[{"name":"_agentAddress","type":"address","indexed":false,"internalType":"address"}],"anonymous":false},{"type":"event","name":"TokenAgentRemoved","inputs":[{"name":"_agentAddress","type":"address","indexed":false,"internalType":"address"}],"anonymous":false},{"type":"event","name":"TokenBound","inputs":[{"name":"_token","type":"address","indexed":false,"internalType":"address"}],"anonymous":false},{"type":"event","name":"TokenUnbound","inputs":[{"name":"_token","type":"address","indexed":false,"internalType":"address"}],"anonymous":false},{"type":"error","name":"OwnableInvalidOwner","inputs":[{"name":"owner","type":"address","internalType":"address"}]},{"type":"error","name":"OwnableUnauthorizedAccount","inputs":[{"name":"account","type":"address","internalType":"address"}]}],"bytecode":{"object":"0x608060405234801561001057600080fd5b50338061003757604051631e4fbdf760e01b81526000600482015260240160405180910390fd5b61004081610046565b50610096565b600080546001600160a01b038381166001600160a01b0319831681178455604051919092169283917f8be0079c531659141344cd1fd0a4f28419497f9722a3daafe3b4186f6b6457e09190a35050565b610b5b806100a56000396000f3fe608060405234801561001057600080fd5b506004361061010b5760003560e01c80638d2ea772116100a2578063993e8b9511610071578063993e8b95146101fe578063cdde293214610211578063e46638e614610224578063f2fde38b1461023b578063ff3e69541461024e57600080fd5b80638d2ea772146101735780638da5cb5b146101b357806393e62f07146101d857806397a6278e146101eb57600080fd5b80635f8dead3116100de5780635f8dead314610173578063715018a61461018557806384e798421461018d5780638baf29b4146101a057600080fd5b80631ffbb06414610110578063346531fa146101385780633ff5aa021461014b57806340db3b5014610160575b600080fd5b61012361011e366004610a7b565b610261565b60405190151581526020015b60405180910390f35b610123610146366004610a7b565b610274565b61015e610159366004610a7b565b61031d565b005b61015e61016e366004610a7b565b610407565b61015e610181366004610a9d565b5050565b61015e610529565b61015e61019b366004610a7b565b61053d565b61015e6101ae366004610ac7565b505050565b6000546001600160a01b03165b6040516001600160a01b03909116815260200161012f565b6003546101c0906001600160a01b031681565b61015e6101f9366004610a7b565b6105dd565b61012361020c366004610a7b565b61067d565b61015e61021f366004610a7b565b61069d565b610123610232366004610ac7565b60019392505050565b61015e610249366004610a7b565b61075e565b61015e61025c366004610a7b565b61079c565b600061026e600183610861565b92915050565b6001600160a01b03811660009081526002602052604081205460ff1615801561030857506003546040516307feec1960e21b81526001600160a01b03848116600483015290911690631ffbb06490602401602060405180830381865afa1580156102e2573d6000803e3d6000fd5b505050506040513d601f19601f820116820180604052508101906103069190610b03565b155b1561031557506000919050565b506001919050565b336103306000546001600160a01b031690565b6001600160a01b0316148061036157506003546001600160a01b03161580156103615750336001600160a01b038216145b6103b25760405162461bcd60e51b815260206004820152601c60248201527f6f6e6c79206f776e6572206f7220746f6b656e2063616e2063616c6c0000000060448201526064015b60405180910390fd5b600380546001600160a01b0319166001600160a01b0383169081179091556040519081527f2de35142b19ed5a07796cf30791959c592018f70b1d2d7c460eef8ffe713692b906020015b60405180910390a150565b3361041a6000546001600160a01b031690565b6001600160a01b031614806104375750336001600160a01b038216145b6104835760405162461bcd60e51b815260206004820152601c60248201527f6f6e6c79206f776e6572206f7220746f6b656e2063616e2063616c6c0000000060448201526064016103a9565b6003546001600160a01b038281169116146104e05760405162461bcd60e51b815260206004820152601760248201527f5468697320746f6b656e206973206e6f7420626f756e6400000000000000000060448201526064016103a9565b600380546001600160a01b03191690556040516001600160a01b03821681527f28a4ca7134a3b3f9aff286e79ad3daadb4a06d1b43d037a3a98bdc074edd9b7a906020016103fc565b6105316108e4565b61053b6000610911565b565b6105456108e4565b6001600160a01b03811661059b5760405162461bcd60e51b815260206004820152601f60248201527f696e76616c696420617267756d656e74202d207a65726f20616464726573730060448201526064016103a9565b6105a6600182610961565b6040516001600160a01b038216907ff68e73cec97f2d70aa641fb26e87a4383686e2efacb648f2165aeb02ac562ec590600090a250565b6105e56108e4565b6001600160a01b03811661063b5760405162461bcd60e51b815260206004820152601f60248201527f696e76616c696420617267756d656e74202d207a65726f20616464726573730060448201526064016103a9565b6106466001826109dd565b6040516001600160a01b038216907fed9c8ad8d5a0a66898ea49d2956929c93ae2e8bd50281b2ed897c5d1a6737e0b90600090a250565b6003546000906001600160a01b0383811691161461031557506000919050565b6106a56108e4565b6001600160a01b03811660009081526002602052604090205460ff1661070d5760405162461bcd60e51b815260206004820181905260248201527f54686973204167656e74206973206e6f7420726567697374657265642079657460448201526064016103a9565b6001600160a01b038116600081815260026020908152604091829020805460ff1916905590519182527f6a659bb87bb23efbdc295f8eed8ae8c4379bfb77660ced2ef0f3d7d26b05c6a691016103fc565b6107666108e4565b6001600160a01b03811661079057604051631e4fbdf760e01b8152600060048201526024016103a9565b61079981610911565b50565b6107a46108e4565b6001600160a01b03811660009081526002602052604090205460ff161561080d5760405162461bcd60e51b815260206004820181905260248201527f54686973204167656e7420697320616c7265616479207265676973746572656460448201526064016103a9565b6001600160a01b038116600081815260026020908152604091829020805460ff1916600117905590519182527fd62c45e13ac30396aceb3ad37c89bd1ba9048032fe61679000e92eb93dbfd67d91016103fc565b60006001600160a01b0382166108c45760405162461bcd60e51b815260206004820152602260248201527f526f6c65733a206163636f756e7420697320746865207a65726f206164647265604482015261737360f01b60648201526084016103a9565b506001600160a01b03166000908152602091909152604090205460ff1690565b6000546001600160a01b0316331461053b5760405163118cdaa760e01b81523360048201526024016103a9565b600080546001600160a01b038381166001600160a01b0319831681178455604051919092169283917f8be0079c531659141344cd1fd0a4f28419497f9722a3daafe3b4186f6b6457e09190a35050565b61096b8282610861565b156109b85760405162461bcd60e51b815260206004820152601f60248201527f526f6c65733a206163636f756e7420616c72656164792068617320726f6c650060448201526064016103a9565b6001600160a01b0316600090815260209190915260409020805460ff19166001179055565b6109e78282610861565b610a3d5760405162461bcd60e51b815260206004820152602160248201527f526f6c65733a206163636f756e7420646f6573206e6f74206861766520726f6c6044820152606560f81b60648201526084016103a9565b6001600160a01b0316600090815260209190915260409020805460ff19169055565b80356001600160a01b0381168114610a7657600080fd5b919050565b600060208284031215610a8d57600080fd5b610a9682610a5f565b9392505050565b60008060408385031215610ab057600080fd5b610ab983610a5f565b946020939093013593505050565b600080600060608486031215610adc57600080fd5b610ae584610a5f565b9250610af360208501610a5f565b9150604084013590509250925092565b600060208284031215610b1557600080fd5b81518015158114610a9657600080fdfea2646970667358221220cef02e9bedfe06f5af99ae06856b6339e66a48fdfee080a0960f5553023d067064736f6c63430008180033","linkReferences":{}},"methodIdentifiers":{"addAgent(address)":"84e79842","addTokenAgent(address)":"ff3e6954","bindToken(address)":"3ff5aa02","canTransfer(address,address,uint256)":"e46638e6","created(address,uint256)":"5f8dead3","destroyed(address,uint256)":"8d2ea772","isAgent(address)":"1ffbb064","isTokenAgent(address)":"346531fa","isTokenBound(address)":"993e8b95","owner()":"8da5cb5b","removeAgent(address)":"97a6278e","removeTokenAgent(address)":"cdde2932","renounceOwnership()":"715018a6","tokenBound()":"93e62f07","transferOwnership(address)":"f2fde38b","transferred(address,address,uint256)":"8baf29b4","unbindToken(address)":"40db3b50"},"id":25}