{"abi":[{"type":"constructor","inputs":[{"name":"initialManagementKey","type":"address","internalType":"address"},{"name":"_isLibrary","type":"bool","internalType":"bool"}],"stateMutability":"nonpayable"},{"type":"function","name":"addClaim","inputs":[{"name":"_topic","type":"uint256","internalType":"uint256"},{"name":"_scheme","type":"uint256","internalType":"uint256"},{"name":"_issuer","type":"address","internalType":"address"},{"name":"_signature","type":"bytes","internalType":"bytes"},{"name":"_data","type":"bytes","internalType":"bytes"},{"name":"_uri","type":"string","internalType":"string"}],"outputs":[{"name":"claimRequestId","type":"bytes32","internalType":"bytes32"}],"stateMutability":"nonpayable"},{"type":"function","name":"addKey","inputs":[{"name":"_key","type":"bytes32","internalType":"bytes32"},{"name":"_purpose","type":"uint256","internalType":"uint256"},{"name":"_type","type":"uint256","internalType":"uint256"}],"outputs":[{"name":"success","type":"bool","internalType":"bool"}],"stateMutability":"nonpayable"},{"type":"function","name":"approve","inputs":[{"name":"_id","type":"uint256","internalType":"uint256"},{"name":"_approve","type":"bool","internalType":"bool"}],"outputs":[{"name":"success","type":"bool","internalType":"bool"}],"stateMutability":"nonpayable"},{"type":"function","name":"execute","inputs":[{"name":"_to","type":"address","internalType":"address"},{"name":"_value","type":"uint256","internalType":"uint256"},{"name":"_data","type":"bytes","internalType":"bytes"}],"outputs":[{"name":"executionId","type":"uint256","internalType":"uint256"}],"stateMutability":"payable"},{"type":"function","name":"getClaim","inputs":[{"name":"_claimId","type":"bytes32","internalType":"bytes32"}],"outputs":[{"name":"topic","type":"uint256","internalType":"uint256"},{"name":"scheme","type":"uint256","internalType":"uint256"},{"name":"issuer","type":"address","internalType":"address"},{"name":"signature","type":"bytes","internalType":"bytes"},{"name":"data","type":"bytes","internalType":"bytes"},{"name":"uri","type":"string","internalType":"string"}],"stateMutability":"view"},{"type":"function","name":"getClaimIdsByTopic","inputs":[{"name":"_topic","type":"uint256","internalType":"uint256"}],"outputs":[{"name":"claimIds","type":"bytes32[]","internalType":"bytes32[]"}],"stateMutability":"view"},{"type":"function","name":"getKey","inputs":[{"name":"_key","type":"bytes32","internalType":"bytes32"}],"outputs":[{"name":"purposes","type":"uint256[]","internalType":"uint256[]"},{"name":"keyType","type":"uint256","internalType":"uint256"},{"name":"key","type":"bytes32","internalType":"bytes32"}],"stateMutability":"view"},{"type":"function","name":"getKeyPurposes","inputs":[{"name":"_key","type":"bytes32","internalType":"bytes32"}],"outputs":[{"name":"_purposes","type":"uint256[]","internalType":"uint256[]"}],"stateMutability":"view"},{"type":"function","name":"getKeysByPurpose","inputs":[{"name":"_purpose","type":"uint256","internalType":"uint256"}],"outputs":[{"name":"keys","type":"bytes32[]","internalType":"bytes32[]"}],"stateMutability":"view"},{"type":"function","name":"getRecoveredAddress","inputs":[{"name":"sig","type":"bytes","internalType":"bytes"},{"name":"dataHash","type":"bytes32","internalType":"bytes32"}],"outputs":[{"name":"addr","type":"address","internalType":"address"}],"stateMutability":"pure"},{"type":"function","name":"initialize","inputs":[{"name":"initialManagementKey","type":"address","internalType":"address"}],"outputs":[],"stateMutability":"nonpayable"},{"type":"function","name":"isClaimValid","inputs":[{"name":"_identity","type":"address","internalType":"contract IIdentity"},{"name":"claimTopic","type":"uint256","internalType":"uint256"},{"name":"sig","type":"bytes","internalType":"bytes"},{"name":"data","type":"bytes","internalType":"bytes"}],"outputs":[{"name":"claimValid","type":"bool","internalType":"bool"}],"stateMutability":"view"},{"type":"function","name":"keyHasPurpose","inputs":[{"name":"_key","type":"bytes32","internalType":"bytes32"},{"name":"_purpose","type":"uint256","internalType":"uint256"}],"outputs":[{"name":"result","type":"bool","internalType":"bool"}],"stateMutability":"view"},{"type":"function","name":"removeClaim","inputs":[{"name":"_claimId","type":"bytes32","internalType":"bytes32"}],"outputs":[{"name":"success","type":"bool","internalType":"bool"}],"stateMutability":"nonpayable"},{"type":"function","name":"removeKey","inputs":[{"name":"_key","type":"bytes32","internalType":"bytes32"},{"name":"_purpose","type":"uint256","internalType":"uint256"}],"outputs":[{"name":"success","type":"bool","internalType":"bool"}],"stateMutability":"nonpayable"},{"type":"function","name":"version","inputs":[],"outputs":[{"name":"","type":"string","internalType":"string"}],"stateMutability":"pure"},{"type":"event","name":"Approved","inputs":[{"name":"executionId","type":"uint256","indexed":true,"internalType":"uint256"},{"name":"approved","type":"bool","indexed":false,"internalType":"bool"}],"anonymous":false},{"type":"event","name":"ClaimAdded","inputs":[{"name":"claimId","type":"bytes32","indexed":true,"internalType":"bytes32"},{"name":"topic","type":"uint256","indexed":true,"internalType":"uint256"},{"name":"scheme","type":"uint256","indexed":false,"internalType":"uint256"},{"name":"issuer","type":"address","indexed":true,"internalType":"address"},{"name":"signature","type":"bytes","indexed":false,"internalType":"bytes"},{"name":"data","type":"bytes","indexed":false,"internalType":"bytes"},{"name":"uri","type":"string","indexed":false,"internalType":"string"}],"anonymous":false},{"type":"event","name":"ClaimChanged","inputs":[{"name":"claimId","type":"bytes32","indexed":true,"internalType":"bytes32"},{"name":"topic","type":"uint256","indexed":true,"internalType":"uint256"},{"name":"scheme","type":"uint256","indexed":false,"internalType":"uint256"},{"name":"issuer","type":"address","indexed":true,"internalType":"address"},{"name":"signature","type":"bytes","indexed":false,"internalType":"bytes"},{"name":"data","type":"bytes","indexed":false,"internalType":"bytes"},{"name":"uri","type":"string","indexed":false,"internalType":"string"}],"anonymous":false},{"type":"event","name":"ClaimRemoved","inputs":[{"name":"claimId","type":"bytes32","indexed":true,"internalType":"bytes32"},{"name":"topic","type":"uint256","indexed":true,"internalType":"uint256"},{"name":"scheme","type":"uint256","indexed":false,"internalType":"uint256"},{"name":"issuer","type":"address","indexed":true,"internalType":"address"},{"name":"signature","type":"bytes","indexed":false,"internalType":"bytes"},{"name":"data","type":"bytes","indexed":false,"internalType":"bytes"},{"name":"uri","type":"string","indexed":false,"internalType":"string"}],"anonymous":false},{"type":"event","name":"Executed","inputs":[{"name":"executionId","type":"uint256","indexed":true,"internalType":"uint256"},{"name":"to","type":"address","indexed":true,"internalType":"address"},{"name":"value","type":"uint256","indexed":true,"internalType":"uint256"},{"name":"data","type":"bytes","indexed":false,"internalType":"bytes"}],"anonymous":false},{"type":"event","name":"ExecutionFailed","inputs":[{"name":"executionId","type":"uint256","indexed":true,"internalType":"uint256"},{"name":"to","type":"address","indexed":true,"internalType":"address"},{"name":"value","type":"uint256","indexed":true,"internalType":"uint256"},{"name":"data","type":"bytes","indexed":false,"internalType":"bytes"}],"anonymous":false},{"type":"event","name":"ExecutionRequested","inputs":[{"name":"executionId","type":"uint256","indexed":true,"internalType":"uint256"},{"name":"to","type":"address","indexed":true,"internalType":"address"},{"name":"value","type":"uint256","indexed":true,"internalType":"uint256"},{"name":"data","type":"bytes","indexed":false,"internalType":"bytes"}],"anonymous":false},{"type":"event","name":"KeyAdded","inputs":[{"name":"key","type":"bytes32","indexed":true,"internalType":"bytes32"},{"name":"purpose","type":"uint256","indexed":true,"internalType":"uint256"},{"name":"keyType","type":"uint256","indexed":true,"internalType":"uint256"}],"anonymous":false},{"type":"event","name":"KeyRemoved","inputs":[{"name":"key","type":"bytes32","indexed":true,"internalType":"bytes32"},{"name":"purpose","type":"uint256","indexed":true,"internalType":"uint256"},{"name":"keyType","type":"uint256","indexed":true,"internalType":"uint256"}],"anonymous":false}],"bytecode":{"object":"0x60806040526006805461ffff191690553480156200001c57600080fd5b5060405162002a3138038062002a318339810160408190526200003f916200029f565b6001600160a01b0382166200009b5760405162461bcd60e51b815260206004820152601f60248201527f696e76616c696420617267756d656e74202d207a65726f20616464726573730060448201526064015b60405180910390fd5b80620000b257620000ac82620000c8565b620000c0565b6006805460ff191660011790555b5050620002ed565b60065460ff161580620000da5750303b155b620001285760405162461bcd60e51b815260206004820152601e60248201527f496e697469616c206b65792077617320616c72656164792073657475702e0000604482015260640162000092565b6006805461ffff1916610101179055604080516001600160a01b03831660208201526000910160408051601f19818403018152828252805160209182012060008181526001808452848220600281018490558685019095528086529082905291829052935062000199929062000233565b506000818152600160208181526040808420830183905560029091527fe90b7bceb6e7df5418fb78d8ee546e97c83a08bbccc01a0644d599ccd2a7c2e0805480840182559084527f7fef4bf8f63cf9dd467136c679c02b5c17fcf6322d9562512bf5eb952cf7cc5301849055519091829184917f480000bb1edad8ca1470381cc334b1917fbd51c6531f3a623ea8e0ec7e38a6e991a45050565b82805482825590600052602060002090810192821562000276579160200282015b8281111562000276578251829060ff1690559160200191906001019062000254565b506200028492915062000288565b5090565b5b8082111562000284576000815560010162000289565b60008060408385031215620002b357600080fd5b82516001600160a01b0381168114620002cb57600080fd5b60208401519092508015158114620002e257600080fd5b809150509250929050565b61273480620002fd6000396000f3fe6080604052600436106100f35760003560e01c8063b1a34e0d1161008a578063c4d66de811610059578063c4d66de8146102da578063c9100bcb146102fc578063d202158d1461032e578063fb307b341461034e57600080fd5b8063b1a34e0d14610241578063b61d27f61461026f578063c0969a6e14610282578063c3b129e3146102a257600080fd5b806354fd4d50116100c657806354fd4d50146101a0578063747442d3146101d457806380e9e9e1146101f45780639010f7261461022157600080fd5b806312aaac70146100f85780631d381240146101305780634eee424a1461016057806353d413c514610180575b600080fd5b34801561010457600080fd5b50610118610113366004611d53565b61037b565b60405161012793929190611da8565b60405180910390f35b34801561013c57600080fd5b5061015061014b366004611dcd565b6103f4565b6040519015158152602001610127565b34801561016c57600080fd5b5061015061017b366004611d53565b61064d565b34801561018c57600080fd5b5061015061019b366004611df9565b61090c565b3480156101ac57600080fd5b506040805180820182526005815264322e322e3160d81b602082015290516101279190611e61565b3480156101e057600080fd5b506101506101ef366004611e89565b610cfc565b34801561020057600080fd5b5061021461020f366004611d53565b6110d9565b6040516101279190611eb9565b34801561022d57600080fd5b5061021461023c366004611d53565b61113b565b34801561024d57600080fd5b5061026161025c366004611fbe565b61119b565b604051908152602001610127565b61026161027d36600461207f565b611467565b34801561028e57600080fd5b5061015061029d3660046120d8565b611599565b3480156102ae57600080fd5b506102c26102bd366004612158565b61168a565b6040516001600160a01b039091168152602001610127565b3480156102e657600080fd5b506102fa6102f536600461219d565b61173b565b005b34801561030857600080fd5b5061031c610317366004611d53565b61179d565b604051610127969594939291906121ba565b34801561033a57600080fd5b50610150610349366004611df9565b61199e565b34801561035a57600080fd5b5061036e610369366004611d53565b611a95565b604051610127919061221a565b6000818152600160208181526040808420928301546002840154845483518186028101860190945280845260609695869590949185918301828280156103e057602002820191906000526020600020905b8154815260200190600101908083116103cc575b505050505092509250925092509193909250565b60065460009060ff61010090910416151560011461042d5760405162461bcd60e51b81526004016104249061222d565b60405180910390fd5b3330148061046357506040805133602082015261046391015b60405160208183030381529060405280519060200120600161199e565b61047f5760405162461bcd60e51b815260040161042490612280565b6000848152600160205260409020600201548490036105a8576000848152600160209081526040808320805482518185028101850190935280835291929091908301828280156104ee57602002820191906000526020600020905b8154815260200190600101908083116104da575b5050505050905060005b8151811015610581576000828281518110610515576105156122d0565b602002602001015190508581036105785760405162461bcd60e51b815260206004820152602160248201527f436f6e666c6963743a204b657920616c72656164792068617320707572706f736044820152606560f81b6064820152608401610424565b506001016104f8565b505060008481526001602081815260408320805492830181558352909120018390556105f4565b600084815260016020818152604080842060028101899055815180840190925287825293889052908290526105dd9291611c5b565b506000848152600160208190526040909120018290555b60008381526002602090815260408083208054600181018255908452918320909101869055518391859187917f480000bb1edad8ca1470381cc334b1917fbd51c6531f3a623ea8e0ec7e38a6e991a45060019392505050565b60065460009060ff61010090910416151560011461067d5760405162461bcd60e51b81526004016104249061222d565b333014806106b35750604080513360208201526106b391015b60405160208183030381529060405280519060200120600361199e565b6106cf5760405162461bcd60e51b8152600401610424906122e6565b600082815260046020526040812054908190036107425760405162461bcd60e51b815260206004820152602b60248201527f4e6f6e4578697374696e673a205468657265206973206e6f20636c61696d207760448201526a1a5d1a081d1a1a5cc8125160aa1b6064820152608401610424565b6000818152600560205260408120545b6000838152600560205260409020805486919084908110610775576107756122d0565b90600052602060002001541461079a578161078f8161234e565b925050808210610752575b60008381526005602052604090206107b3600183612367565b815481106107c3576107c36122d0565b90600052602060002001546005600085815260200190815260200160002083815481106107f2576107f26122d0565b9060005260206000200181905550600560008481526020019081526020016000208054806108225761082261237a565b6000828152602080822083016000199081018390559092019092558682526004908190526040918290206002810154600182015493516001600160a01b039091169387938a937f3cf57863a89432c61c4a27073c6ee39e8a764bff5a05aebfbcdcdc80b2e6130a936108a39392600383019290810191600590910190612447565b60405180910390a46000858152600460205260408120818155600181018290556002810180546001600160a01b0319169055906108e36003830182611ca6565b6108f1600483016000611ca6565b6108ff600583016000611ca6565b5060019695505050505050565b60065460009060ff61010090910416151560011461093c5760405162461bcd60e51b81526004016104249061222d565b333014806109595750604080513360208201526109599101610446565b6109755760405162461bcd60e51b815260040161042490612280565b60008381526001602052604090206002015483146109df5760405162461bcd60e51b815260206004820152602160248201527f4e6f6e4578697374696e673a204b65792069736e2774207265676973746572656044820152601960fa1b6064820152608401610424565b600083815260016020908152604080832080548251818502810185019093528083529192909190830182828015610a3557602002820191906000526020600020905b815481526020019060010190808311610a21575b5050505050905060005b83828281518110610a5257610a526122d0565b602002602001015114610ad45780610a698161234e565b91505081518103610acf5760405162461bcd60e51b815260206004820152602a60248201527f4e6f6e4578697374696e673a204b657920646f65736e27742068617665207375604482015269636820707572706f736560b01b6064820152608401610424565b610a3f565b8160018351610ae39190612367565b81518110610af357610af36122d0565b6020026020010151828281518110610b0d57610b0d6122d0565b602090810291909101810191909152600086815260018252604090208351610b3792850190611c5b565b506000858152600160205260409020805480610b5557610b5561237a565b6000828152602080822083016000199081018390559092019092558582526002905260408120545b6000868152600260205260409020805488919084908110610ba057610ba06122d0565b906000526020600020015414610bc55781610bba8161234e565b925050808210610b7d575b6000868152600260205260409020610bde600183612367565b81548110610bee57610bee6122d0565b9060005260206000200154600260008881526020019081526020016000208381548110610c1d57610c1d6122d0565b906000526020600020018190555060026000878152602001908152602001600020805480610c4d57610c4d61237a565b6001900381819060005260206000200160009055905560006001600089815260200190815260200160002060010154905060018551610c8c9190612367565b600003610cbd57600088815260016020526040812090610cac8282611ce0565b506000600182018190556002909101555b8087897f585a4aef50f8267a92b32412b331b20f7f8b96f2245b253b9cc50dcc621d339760405160405180910390a46001955050505050505b92915050565b60065460009060ff610100909104161515600114610d2c5760405162461bcd60e51b81526004016104249061222d565b6000548310610d8d5760405162461bcd60e51b815260206004820152602760248201527f43616e6e6f7420617070726f76652061206e6f6e2d6578697374696e6720657860448201526632b1baba34b7b760c91b6064820152608401610424565b60008381526003602081905260409091200154610100900460ff1615610df55760405162461bcd60e51b815260206004820152601860248201527f5265717565737420616c726561647920657865637574656400000000000000006044820152606401610424565b600083815260036020526040902054306001600160a01b0390911603610e865760408051336020820152610e299101610446565b610e815760405162461bcd60e51b815260206004820152602360248201527f53656e64657220646f6573206e6f742068617665206d616e6167656d656e74206044820152626b657960e81b6064820152608401610424565b610eff565b60408051336020820152610eb391015b60405160208183030381529060405280519060200120600261199e565b610eff5760405162461bcd60e51b815260206004820152601f60248201527f53656e64657220646f6573206e6f74206861766520616374696f6e206b6579006044820152606401610424565b827fb3932da477fe5d6c8ff2eafef050c0f3a1af18fc07121001482600f36f3715d883604051610f33911515815260200190565b60405180910390a28115156001036110bb57600083815260036020819052604091829020908101805460ff1916600190811790915581549082015492516001600160a01b039091169291610f8c91600290910190612486565b60006040518083038185875af1925050503d8060008114610fc9576040519150601f19603f3d011682016040523d82523d6000602084013e610fce565b606091505b5090915050801561105357600083815260036020819052604091829020908101805461ff00191661010017905560018101548154925190926001600160a01b03169186917f1f920dbda597d7bf95035464170fa58d0a4b57f13a1c315ace6793b9f63688b891611043916002909101906124fc565b60405180910390a4506001610cf6565b6000838152600360205260409081902060018101548154925190926001600160a01b03169186917fe10c49d9f7c71da23262367013434763cfdb2332267641728d25cd712c5c6a68916110ab916002909101906124fc565b60405180910390a4506000610cf6565b50506000908152600360208190526040822001805460ff1916905590565b60008181526005602090815260409182902080548351818402810184019094528084526060939283018282801561112f57602002820191906000526020600020905b81548152602001906001019080831161111b575b50505050509050919050565b60008181526002602090815260409182902080548351818402810184019094528084526060939283018282801561112f576020028201919060005260206000209081548152602001906001019080831161111b5750505050509050919050565b60065460009060ff6101009091041615156001146111cb5760405162461bcd60e51b81526004016104249061222d565b333014806111e85750604080513360208201526111e89101610696565b6112045760405162461bcd60e51b8152600401610424906122e6565b6001600160a01b03851630146112c35760405163604b4d3760e11b81526001600160a01b0386169063c0969a6e906112469030908b908990899060040161250f565b602060405180830381865afa158015611263573d6000803e3d6000fd5b505050506040513d601f19601f820116820180604052508101906112879190612548565b6112c35760405162461bcd60e51b815260206004820152600d60248201526c696e76616c696420636c61696d60981b6044820152606401610424565b604080516001600160a01b038716602082015290810188905260009060600160408051601f1981840301815291815281516020928301206000818152600490935291208981556001810189905590915060030161132086826125b6565b5060008181526004602081905260409091200161133d85826125b6565b50600081815260046020526040902060050161135984826125b6565b506000818152600460205260409020600201546001600160a01b0387811691161461141257600088815260056020908152604080832080546001810182559084528284200184905583835260049091529081902060020180546001600160a01b0319166001600160a01b0389169081179091559051899083907f46149b18aa084502c3f12bc75e19eda8bda8d102b82cce8474677a6d0d5f43c590611405908c908b908b908b90612676565b60405180910390a461145c565b856001600160a01b031688827f3bab293fc00db832d7619a9299914251b8747c036867ec056cbd506f60135b138a8989896040516114539493929190612676565b60405180910390a45b979650505050505050565b60065460009060ff6101009091041615156001146114975760405162461bcd60e51b81526004016104249061222d565b600080548082526003602052604090912080546001600160a01b0319166001600160a01b038716178155600181018590556002016114d584826125b6565b506000805490806114e58361234e565b919050555083856001600160a01b0316827f8afcfabcb00e47a53a8fc3e9f23ff47ee1926194bb1350dd007c50b412a6cee8866040516115259190611e61565b60405180910390a4604080513360208201526115419101610446565b1561155757611551816001610cfc565b50611591565b6001600160a01b038516301480159061157f57506040805133602082015261157f9101610e96565b156115915761158f816001610cfc565b505b949350505050565b6000808585846040516020016115b1939291906126b5565b60405160208183030381529060405280519060200120905060008160405160200161160891907f19457468657265756d205369676e6564204d6573736167653a0a3332000000008152601c810191909152603c0190565b604051602081830303815290604052805190602001209050600061162c868361168a565b604080516001600160a01b03831660208201529192506000910160405160208183030381529060405280519060200120905061166981600361199e565b1561167b576001945050505050611591565b50600098975050505050505050565b60008060008085516041146116a55760009350505050610cf6565b50505060208301516040840151606085015160001a601b8110156116d1576116ce601b826126e5565b90505b6040805160008082526020820180845288905260ff841692820192909252606081018590526080810184905260019060a0016020604051602081039080840390855afa158015611725573d6000803e3d6000fd5b5050604051601f19015198975050505050505050565b6001600160a01b0381166117915760405162461bcd60e51b815260206004820152601f60248201527f696e76616c696420617267756d656e74202d207a65726f2061646472657373006044820152606401610424565b61179a81611af5565b50565b600081815260046020819052604082208054600182015460028301546003840180548796879660609687968796919590946001600160a01b039092169390929081019160059091019083906117f190612390565b80601f016020809104026020016040519081016040528092919081815260200182805461181d90612390565b801561186a5780601f1061183f5761010080835404028352916020019161186a565b820191906000526020600020905b81548152906001019060200180831161184d57829003601f168201915b5050505050925081805461187d90612390565b80601f01602080910402602001604051908101604052809291908181526020018280546118a990612390565b80156118f65780601f106118cb576101008083540402835291602001916118f6565b820191906000526020600020905b8154815290600101906020018083116118d957829003601f168201915b5050505050915080805461190990612390565b80601f016020809104026020016040519081016040528092919081815260200182805461193590612390565b80156119825780601f1061195757610100808354040283529160200191611982565b820191906000526020600020905b81548152906001019060200180831161196557829003601f168201915b5050505050905095509550955095509550955091939550919395565b600082815260016020908152604080832081518154608094810282018501909352606081018381528594919384928491908401828280156119fe57602002820191906000526020600020905b8154815260200190600101908083116119ea575b505050918352505060018201546020820152600290910154604091820152810151909150600003611a33576000915050610cf6565b60005b815151811015611a8a57600082600001518281518110611a5857611a586122d0565b602002602001015190508060011480611a7057508481145b15611a815760019350505050610cf6565b50600101611a36565b506000949350505050565b60008181526001602090815260409182902080548351818402810184019094528084526060939283018282801561112f576020028201919060005260206000209081548152602001906001019080831161111b5750505050509050919050565b60065460ff161580611b065750303b155b611b525760405162461bcd60e51b815260206004820152601e60248201527f496e697469616c206b65792077617320616c72656164792073657475702e00006044820152606401610424565b6006805461ffff1916610101179055604080516001600160a01b03831660208201526000910160408051601f198184030181528282528051602091820120600081815260018084528482206002810184905586850190955280865290829052918290529350611bc19290611cfe565b506000818152600160208181526040808420830183905560029091527fe90b7bceb6e7df5418fb78d8ee546e97c83a08bbccc01a0644d599ccd2a7c2e0805480840182559084527f7fef4bf8f63cf9dd467136c679c02b5c17fcf6322d9562512bf5eb952cf7cc5301849055519091829184917f480000bb1edad8ca1470381cc334b1917fbd51c6531f3a623ea8e0ec7e38a6e991a45050565b828054828255906000526020600020908101928215611c96579160200282015b82811115611c96578251825591602001919060010190611c7b565b50611ca2929150611d3e565b5090565b508054611cb290612390565b6000825580601f10611cc2575050565b601f01602090049060005260206000209081019061179a9190611d3e565b508054600082559060005260206000209081019061179a9190611d3e565b828054828255906000526020600020908101928215611c96579160200282015b82811115611c96578251829060ff16905591602001919060010190611d1e565b5b80821115611ca25760008155600101611d3f565b600060208284031215611d6557600080fd5b5035919050565b60008151808452602080850194506020840160005b83811015611d9d57815187529582019590820190600101611d81565b509495945050505050565b606081526000611dbb6060830186611d6c565b60208301949094525060400152919050565b600080600060608486031215611de257600080fd5b505081359360208301359350604090920135919050565b60008060408385031215611e0c57600080fd5b50508035926020909101359150565b6000815180845260005b81811015611e4157602081850181015186830182015201611e25565b506000602082860101526020601f19601f83011685010191505092915050565b602081526000611e746020830184611e1b565b9392505050565b801515811461179a57600080fd5b60008060408385031215611e9c57600080fd5b823591506020830135611eae81611e7b565b809150509250929050565b6020808252825182820181905260009190848201906040850190845b81811015611ef157835183529284019291840191600101611ed5565b50909695505050505050565b6001600160a01b038116811461179a57600080fd5b634e487b7160e01b600052604160045260246000fd5b600067ffffffffffffffff80841115611f4357611f43611f12565b604051601f8501601f19908116603f01168101908282118183101715611f6b57611f6b611f12565b81604052809350858152868686011115611f8457600080fd5b858560208301376000602087830101525050509392505050565b600082601f830112611faf57600080fd5b611e7483833560208501611f28565b60008060008060008060c08789031215611fd757600080fd5b86359550602087013594506040870135611ff081611efd565b9350606087013567ffffffffffffffff8082111561200d57600080fd5b6120198a838b01611f9e565b9450608089013591508082111561202f57600080fd5b61203b8a838b01611f9e565b935060a089013591508082111561205157600080fd5b508701601f8101891361206357600080fd5b61207289823560208401611f28565b9150509295509295509295565b60008060006060848603121561209457600080fd5b833561209f81611efd565b925060208401359150604084013567ffffffffffffffff8111156120c257600080fd5b6120ce86828701611f9e565b9150509250925092565b600080600080608085870312156120ee57600080fd5b84356120f981611efd565b935060208501359250604085013567ffffffffffffffff8082111561211d57600080fd5b61212988838901611f9e565b9350606087013591508082111561213f57600080fd5b5061214c87828801611f9e565b91505092959194509250565b6000806040838503121561216b57600080fd5b823567ffffffffffffffff81111561218257600080fd5b61218e85828601611f9e565b95602094909401359450505050565b6000602082840312156121af57600080fd5b8135611e7481611efd565b86815285602082015260018060a01b038516604082015260c0606082015260006121e760c0830186611e1b565b82810360808401526121f98186611e1b565b905082810360a084015261220d8185611e1b565b9998505050505050505050565b602081526000611e746020830184611d6c565b60208082526033908201527f496e746572616374696e67207769746820746865206c69627261727920636f6e6040820152723a3930b1ba1034b9903337b93134b23232b71760691b606082015260800190565b60208082526030908201527f5065726d697373696f6e733a2053656e64657220646f6573206e6f742068617660408201526f65206d616e6167656d656e74206b657960801b606082015260800190565b634e487b7160e01b600052603260045260246000fd5b60208082526032908201527f5065726d697373696f6e733a2053656e64657220646f6573206e6f74206861766040820152716520636c61696d207369676e6572206b657960701b606082015260800190565b634e487b7160e01b600052601160045260246000fd5b60006001820161236057612360612338565b5060010190565b81810381811115610cf657610cf6612338565b634e487b7160e01b600052603160045260246000fd5b600181811c908216806123a457607f821691505b6020821081036123c457634e487b7160e01b600052602260045260246000fd5b50919050565b600081546123d781612390565b8085526020600183811680156123f4576001811461240e5761243c565b60ff1985168884015283151560051b88018301955061243c565b866000528260002060005b858110156124345781548a8201860152908301908401612419565b890184019650505b505050505092915050565b84815260806020820152600061246060808301866123ca565b828103604084015261247281866123ca565b9050828103606084015261145c81856123ca565b600080835461249481612390565b600182811680156124ac57600181146124c1576124f0565b60ff19841687528215158302870194506124f0565b8760005260208060002060005b858110156124e75781548a8201529084019082016124ce565b50505082870194505b50929695505050505050565b602081526000611e7460208301846123ca565b60018060a01b03851681528360208201526080604082015260006125366080830185611e1b565b828103606084015261145c8185611e1b565b60006020828403121561255a57600080fd5b8151611e7481611e7b565b601f8211156125b1576000816000526020600020601f850160051c8101602086101561258e5750805b601f850160051c820191505b818110156125ad5782815560010161259a565b5050505b505050565b815167ffffffffffffffff8111156125d0576125d0611f12565b6125e4816125de8454612390565b84612565565b602080601f83116001811461261957600084156126015750858301515b600019600386901b1c1916600185901b1785556125ad565b600085815260208120601f198616915b8281101561264857888601518255948401946001909101908401612629565b50858210156126665787850151600019600388901b60f8161c191681555b5050505050600190811b01905550565b84815260806020820152600061268f6080830186611e1b565b82810360408401526126a18186611e1b565b9050828103606084015261145c8185611e1b565b60018060a01b03841681528260208201526060604082015260006126dc6060830184611e1b565b95945050505050565b60ff8181168382160190811115610cf657610cf661233856fea2646970667358221220f2b09153b8455d99457c5e91bfd959be61806d79bddcd0c105e790a7c58d0e3a64736f6c63430008180033","linkReferences":{}},"methodIdentifiers":{"addClaim(uint256,uint256,address,bytes,bytes,string)":"b1a34e0d","addKey(bytes32,uint256,uint256)":"1d381240","approve(uint256,bool)":"747442d3","execute(address,uint256,bytes)":"b61d27f6","getClaim(bytes32)":"c9100bcb","getClaimIdsByTopic(uint256)":"80e9e9e1","getKey(bytes32)":"12aaac70","getKeyPurposes(bytes32)":"fb307b34","getKeysByPurpose(uint256)":"9010f726","getRecoveredAddress(bytes,bytes32)":"c3b129e3","initialize(address)":"c4d66de8","isClaimValid(address,uint256,bytes,bytes)":"c0969a6e","keyHasPurpose(bytes32,uint256)":"d202158d","removeClaim(bytes32)":"4eee424a","removeKey(bytes32,uint256)":"53d413c5","version()":"54fd4d50"},"id":113}