{"abi":[{"type":"constructor","inputs":[],"stateMutability":"nonpayable"},{"type":"function","name":"addAgent","inputs":[{"name":"_agent","type":"address","internalType":"address"}],"outputs":[],"stateMutability":"nonpayable"},{"type":"function","name":"isAgent","inputs":[{"name":"_agent","type":"address","internalType":"address"}],"outputs":[{"name":"","type":"bool","internalType":"bool"}],"stateMutability":"view"},{"type":"function","name":"owner","inputs":[],"outputs":[{"name":"","type":"address","internalType":"address"}],"stateMutability":"view"},{"type":"function","name":"removeAgent","inputs":[{"name":"_agent","type":"address","internalType":"address"}],"outputs":[],"stateMutability":"nonpayable"},{"type":"function","name":"renounceOwnership","inputs":[],"outputs":[],"stateMutability":"nonpayable"},{"type":"function","name":"transferOwnership","inputs":[{"name":"newOwner","type":"address","internalType":"address"}],"outputs":[],"stateMutability":"nonpayable"},{"type":"event","name":"AgentAdded","inputs":[{"name":"_agent","type":"address","indexed":true,"internalType":"address"}],"anonymous":false},{"type":"event","name":"AgentRemoved","inputs":[{"name":"_agent","type":"address","indexed":true,"internalType":"address"}],"anonymous":false},{"type":"event","name":"OwnershipTransferred","inputs":[{"name":"previousOwner","type":"address","indexed":true,"internalType":"address"},{"name":"newOwner","type":"address","indexed":true,"internalType":"address"}],"anonymous":false},{"type":"error","name":"OwnableInvalidOwner","inputs":[{"name":"owner","type":"address","internalType":"address"}]},{"type":"error","name":"OwnableUnauthorizedAccount","inputs":[{"name":"account","type":"address","internalType":"address"}]}],"bytecode":{"object":"0x608060405234801561001057600080fd5b50338061003757604051631e4fbdf760e01b81526000600482015260240160405180910390fd5b61004081610046565b50610096565b600080546001600160a01b038381166001600160a01b0319831681178455604051919092169283917f8be0079c531659141344cd1fd0a4f28419497f9722a3daafe3b4186f6b6457e09190a35050565b6104fb806100a56000396000f3fe608060405234801561001057600080fd5b50600436106100625760003560e01c80631ffbb06414610067578063715018a61461008f57806384e79842146100995780638da5cb5b146100ac57806397a6278e146100c7578063f2fde38b146100da575b600080fd5b61007a610075366004610495565b6100ed565b60405190151581526020015b60405180910390f35b610097610100565b005b6100976100a7366004610495565b610114565b6000546040516001600160a01b039091168152602001610086565b6100976100d5366004610495565b6101b9565b6100976100e8366004610495565b610259565b60006100fa600183610297565b92915050565b61010861031a565b6101126000610347565b565b61011c61031a565b6001600160a01b0381166101775760405162461bcd60e51b815260206004820152601f60248201527f696e76616c696420617267756d656e74202d207a65726f20616464726573730060448201526064015b60405180910390fd5b610182600182610397565b6040516001600160a01b038216907ff68e73cec97f2d70aa641fb26e87a4383686e2efacb648f2165aeb02ac562ec590600090a250565b6101c161031a565b6001600160a01b0381166102175760405162461bcd60e51b815260206004820152601f60248201527f696e76616c696420617267756d656e74202d207a65726f206164647265737300604482015260640161016e565b610222600182610413565b6040516001600160a01b038216907fed9c8ad8d5a0a66898ea49d2956929c93ae2e8bd50281b2ed897c5d1a6737e0b90600090a250565b61026161031a565b6001600160a01b03811661028b57604051631e4fbdf760e01b81526000600482015260240161016e565b61029481610347565b50565b60006001600160a01b0382166102fa5760405162461bcd60e51b815260206004820152602260248201527f526f6c65733a206163636f756e7420697320746865207a65726f206164647265604482015261737360f01b606482015260840161016e565b506001600160a01b03166000908152602091909152604090205460ff1690565b6000546001600160a01b031633146101125760405163118cdaa760e01b815233600482015260240161016e565b600080546001600160a01b038381166001600160a01b0319831681178455604051919092169283917f8be0079c531659141344cd1fd0a4f28419497f9722a3daafe3b4186f6b6457e09190a35050565b6103a18282610297565b156103ee5760405162461bcd60e51b815260206004820152601f60248201527f526f6c65733a206163636f756e7420616c72656164792068617320726f6c6500604482015260640161016e565b6001600160a01b0316600090815260209190915260409020805460ff19166001179055565b61041d8282610297565b6104735760405162461bcd60e51b815260206004820152602160248201527f526f6c65733a206163636f756e7420646f6573206e6f74206861766520726f6c6044820152606560f81b606482015260840161016e565b6001600160a01b0316600090815260209190915260409020805460ff19169055565b6000602082840312156104a757600080fd5b81356001600160a01b03811681146104be57600080fd5b939250505056fea264697066735822122081f59c8f689786ef1aac904da4883d210da7bf38eec07f267703fae04629db4864736f6c63430008180033","linkReferences":{}},"methodIdentifiers":{"addAgent(address)":"84e79842","isAgent(address)":"1ffbb064","owner()":"8da5cb5b","removeAgent(address)":"97a6278e","renounceOwnership()":"715018a6","transferOwnership(address)":"f2fde38b"},"id":87}