{"abi":[{"type":"constructor","inputs":[{"name":"factory","type":"address","internalType":"address"},{"name":"publicDeploymentStatus","type":"bool","internalType":"bool"}],"stateMutability":"nonpayable"},{"type":"function","name":"addAgent","inputs":[{"name":"_agent","type":"address","internalType":"address"}],"outputs":[],"stateMutability":"nonpayable"},{"type":"function","name":"addDeployer","inputs":[{"name":"deployer","type":"address","internalType":"address"}],"outputs":[],"stateMutability":"nonpayable"},{"type":"function","name":"applyFeeDiscount","inputs":[{"name":"deployer","type":"address","internalType":"address"},{"name":"discount","type":"uint16","internalType":"uint16"}],"outputs":[],"stateMutability":"nonpayable"},{"type":"function","name":"batchAddDeployer","inputs":[{"name":"deployers","type":"address[]","internalType":"address[]"}],"outputs":[],"stateMutability":"nonpayable"},{"type":"function","name":"batchApplyFeeDiscount","inputs":[{"name":"deployers","type":"address[]","internalType":"address[]"},{"name":"discounts","type":"uint16[]","internalType":"uint16[]"}],"outputs":[],"stateMutability":"nonpayable"},{"type":"function","name":"batchDeployTREXSuite","inputs":[{"name":"_tokenDetails","type":"tuple[]","internalType":"struct ITREXFactory.TokenDetails[]","components":[{"name":"owner","type":"address","internalType":"address"},{"name":"name","type":"string","internalType":"string"},{"name":"symbol","type":"string","internalType":"string"},{"name":"decimals","type":"uint8","internalType":"uint8"},{"name":"irs","type":"address","internalType":"address"},{"name":"ONCHAINID","type":"address","internalType":"address"},{"name":"irAgents","type":"address[]","internalType":"address[]"},{"name":"tokenAgents","type":"address[]","internalType":"address[]"},{"name":"complianceModules","type":"address[]","internalType":"address[]"},{"name":"complianceSettings","type":"bytes[]","internalType":"bytes[]"}]},{"name":"_claimDetails","type":"tuple[]","internalType":"struct ITREXFactory.ClaimDetails[]","components":[{"name":"claimTopics","type":"uint256[]","internalType":"uint256[]"},{"name":"issuers","type":"address[]","internalType":"address[]"},{"name":"issuerClaims","type":"uint256[][]","internalType":"uint256[][]"}]}],"outputs":[],"stateMutability":"nonpayable"},{"type":"function","name":"batchRemoveDeployer","inputs":[{"name":"deployers","type":"address[]","internalType":"address[]"}],"outputs":[],"stateMutability":"nonpayable"},{"type":"function","name":"calculateFee","inputs":[{"name":"deployer","type":"address","internalType":"address"}],"outputs":[{"name":"","type":"uint256","internalType":"uint256"}],"stateMutability":"view"},{"type":"function","name":"deployTREXSuite","inputs":[{"name":"_tokenDetails","type":"tuple","internalType":"struct ITREXFactory.TokenDetails","components":[{"name":"owner","type":"address","internalType":"address"},{"name":"name","type":"string","internalType":"string"},{"name":"symbol","type":"string","internalType":"string"},{"name":"decimals","type":"uint8","internalType":"uint8"},{"name":"irs","type":"address","internalType":"address"},{"name":"ONCHAINID","type":"address","internalType":"address"},{"name":"irAgents","type":"address[]","internalType":"address[]"},{"name":"tokenAgents","type":"address[]","internalType":"address[]"},{"name":"complianceModules","type":"address[]","internalType":"address[]"},{"name":"complianceSettings","type":"bytes[]","internalType":"bytes[]"}]},{"name":"_claimDetails","type":"tuple","internalType":"struct ITREXFactory.ClaimDetails","components":[{"name":"claimTopics","type":"uint256[]","internalType":"uint256[]"},{"name":"issuers","type":"address[]","internalType":"address[]"},{"name":"issuerClaims","type":"uint256[][]","internalType":"uint256[][]"}]}],"outputs":[],"stateMutability":"nonpayable"},{"type":"function","name":"enableDeploymentFee","inputs":[{"name":"_isEnabled","type":"bool","internalType":"bool"}],"outputs":[],"stateMutability":"nonpayable"},{"type":"function","name":"getDeploymentFee","inputs":[],"outputs":[{"name":"","type":"tuple","internalType":"struct ITREXGateway.Fee","components":[{"name":"fee","type":"uint256","internalType":"uint256"},{"name":"feeToken","type":"address","internalType":"address"},{"name":"feeCollector","type":"address","internalType":"address"}]}],"stateMutability":"view"},{"type":"function","name":"getFactory","inputs":[],"outputs":[{"name":"","type":"address","internalType":"address"}],"stateMutability":"view"},{"type":"function","name":"getPublicDeploymentStatus","inputs":[],"outputs":[{"name":"","type":"bool","internalType":"bool"}],"stateMutability":"view"},{"type":"function","name":"isAgent","inputs":[{"name":"_agent","type":"address","internalType":"address"}],"outputs":[{"name":"","type":"bool","internalType":"bool"}],"stateMutability":"view"},{"type":"function","name":"isDeployer","inputs":[{"name":"deployer","type":"address","internalType":"address"}],"outputs":[{"name":"","type":"bool","internalType":"bool"}],"stateMutability":"view"},{"type":"function","name":"isDeploymentFeeEnabled","inputs":[],"outputs":[{"name":"","type":"bool","internalType":"bool"}],"stateMutability":"view"},{"type":"function","name":"owner","inputs":[],"outputs":[{"name":"","type":"address","internalType":"address"}],"stateMutability":"view"},{"type":"function","name":"removeAgent","inputs":[{"name":"_agent","type":"address","internalType":"address"}],"outputs":[],"stateMutability":"nonpayable"},{"type":"function","name":"removeDeployer","inputs":[{"name":"deployer","type":"address","internalType":"address"}],"outputs":[],"stateMutability":"nonpayable"},{"type":"function","name":"renounceOwnership","inputs":[],"outputs":[],"stateMutability":"nonpayable"},{"type":"function","name":"setDeploymentFee","inputs":[{"name":"_fee","type":"uint256","internalType":"uint256"},{"name":"_feeToken","type":"address","internalType":"address"},{"name":"_feeCollector","type":"address","internalType":"address"}],"outputs":[],"stateMutability":"nonpayable"},{"type":"function","name":"setFactory","inputs":[{"name":"factory","type":"address","internalType":"address"}],"outputs":[],"stateMutability":"nonpayable"},{"type":"function","name":"setPublicDeploymentStatus","inputs":[{"name":"_isEnabled","type":"bool","internalType":"bool"}],"outputs":[],"stateMutability":"nonpayable"},{"type":"function","name":"transferFactoryOwnership","inputs":[{"name":"_newOwner","type":"address","internalType":"address"}],"outputs":[],"stateMutability":"nonpayable"},{"type":"function","name":"transferOwnership","inputs":[{"name":"newOwner","type":"address","internalType":"address"}],"outputs":[],"stateMutability":"nonpayable"},{"type":"event","name":"AgentAdded","inputs":[{"name":"_agent","type":"address","indexed":true,"internalType":"address"}],"anonymous":false},{"type":"event","name":"AgentRemoved","inputs":[{"name":"_agent","type":"address","indexed":true,"internalType":"address"}],"anonymous":false},{"type":"event","name":"DeployerAdded","inputs":[{"name":"deployer","type":"address","indexed":true,"internalType":"address"}],"anonymous":false},{"type":"event","name":"DeployerRemoved","inputs":[{"name":"deployer","type":"address","indexed":true,"internalType":"address"}],"anonymous":false},{"type":"event","name":"DeploymentFeeEnabled","inputs":[{"name":"isEnabled","type":"bool","indexed":true,"internalType":"bool"}],"anonymous":false},{"type":"event","name":"DeploymentFeeSet","inputs":[{"name":"fee","type":"uint256","indexed":true,"internalType":"uint256"},{"name":"feeToken","type":"address","indexed":true,"internalType":"address"},{"name":"feeCollector","type":"address","indexed":true,"internalType":"address"}],"anonymous":false},{"type":"event","name":"FactorySet","inputs":[{"name":"factory","type":"address","indexed":true,"internalType":"address"}],"anonymous":false},{"type":"event","name":"FeeDiscountApplied","inputs":[{"name":"deployer","type":"address","indexed":true,"internalType":"address"},{"name":"discount","type":"uint16","indexed":false,"internalType":"uint16"}],"anonymous":false},{"type":"event","name":"GatewaySuiteDeploymentProcessed","inputs":[{"name":"requester","type":"address","indexed":true,"internalType":"address"},{"name":"intendedOwner","type":"address","indexed":false,"internalType":"address"},{"name":"feeApplied","type":"uint256","indexed":false,"internalType":"uint256"}],"anonymous":false},{"type":"event","name":"OwnershipTransferred","inputs":[{"name":"previousOwner","type":"address","indexed":true,"internalType":"address"},{"name":"newOwner","type":"address","indexed":true,"internalType":"address"}],"anonymous":false},{"type":"event","name":"PublicDeploymentStatusSet","inputs":[{"name":"publicDeploymentStatus","type":"bool","indexed":true,"internalType":"bool"}],"anonymous":false},{"type":"error","name":"BatchMaxLengthExceeded","inputs":[{"name":"lengthLimit","type":"uint16","internalType":"uint16"}]},{"type":"error","name":"DeployerAlreadyExists","inputs":[{"name":"deployer","type":"address","internalType":"address"}]},{"type":"error","name":"DeployerDoesNotExist","inputs":[{"name":"deployer","type":"address","internalType":"address"}]},{"type":"error","name":"DeploymentFeesAlreadyDisabled","inputs":[]},{"type":"error","name":"DeploymentFeesAlreadyEnabled","inputs":[]},{"type":"error","name":"DiscountOutOfRange","inputs":[]},{"type":"error","name":"OnlyAdminCall","inputs":[]},{"type":"error","name":"OwnableInvalidOwner","inputs":[{"name":"owner","type":"address","internalType":"address"}]},{"type":"error","name":"OwnableUnauthorizedAccount","inputs":[{"name":"account","type":"address","internalType":"address"}]},{"type":"error","name":"PublicCannotDeployOnBehalf","inputs":[]},{"type":"error","name":"PublicDeploymentAlreadyDisabled","inputs":[]},{"type":"error","name":"PublicDeploymentAlreadyEnabled","inputs":[]},{"type":"error","name":"PublicDeploymentsNotAllowed","inputs":[]},{"type":"error","name":"StringsInsufficientHexLength","inputs":[{"name":"value","type":"uint256","internalType":"uint256"},{"name":"length","type":"uint256","internalType":"uint256"}]},{"type":"error","name":"ZeroAddress","inputs":[]}],"bytecode":{"object":"0x60806040523480156200001157600080fd5b50604051620024d0380380620024d083398101604081905262000034916200013e565b33806200005b57604051631e4fbdf760e01b81526000600482015260240160405180910390fd5b6200006681620000ee565b50600280546001600160a01b0384166001600160a81b03199091168117600160a01b84151502179091556040517f1edf3afd4ac789736e00d216cd88be164ddcef26a6eedcc30cdb0cb62f3741b190600090a2604051811515907ff8be33baa430c4b62d2c9d79ab319d10cc41755a1fb65f85e64ca0632c29d0a490600090a250506200018c565b600080546001600160a01b038381166001600160a01b0319831681178455604051919092169283917f8be0079c531659141344cd1fd0a4f28419497f9722a3daafe3b4186f6b6457e09190a35050565b600080604083850312156200015257600080fd5b82516001600160a01b03811681146200016a57600080fd5b602084015190925080151581146200018157600080fd5b809150509250929050565b612334806200019c6000396000f3fe608060405234801561001057600080fd5b50600436106101725760003560e01c806384e79842116100de578063a264f2bd11610097578063e65811ff11610071578063e65811ff14610398578063eca465c4146103ab578063f2fde38b146103be578063f315df86146103d157600080fd5b8063a264f2bd14610360578063bfc2f10b14610373578063c8eebfcc1461038557600080fd5b806384e79842146102de578063880f4039146102f157806388cc58e4146103045780638da5cb5b1461032957806397a6278e1461033a5780639c5c5ce71461034d57600080fd5b806350c358a41161013057806350c358a4146102775780635bb478081461028a5780635d46c2831461029d578063715018a6146102b0578063730b86a9146102b857806375e14cff146102cb57600080fd5b806265939e146101775780631ffbb0641461018c5780632782035e146101b4578063465f5eb8146101c757806346c549cc146101e8578063477068511461026c575b600080fd5b61018a6101853660046116dc565b6103e4565b005b61019f61019a366004611739565b610589565b60405190151581526020015b60405180910390f35b61018a6101c236600461175b565b61059c565b6101da6101d5366004611739565b610776565b6040519081526020016101ab565b6102396040805160608101825260008082526020820181905291810191909152506040805160608101825260035481526004546001600160a01b039081166020830152600554169181019190915290565b60408051825181526020808401516001600160a01b039081169183019190915292820151909216908201526060016101ab565b60065460ff1661019f565b61019f610285366004611739565b6107bd565b61018a610298366004611739565b6107db565b61018a6102ab3660046117c6565b610854565b61018a6108fd565b61018a6102c6366004611d72565b610911565b61018a6102d9366004611e57565b610987565b61018a6102ec366004611739565b610a4f565b61018a6102ff366004611739565b610aef565b6002546001600160a01b03165b6040516001600160a01b0390911681526020016101ab565b6000546001600160a01b0316610311565b61018a610348366004611739565b610bac565b61018a61035b366004611739565b610c4c565b61018a61036e366004611e98565b610caf565b600254600160a01b900460ff1661019f565b61018a610393366004611eb5565b610d60565b61018a6103a63660046116dc565b610fab565b61018a6103b9366004611e98565b61113b565b61018a6103cc366004611739565b61120c565b61018a6103df366004611739565b61124a565b6103ed33610589565b15801561040557506000546001600160a01b03163314155b1561042357604051631859551f60e31b815260040160405180910390fd5b6101f481111561044f57604051632789f90560e11b81526101f460048201526024015b60405180910390fd5b60005b818110156105845761048483838381811061046f5761046f611f0e565b90506020020160208101906102859190611739565b6104d45782828281811061049a5761049a611f0e565b90506020020160208101906104af9190611739565b604051634e02340f60e01b81526001600160a01b039091166004820152602401610446565b600760008484848181106104ea576104ea611f0e565b90506020020160208101906104ff9190611739565b6001600160a01b031681526020810191909152604001600020805460ff1916905582828281811061053257610532611f0e565b90506020020160208101906105479190611739565b6001600160a01b03167ffdb22628e87f888d060acc53d048a6a8400a5024f81f9dcb0606e723f238864a60405160405180910390a2600101610452565b505050565b6000610596600183611303565b92915050565b6105a533610589565b1580156105bd57506000546001600160a01b03163314155b156105db57604051631859551f60e31b815260040160405180910390fd5b6101f483111561060257604051632789f90560e11b81526101f46004820152602401610446565b60005b8381101561076f5761271083838381811061062257610622611f0e565b90506020020160208101906106379190611f24565b61ffff16111561065a5760405163eb2b61a560e01b815260040160405180910390fd5b82828281811061066c5761066c611f0e565b90506020020160208101906106819190611f24565b6008600087878581811061069757610697611f0e565b90506020020160208101906106ac9190611739565b6001600160a01b031681526020810191909152604001600020805461ffff191661ffff929092169190911790558484828181106106eb576106eb611f0e565b90506020020160208101906107009190611739565b6001600160a01b03167fd254de1c4bdaafc52898e46f43ed993ee35724d55a0df75ebcb55f9f6c470dab84848481811061073c5761073c611f0e565b90506020020160208101906107519190611f24565b60405161ffff909116815260200160405180910390a2600101610605565b5050505050565b6003546001600160a01b0382166000908152600860205260408120549091612710916107a6919061ffff16611f55565b6107b09190611f6c565b6003546105969190611f8e565b6001600160a01b031660009081526007602052604090205460ff1690565b6107e3611386565b6001600160a01b03811661080a5760405163d92e233d60e01b815260040160405180910390fd5b600280546001600160a01b0319166001600160a01b0383169081179091556040517f1edf3afd4ac789736e00d216cd88be164ddcef26a6eedcc30cdb0cb62f3741b190600090a250565b61085c611386565b6001600160a01b038216158061087957506001600160a01b038116155b156108975760405163d92e233d60e01b815260040160405180910390fd5b6003839055600480546001600160a01b03199081166001600160a01b038581169182179093556005805490921692841692831790915560405185907f62aa79f6e449920637ad5310ea6ef9c67a32aaa6a8b98cd6814452daf11213a390600090a4505050565b610905611386565b61090f60006113b3565b565b60058251111561093757604051632789f90560e11b815260056004820152602401610446565b60005b82518110156105845761097f83828151811061095857610958611f0e565b602002602001015183838151811061097257610972611f0e565b6020026020010151610d60565b60010161093a565b61099033610589565b1580156109a857506000546001600160a01b03163314155b156109c657604051631859551f60e31b815260040160405180910390fd5b6127108161ffff1611156109ed5760405163eb2b61a560e01b815260040160405180910390fd5b6001600160a01b038216600081815260086020908152604091829020805461ffff191661ffff861690811790915591519182527fd254de1c4bdaafc52898e46f43ed993ee35724d55a0df75ebcb55f9f6c470dab910160405180910390a25050565b610a57611386565b6001600160a01b038116610aad5760405162461bcd60e51b815260206004820152601f60248201527f696e76616c696420617267756d656e74202d207a65726f2061646472657373006044820152606401610446565b610ab8600182611403565b6040516001600160a01b038216907ff68e73cec97f2d70aa641fb26e87a4383686e2efacb648f2165aeb02ac562ec590600090a250565b610af833610589565b158015610b1057506000546001600160a01b03163314155b15610b2e57604051631859551f60e31b815260040160405180910390fd5b610b37816107bd565b15610b60576040516375c2ceb960e11b81526001600160a01b0382166004820152602401610446565b6001600160a01b038116600081815260076020526040808220805460ff19166001179055517f861a21548a3ee34d896ccac3668a9d65030aaf2cb7367a2ed13608014016a0329190a250565b610bb4611386565b6001600160a01b038116610c0a5760405162461bcd60e51b815260206004820152601f60248201527f696e76616c696420617267756d656e74202d207a65726f2061646472657373006044820152606401610446565b610c1560018261147f565b6040516001600160a01b038216907fed9c8ad8d5a0a66898ea49d2956929c93ae2e8bd50281b2ed897c5d1a6737e0b90600090a250565b610c54611386565b60025460405163f2fde38b60e01b81526001600160a01b0383811660048301529091169063f2fde38b90602401600060405180830381600087803b158015610c9b57600080fd5b505af115801561076f573d6000803e3d6000fd5b610cb7611386565b60065460ff161515811515148015610cd157506001811515145b15610cef576040516360d38b9560e01b815260040160405180910390fd5b60065460ff161515811515148015610d05575080155b15610d23576040516398e8f30360e01b815260040160405180910390fd5b6006805460ff19168215159081179091556040517f576845931000b1b98d2173829911e0db5a788158585b3da38572ec01552217d590600090a250565b600254600160a01b900460ff16158015610d805750610d7e336107bd565b155b15610d9e57604051632deadb8b60e21b815260040160405180910390fd5b600254600160a01b900460ff1615156001148015610dc6575081516001600160a01b03163314155b8015610dd85750610dd6336107bd565b155b15610df6576040516318f44adb60e01b815260040160405180910390fd5b60065460009060ff161515600103610ec65760035415801590610e2f57503360009081526008602052604090205461271061ffff909116105b15610ec657610e3d33610776565b600480546005546040516323b872dd60e01b815233938101939093526001600160a01b0390811660248401526044830184905292935091909116906323b872dd906064016020604051808303816000875af1158015610ea0573d6000803e3d6000fd5b505050506040513d601f19601f82011682018060405250810190610ec49190611fa1565b505b6000610ed58460000151611501565b602080860151604051610ee9939201611fe2565b60408051601f198184030181529082905260025463cf753d3760e01b83529092506001600160a01b03169063cf753d3790610f2c908490889088906004016121a1565b600060405180830381600087803b158015610f4657600080fd5b505af1158015610f5a573d6000803e3d6000fd5b50508551604080516001600160a01b039092168252602082018690523393507f3ddb07c2df247d32c71cd94e46f101dd4a4bcd5ce07afc925673aa63ba24960e92500160405180910390a250505050565b610fb433610589565b158015610fcc57506000546001600160a01b03163314155b15610fea57604051631859551f60e31b815260040160405180910390fd5b6101f481111561101157604051632789f90560e11b81526101f46004820152602401610446565b60005b818110156105845761103183838381811061046f5761046f611f0e565b156110825782828281811061104857611048611f0e565b905060200201602081019061105d9190611739565b6040516375c2ceb960e11b81526001600160a01b039091166004820152602401610446565b60016007600085858581811061109a5761109a611f0e565b90506020020160208101906110af9190611739565b6001600160a01b031681526020810191909152604001600020805460ff19169115159190911790558282828181106110e9576110e9611f0e565b90506020020160208101906110fe9190611739565b6001600160a01b03167f861a21548a3ee34d896ccac3668a9d65030aaf2cb7367a2ed13608014016a03260405160405180910390a2600101611014565b611143611386565b600260149054906101000a900460ff16151581151514801561116757506001811515145b1561118557604051634cc2b9b760e01b815260040160405180910390fd5b600260149054906101000a900460ff1615158115151480156111a5575080155b156111c35760405163593cdd5360e11b815260040160405180910390fd5b6002805460ff60a01b1916600160a01b831515908102919091179091556040517ff8be33baa430c4b62d2c9d79ab319d10cc41755a1fb65f85e64ca0632c29d0a490600090a250565b611214611386565b6001600160a01b03811661123e57604051631e4fbdf760e01b815260006004820152602401610446565b611247816113b3565b50565b61125333610589565b15801561126b57506000546001600160a01b03163314155b1561128957604051631859551f60e31b815260040160405180910390fd5b611292816107bd565b6112ba57604051634e02340f60e01b81526001600160a01b0382166004820152602401610446565b6001600160a01b038116600081815260076020526040808220805460ff19169055517ffdb22628e87f888d060acc53d048a6a8400a5024f81f9dcb0606e723f238864a9190a250565b60006001600160a01b0382166113665760405162461bcd60e51b815260206004820152602260248201527f526f6c65733a206163636f756e7420697320746865207a65726f206164647265604482015261737360f01b6064820152608401610446565b506001600160a01b03166000908152602091909152604090205460ff1690565b6000546001600160a01b0316331461090f5760405163118cdaa760e01b8152336004820152602401610446565b600080546001600160a01b038381166001600160a01b0319831681178455604051919092169283917f8be0079c531659141344cd1fd0a4f28419497f9722a3daafe3b4186f6b6457e09190a35050565b61140d8282611303565b1561145a5760405162461bcd60e51b815260206004820152601f60248201527f526f6c65733a206163636f756e7420616c72656164792068617320726f6c65006044820152606401610446565b6001600160a01b0316600090815260209190915260409020805460ff19166001179055565b6114898282611303565b6114df5760405162461bcd60e51b815260206004820152602160248201527f526f6c65733a206163636f756e7420646f6573206e6f74206861766520726f6c6044820152606560f81b6064820152608401610446565b6001600160a01b0316600090815260209190915260409020805460ff19169055565b60606105966001600160a01b03831660146060826000611522846002611f55565b61152d9060026122d4565b6001600160401b0381111561154457611544611802565b6040519080825280601f01601f19166020018201604052801561156e576020820181803683370190505b509050600360fc1b8160008151811061158957611589611f0e565b60200101906001600160f81b031916908160001a905350600f60fb1b816001815181106115b8576115b8611f0e565b60200101906001600160f81b031916908160001a90535060006115dc856002611f55565b6115e79060016122d4565b90505b600181111561165f576f181899199a1a9b1b9c1cb0b131b232b360811b83600f166010811061161b5761161b611f0e565b1a60f81b82828151811061163157611631611f0e565b60200101906001600160f81b031916908160001a90535060049290921c91611658816122e7565b90506115ea565b5081156116895760405163e22e27eb60e01b81526004810186905260248101859052604401610446565b949350505050565b60008083601f8401126116a357600080fd5b5081356001600160401b038111156116ba57600080fd5b6020830191508360208260051b85010111156116d557600080fd5b9250929050565b600080602083850312156116ef57600080fd5b82356001600160401b0381111561170557600080fd5b61171185828601611691565b90969095509350505050565b80356001600160a01b038116811461173457600080fd5b919050565b60006020828403121561174b57600080fd5b6117548261171d565b9392505050565b6000806000806040858703121561177157600080fd5b84356001600160401b038082111561178857600080fd5b61179488838901611691565b909650945060208701359150808211156117ad57600080fd5b506117ba87828801611691565b95989497509550505050565b6000806000606084860312156117db57600080fd5b833592506117eb6020850161171d565b91506117f96040850161171d565b90509250925092565b634e487b7160e01b600052604160045260246000fd5b60405161014081016001600160401b038111828210171561183b5761183b611802565b60405290565b604051606081016001600160401b038111828210171561183b5761183b611802565b604051601f8201601f191681016001600160401b038111828210171561188b5761188b611802565b604052919050565b60006001600160401b038211156118ac576118ac611802565b5060051b60200190565b60006001600160401b038311156118cf576118cf611802565b6118e2601f8401601f1916602001611863565b90508281528383830111156118f657600080fd5b828260208301376000602084830101529392505050565b600082601f83011261191e57600080fd5b611754838335602085016118b6565b803560ff8116811461173457600080fd5b600082601f83011261194f57600080fd5b8135602061196461195f83611893565b611863565b8083825260208201915060208460051b87010193508684111561198657600080fd5b602086015b848110156119a95761199c8161171d565b835291830191830161198b565b509695505050505050565b600082601f8301126119c557600080fd5b813560206119d561195f83611893565b82815260059290921b840181019181810190868411156119f457600080fd5b8286015b848110156119a95780356001600160401b03811115611a175760008081fd5b8701603f81018913611a295760008081fd5b611a3a8986830135604084016118b6565b8452509183019183016119f8565b60006101408284031215611a5b57600080fd5b611a63611818565b9050611a6e8261171d565b815260208201356001600160401b0380821115611a8a57600080fd5b611a968583860161190d565b60208401526040840135915080821115611aaf57600080fd5b611abb8583860161190d565b6040840152611acc6060850161192d565b6060840152611add6080850161171d565b6080840152611aee60a0850161171d565b60a084015260c0840135915080821115611b0757600080fd5b611b138583860161193e565b60c084015260e0840135915080821115611b2c57600080fd5b611b388583860161193e565b60e084015261010091508184013581811115611b5357600080fd5b611b5f8682870161193e565b838501525061012091508184013581811115611b7a57600080fd5b611b86868287016119b4565b8385015250505092915050565b600082601f830112611ba457600080fd5b81356020611bb461195f83611893565b8083825260208201915060208460051b870101935086841115611bd657600080fd5b602086015b848110156119a95780358352918301918301611bdb565b600060608284031215611c0457600080fd5b611c0c611841565b905081356001600160401b0380821115611c2557600080fd5b611c3185838601611b93565b8352602091508184013581811115611c4857600080fd5b611c548682870161193e565b8385015250604084013581811115611c6b57600080fd5b8401601f81018613611c7c57600080fd5b8035611c8a61195f82611893565b81815260059190911b82018401908481019088831115611ca957600080fd5b8584015b83811015611ce157803586811115611cc55760008081fd5b611cd38b8983890101611b93565b845250918601918601611cad565b50604087015250939695505050505050565b600082601f830112611d0457600080fd5b81356020611d1461195f83611893565b82815260059290921b84018101918181019086841115611d3357600080fd5b8286015b848110156119a95780356001600160401b03811115611d565760008081fd5b611d648986838b0101611bf2565b845250918301918301611d37565b60008060408385031215611d8557600080fd5b82356001600160401b0380821115611d9c57600080fd5b818501915085601f830112611db057600080fd5b81356020611dc061195f83611893565b82815260059290921b84018101918181019089841115611ddf57600080fd5b8286015b84811015611e1757803586811115611dfb5760008081fd5b611e098c86838b0101611a48565b845250918301918301611de3565b5096505086013592505080821115611e2e57600080fd5b50611e3b85828601611cf3565b9150509250929050565b803561ffff8116811461173457600080fd5b60008060408385031215611e6a57600080fd5b611e738361171d565b9150611e8160208401611e45565b90509250929050565b801515811461124757600080fd5b600060208284031215611eaa57600080fd5b813561175481611e8a565b60008060408385031215611ec857600080fd5b82356001600160401b0380821115611edf57600080fd5b611eeb86838701611a48565b93506020850135915080821115611f0157600080fd5b50611e3b85828601611bf2565b634e487b7160e01b600052603260045260246000fd5b600060208284031215611f3657600080fd5b61175482611e45565b634e487b7160e01b600052601160045260246000fd5b808202811582820484141761059657610596611f3f565b600082611f8957634e487b7160e01b600052601260045260246000fd5b500490565b8181038181111561059657610596611f3f565b600060208284031215611fb357600080fd5b815161175481611e8a565b60005b83811015611fd9578181015183820152602001611fc1565b50506000910152565b60008351611ff4818460208801611fbe565b835190830190612008818360208801611fbe565b01949350505050565b60008151808452612029816020860160208601611fbe565b601f01601f19169290920160200192915050565b60008151808452602080850194506020840160005b838110156120775781516001600160a01b031687529582019590820190600101612052565b509495945050505050565b60008282518085526020808601955060208260051b8401016020860160005b848110156120cf57601f198684030189526120bd838351612011565b988401989250908301906001016120a1565b5090979650505050505050565b60008151808452602080850194506020840160005b83811015612077578151875295820195908201906001016120f1565b600081516060845261212260608501826120dc565b90506020808401518583038287015261213b838261203d565b925050604084015185830360408701528281518085528385019150838160051b860101848401935060005b8281101561219457601f198783030184526121828286516120dc565b94860194938601939150600101612166565b5098975050505050505050565b6060815260006121b46060830186612011565b828103602084015284516001600160a01b0316815261014060208601518160208401526121e382840182612011565b915050604086015182820360408401526121fd8282612011565b9150506060860151612214606084018260ff169052565b50608086015161222f60808401826001600160a01b03169052565b5060a086015161224a60a08401826001600160a01b03169052565b5060c086015182820360c0840152612262828261203d565b91505060e086015182820360e084015261227c828261203d565b9150506101008087015183830382850152612297838261203d565b9250505061012080870151838303828501526122b38382612082565b935050505082810360408401526122ca818561210d565b9695505050505050565b8082018082111561059657610596611f3f565b6000816122f6576122f6611f3f565b50600019019056fea2646970667358221220bcf75d8e876ffbcdc3006813e0ba9fca7b7445cac2a245b89e2801f474fac62064736f6c63430008180033","linkReferences":{}},"methodIdentifiers":{"addAgent(address)":"84e79842","addDeployer(address)":"880f4039","applyFeeDiscount(address,uint16)":"75e14cff","batchAddDeployer(address[])":"e65811ff","batchApplyFeeDiscount(address[],uint16[])":"2782035e","batchDeployTREXSuite((address,string,string,uint8,address,address,address[],address[],address[],bytes[])[],(uint256[],address[],uint256[][])[])":"730b86a9","batchRemoveDeployer(address[])":"0065939e","calculateFee(address)":"465f5eb8","deployTREXSuite((address,string,string,uint8,address,address,address[],address[],address[],bytes[]),(uint256[],address[],uint256[][]))":"c8eebfcc","enableDeploymentFee(bool)":"a264f2bd","getDeploymentFee()":"46c549cc","getFactory()":"88cc58e4","getPublicDeploymentStatus()":"bfc2f10b","isAgent(address)":"1ffbb064","isDeployer(address)":"50c358a4","isDeploymentFeeEnabled()":"47706851","owner()":"8da5cb5b","removeAgent(address)":"97a6278e","removeDeployer(address)":"f315df86","renounceOwnership()":"715018a6","setDeploymentFee(uint256,address,address)":"5d46c283","setFactory(address)":"5bb47808","setPublicDeploymentStatus(bool)":"eca465c4","transferFactoryOwnership(address)":"9c5c5ce7","transferOwnership(address)":"f2fde38b"},"id":62}