{"abi":[{"type":"function","name":"availableExchanges","inputs":[{"name":"exchange","type":"address","internalType":"address"}],"outputs":[{"name":"","type":"bool","internalType":"bool"}],"stateMutability":"view"},{"type":"function","name":"deployExchange","inputs":[{"name":"tokenA","type":"address","internalType":"address"},{"name":"tokenB","type":"address","internalType":"address"}],"outputs":[{"name":"exchange","type":"address","internalType":"address"}],"stateMutability":"nonpayable"},{"type":"function","name":"exchangeDeployed","inputs":[{"name":"","type":"bytes32","internalType":"bytes32"}],"outputs":[{"name":"","type":"address","internalType":"address"}],"stateMutability":"view"},{"type":"function","name":"isExchangeAvailable","inputs":[{"name":"exchange","type":"address","internalType":"address"}],"outputs":[{"name":"","type":"bool","internalType":"bool"}],"stateMutability":"view"},{"type":"event","name":"ExchangeDeployed","inputs":[{"name":"exchange","type":"address","indexed":false,"internalType":"address"},{"name":"tokenA","type":"address","indexed":false,"internalType":"address"},{"name":"tokenB","type":"address","indexed":false,"internalType":"address"},{"name":"deployer","type":"address","indexed":false,"internalType":"address"}],"anonymous":false}],"bytecode":{"object":"0x608060405234801561001057600080fd5b50611e52806100206000396000f3fe608060405234801561001057600080fd5b506004361061004c5760003560e01c8063443bc94a146100515780636b35ea281461009757806378c39d5f146100aa578063a397c073146100e6575b600080fd5b61007a61005f366004610321565b6001602052600090815260409020546001600160a01b031681565b6040516001600160a01b0390911681526020015b60405180910390f35b61007a6100a5366004610356565b610109565b6100d66100b8366004610389565b6001600160a01b031660009081526020819052604090205460ff1690565b604051901515815260200161008e565b6100d66100f4366004610389565b60006020819052908152604090205460ff1681565b6040516bffffffffffffffffffffffff1933606090811b8216602084015284811b8216603484015283901b1660488201526000908190605c0160408051601f198184030181529181528151602092830120600081815260019093529120549091506001600160a01b0316156101c45760405162461bcd60e51b815260206004820152601960248201527f45786368616e676520616c7265616479206465706c6f79656400000000000000604482015260640160405180910390fd5b6101cf818585610266565b600082815260016020818152604080842080546001600160a01b0319166001600160a01b0387811691821790925580865285845294829020805460ff1916909417909355805193845288831691840191909152908616908201523360608201529092507fa5b803b77d28e977c1af94d97267f3615377386271d1d18976e7d87309e04b0d9060800160405180910390a15092915050565b6000806040518060200161027990610314565b601f1982820381018352601f9091011660408181526001600160a01b038781166020840152861681830152805180830382018152606083019091529192506000906102ca90849084906080016103d4565b60405160208183030381529060405290506102e587826102f0565b979650505050505050565b60008082602001835185818334f592505050803b61030d57600080fd5b9392505050565b611a2b806103f283390190565b60006020828403121561033357600080fd5b5035919050565b80356001600160a01b038116811461035157600080fd5b919050565b6000806040838503121561036957600080fd5b6103728361033a565b91506103806020840161033a565b90509250929050565b60006020828403121561039b57600080fd5b61030d8261033a565b6000815160005b818110156103c557602081850181015186830152016103ab565b50600093019283525090919050565b60006103e96103e383866103a4565b846103a4565b94935050505056fe60806040523480156200001157600080fd5b5060405162001a2b38038062001a2b833981016040819052620000349162000087565b60016008819055600080546001600160a01b03199081166001600160a01b039586161790915581541691909216179055620000bf565b80516001600160a01b03811681146200008257600080fd5b919050565b600080604083850312156200009b57600080fd5b620000a6836200006a565b9150620000b6602084016200006a565b90509250929050565b61195c80620000cf6000396000f3fe608060405234801561001057600080fd5b50600436106100cf5760003560e01c8063925931fc1161008c578063ee36d4ab11610066578063ee36d4ab1461022c578063f3fef3a31461023f578063f7888aec14610252578063f88d20471461027d57600080fd5b8063925931fc14610207578063a4406bcd14610210578063bb110bf91461022357600080fd5b80630fc63d10146100d457806335cea2881461010457806347e7ef241461017e5780634a8393f3146101935780635f64b55b146101dd57806372fb0777146101f0575b600080fd5b6000546100e7906001600160a01b031681565b6040516001600160a01b0390911681526020015b60405180910390f35b61014d610112366004611631565b60026020819052600091825260409091208054600182015492820154600383015460049093015491939290916001600160a01b039091169085565b604080519586526020860194909452928401919091526001600160a01b03166060830152608082015260a0016100fb565b61019161018c366004611666565b610290565b005b61014d6101a1366004611631565b6003602081905260009182526040909120805460018201546002830154938301546004909301549193909290916001600160a01b039091169085565b6001546100e7906001600160a01b031681565b6101f960065481565b6040519081526020016100fb565b6101f960075481565b6101f961021e366004611690565b61035c565b6101f960055481565b6101f961023a366004611690565b610460565b61019161024d366004611666565b6105e3565b6101f96102603660046116b2565b600460209081526000928352604080842090915290825290205481565b61019161028b3660046116f6565b6106df565b61029861085b565b6000546001600160a01b03838116911614806102c157506001546001600160a01b038381169116145b6103025760405162461bcd60e51b815260206004820152600d60248201526c24b73b30b634b2103a37b5b2b760991b60448201526064015b60405180910390fd5b600081116103435760405162461bcd60e51b815260206004820152600e60248201526d125b9d985b1a5908185b5bdd5b9d60921b60448201526064016102f9565b61034e338383610885565b6103586001600855565b5050565b600061036661085b565b600083116103a65760405162461bcd60e51b815260206004820152600d60248201526c496e76616c696420507269636560981b60448201526064016102f9565b600082116103e75760405162461bcd60e51b815260206004820152600e60248201526d496e76616c696420566f6c756d6560901b60448201526064016102f9565b33600090815260046020908152604080832083546001600160a01b0316845290915290205482111561042b5760405162461bcd60e51b81526004016102f990611726565b6000610438338585610987565b9050801561044b5761044b338583610c11565b505060075461045a6001600855565b92915050565b600061046a61085b565b600083116104aa5760405162461bcd60e51b815260206004820152600d60248201526c496e76616c696420507269636560981b60448201526064016102f9565b600082116104eb5760405162461bcd60e51b815260206004820152600e60248201526d496e76616c696420566f6c756d6560901b60448201526064016102f9565b60008054906101000a90046001600160a01b03166001600160a01b031663313ce5676040518163ffffffff1660e01b8152600401602060405180830381865afa15801561053c573d6000803e3d6000fd5b505050506040513d601f19601f820116820180604052508101906105609190611752565b61056b90600a611876565b6105759083611885565b61057f90846118a7565b3360009081526004602090815260408083206001546001600160a01b0316845290915290205410156105c35760405162461bcd60e51b81526004016102f990611726565b60006105d0338585610d97565b9050801561044b5761044b338583611047565b6105eb61085b565b6000546001600160a01b038381169116148061061457506001546001600160a01b038381169116145b6106505760405162461bcd60e51b815260206004820152600d60248201526c24b73b30b634b2103a37b5b2b760991b60448201526064016102f9565b600081116106915760405162461bcd60e51b815260206004820152600e60248201526d125b9d985b1a5908185b5bdd5b9d60921b60448201526064016102f9565b3360009081526004602090815260408083206001600160a01b03861684529091529020548111156106d45760405162461bcd60e51b81526004016102f990611726565b61034e33838361125b565b6106e761085b565b600081610701576000838152600360205260409020610710565b60008381526002602052604090205b60038101549091506001600160a01b03166107635760405162461bcd60e51b81526020600482015260136024820152724f7264657220646f206e6f742065786973747360681b60448201526064016102f9565b60038101546001600160a01b031633146107d45760405162461bcd60e51b815260206004820152602c60248201527f4f6e6c7920746865206f726465722063726561746f722063616e2063616e636560448201526b36103a3434b99037b93232b960a11b60648201526084016102f9565b60008160020154116108345760405162461bcd60e51b8152602060048201526024808201527f4f7264657220616c72656164792063616e63656c6c6564206f722066756c66696044820152631b1b195960e21b60648201526084016102f9565b81610847576108428161134e565b610850565b61085081611476565b506103586001600855565b60026008540361087e57604051633ee5aeb560e01b815260040160405180910390fd5b6002600855565b6040516323b872dd60e01b81526001600160a01b038481166004830152306024830152604482018390528316906323b872dd906064016020604051808303816000875af11580156108da573d6000803e3d6000fd5b505050506040513d601f19601f820116820180604052508101906108fe91906118be565b506001600160a01b038084166000908152600460209081526040808320938616835292905290812080548392906109369084906118db565b9091555050604080516001600160a01b038481168252602082018490528516917f5548c837ab068cf56a2c2479df0882a4922fd203edb7517321831d95078c5f6291015b60405180910390a2505050565b600554600080546040805163313ce56760e01b8152905192939284926001600160a01b03169163313ce5679160048083019260209291908290030181865afa1580156109d7573d6000803e3d6000fd5b505050506040513d601f19601f820116820180604052508101906109fb9190611752565b60ff1690505b8115801590610a105750600084115b15610c0657600082815260026020526040902060018101548611610bfa57600085826002015410610a415785610a47565b81600201545b905086610a5584600a6118ee565b610a5f9083611885565b610a6990826118a7565b6001600160a01b03808b16600090815260046020908152604080832060015490941683529290529081208054909190610aa39084906118db565b90915550506001600160a01b03808a166000908152600460209081526040808320835490941683529290529081208054849290610ae19084906118fa565b909155505060038301546001600160a01b039081166000908152600460209081526040808320835490941683529290529081208054849290610b249084906118db565b90915550610b34905082886118fa565b965081836002016000828254610b4a91906118fa565b9091555050600183015460038401546040805185815260208101939093526001600160a01b03918216908301528a16907f83cc6330e30db670fe04b07b602bd9cba4da39e5037267131b5d60cecba29f619060600160405180910390a28260020154600003610bf35760048084015460009687526002602081905260408820888155600181018990559081018890556003810180546001600160a01b0319169055909101959095555b5050610c00565b50610c06565b50610a01565b506005555092915050565b60078054906000610c218361190d565b909155505060065460005b8115801590610c4b575060008281526003602052604090206001015484115b15610c69575060008181526003602052604090206004015490610c2c565b6040805160a08101825260075480825260208083018881528385018881526001600160a01b038b811660608701818152608088018b8152600097885260038088528a892099518a55955160018a0155935160028901555193870180546001600160a01b03191694831694909417909355905160049586015590835292815283822082549093168252919091529081208054859290610d089084906118fa565b9091555050600754604080516000815260208101929092526001600160a01b038716828201526060820186905260808201859052517f286a2d7a29403e4e0f090c310eeb9b565090f3731608308fe263443ca910e9d59181900360a00190a180600003610d7a57600754600655610d90565b6007546000828152600360205260409020600401555b5050505050565b600654600080546040805163313ce56760e01b8152905192939284926001600160a01b03169163313ce5679160048083019260209291908290030181865afa158015610de7573d6000803e3d6000fd5b505050506040513d601f19601f82011682018060405250810190610e0b9190611752565b60ff1690505b8115801590610e205750600084115b1561103c5760008281526003602052604090206001810154861061103057600085826002015410610e515785610e57565b81600201545b6001830154909150610e6a84600a6118ee565b610e749083611885565b610e7e90826118a7565b6001600160a01b03808b16600090815260046020908152604080832060015490941683529290529081208054909190610eb89084906118fa565b90915550506001600160a01b03808a166000908152600460209081526040808320835490941683529290529081208054849290610ef69084906118db565b90915550610f07905084600a6118ee565b610f119083611885565b610f1b90826118a7565b60038401546001600160a01b03908116600090815260046020908152604080832060015490941683529290529081208054909190610f5a9084906118db565b90915550610f6a905082886118fa565b965081836002016000828254610f8091906118fa565b9091555050600183015460038401546040805185815260208101939093526001600160a01b03918216908301528a16907f83cc6330e30db670fe04b07b602bd9cba4da39e5037267131b5d60cecba29f619060600160405180910390a282600201546000036110295760048084015460009687526003602081905260408820888155600181018990556002810189905590810180546001600160a01b0319169055909101959095555b5050611036565b5061103c565b50610e11565b506006555092915050565b600780549060006110578361190d565b909155505060055460005b8115801590611081575060008281526002602052604090206001015484105b1561109f575060008181526002602052604090206004015490611062565b6040805160a08101825260075480825260208083018881528385018881526001600160a01b038b811660608701908152608087018a815260009687526002808752898820985189559451600189015592519387019390935591516003860180546001600160a01b031916918416919091179055516004948501559154845163313ce56760e01b8152945192169363313ce5679381810193918290030181865afa158015611150573d6000803e3d6000fd5b505050506040513d601f19601f820116820180604052508101906111749190611752565b61117f90600a611876565b6111899084611885565b61119390856118a7565b6001600160a01b038087166000908152600460209081526040808320600154909416835292905290812080549091906111cd9084906118fa565b9091555050600754604080516001815260208101929092526001600160a01b038716828201526060820186905260808201859052517f286a2d7a29403e4e0f090c310eeb9b565090f3731608308fe263443ca910e9d59181900360a00190a18060000361123f57600754600555610d90565b6007546000828152600260205260409020600401555050505050565b6001600160a01b038084166000908152600460209081526040808320938616835292905290812080548392906112929084906118fa565b909155505060405163a9059cbb60e01b81526001600160a01b0384811660048301526024820183905283169063a9059cbb906044016020604051808303816000875af11580156112e6573d6000803e3d6000fd5b505050506040513d601f19601f8201168201806040525081019061130a91906118be565b50604080516001600160a01b038481168252602082018490528516917f9b1bfa7fa9ee420a16e124f794c35ac9f90472acc99140eb2f6447c714cad8eb910161097a565b6006548154036113655760048101546006556113ea565b60065460009081526003602052604090205b81546004820154146113e05780600401546000036113c95760405162461bcd60e51b815260206004820152600f60248201526e13dc99195c881b9bdd08199bdd5b99608a1b60448201526064016102f9565b600401546000908152600360205260409020611377565b6004808301549101555b600281015460038201546001600160a01b03908116600090815260046020908152604080832083549094168352929052908120805490919061142d9084906118db565b9091555050600060028201819055815460405191825233917fcfa919375acf04933787aa7f7b25d71adf2e92839529dad777b47ff2cd0827a4906020015b60405180910390a350565b60055481540361148d576004810154600555611512565b60055460009081526002602052604090205b81546004820154146115085780600401546000036114f15760405162461bcd60e51b815260206004820152600f60248201526e13dc99195c881b9bdd08199bdd5b99608a1b60448201526064016102f9565b60040154600090815260026020526040902061149f565b6004808301549101555b60008054906101000a90046001600160a01b03166001600160a01b031663313ce5676040518163ffffffff1660e01b8152600401602060405180830381865afa158015611563573d6000803e3d6000fd5b505050506040513d601f19601f820116820180604052508101906115879190611752565b61159290600a611876565b81600201546115a19190611885565b81600101546115b091906118a7565b60038201546001600160a01b039081166000908152600460209081526040808320600154909416835292905290812080549091906115ef9084906118db565b9091555050600060028201558054604051600181523391907fcfa919375acf04933787aa7f7b25d71adf2e92839529dad777b47ff2cd0827a49060200161146b565b60006020828403121561164357600080fd5b5035919050565b80356001600160a01b038116811461166157600080fd5b919050565b6000806040838503121561167957600080fd5b6116828361164a565b946020939093013593505050565b600080604083850312156116a357600080fd5b50508035926020909101359150565b600080604083850312156116c557600080fd5b6116ce8361164a565b91506116dc6020840161164a565b90509250929050565b80151581146116f357600080fd5b50565b6000806040838503121561170957600080fd5b82359150602083013561171b816116e5565b809150509250929050565b6020808252601290820152714e6f7420656e6f7567682062616c616e636560701b604082015260600190565b60006020828403121561176457600080fd5b815160ff8116811461177557600080fd5b9392505050565b634e487b7160e01b600052601160045260246000fd5b600181815b808511156117cd5781600019048211156117b3576117b361177c565b808516156117c057918102915b93841c9390800290611797565b509250929050565b6000826117e45750600161045a565b816117f15750600061045a565b816001811461180757600281146118115761182d565b600191505061045a565b60ff8411156118225761182261177c565b50506001821b61045a565b5060208310610133831016604e8410600b8410161715611850575081810a61045a565b61185a8383611792565b806000190482111561186e5761186e61177c565b029392505050565b600061177560ff8416836117d5565b6000826118a257634e487b7160e01b600052601260045260246000fd5b500490565b808202811582820484141761045a5761045a61177c565b6000602082840312156118d057600080fd5b8151611775816116e5565b8082018082111561045a5761045a61177c565b600061177583836117d5565b8181038181111561045a5761045a61177c565b60006001820161191f5761191f61177c565b506001019056fea26469706673582212208077200d6f8bb9cc5fa48f1e43ac34d2e1ea00c6a79c8b0cfe0f27d4c487927964736f6c63430008180033a2646970667358221220b33258af83876fef371f60c2fdf268724c52f35cfab7927ce9b71264394ed55e64736f6c63430008180033","linkReferences":{}},"methodIdentifiers":{"availableExchanges(address)":"a397c073","deployExchange(address,address)":"6b35ea28","exchangeDeployed(bytes32)":"443bc94a","isExchangeAvailable(address)":"78c39d5f"},"id":131}