{"abi":[{"type":"constructor","inputs":[{"name":"_implementation","type":"address","internalType":"address"}],"stateMutability":"nonpayable"},{"type":"function","name":"getImplementation","inputs":[],"outputs":[{"name":"","type":"address","internalType":"address"}],"stateMutability":"view"},{"type":"function","name":"implementation","inputs":[],"outputs":[{"name":"","type":"address","internalType":"address"}],"stateMutability":"view"},{"type":"function","name":"owner","inputs":[],"outputs":[{"name":"","type":"address","internalType":"address"}],"stateMutability":"view"},{"type":"function","name":"renounceOwnership","inputs":[],"outputs":[],"stateMutability":"nonpayable"},{"type":"function","name":"transferOwnership","inputs":[{"name":"newOwner","type":"address","internalType":"address"}],"outputs":[],"stateMutability":"nonpayable"},{"type":"function","name":"updateImplementation","inputs":[{"name":"_newImplementation","type":"address","internalType":"address"}],"outputs":[],"stateMutability":"nonpayable"},{"type":"event","name":"OwnershipTransferred","inputs":[{"name":"previousOwner","type":"address","indexed":true,"internalType":"address"},{"name":"newOwner","type":"address","indexed":true,"internalType":"address"}],"anonymous":false},{"type":"event","name":"UpdatedImplementation","inputs":[{"name":"newAddress","type":"address","indexed":false,"internalType":"address"}],"anonymous":false}],"bytecode":{"object":"0x608060405234801561001057600080fd5b5060405161048538038061048583398101604081905261002f916100c7565b600080546001600160a01b031916339081178255604051909182917f8be0079c531659141344cd1fd0a4f28419497f9722a3daafe3b4186f6b6457e0908290a350600180546001600160a01b0319166001600160a01b0383169081179091556040519081527f87c4e67a766ffddda27f441d63853a36ae64fbb07775a7c59d395e064b204eeb9060200160405180910390a1506100f7565b6000602082840312156100d957600080fd5b81516001600160a01b03811681146100f057600080fd5b9392505050565b61037f806101066000396000f3fe608060405234801561001057600080fd5b50600436106100625760003560e01c8063025b22bc146100675780635c60da1b1461007c578063715018a6146100ab5780638da5cb5b146100b3578063aaf10f42146100c4578063f2fde38b146100d5575b600080fd5b61007a6100753660046102d3565b6100e8565b005b60015461008f906001600160a01b031681565b6040516001600160a01b03909116815260200160405180910390f35b61007a61016f565b6000546001600160a01b031661008f565b6001546001600160a01b031661008f565b61007a6100e33660046102d3565b6101e3565b6000546001600160a01b0316331461011b5760405162461bcd60e51b815260040161011290610303565b60405180910390fd5b600180546001600160a01b0319166001600160a01b0383169081179091556040519081527f87c4e67a766ffddda27f441d63853a36ae64fbb07775a7c59d395e064b204eeb9060200160405180910390a150565b6000546001600160a01b031633146101995760405162461bcd60e51b815260040161011290610303565b600080546040516001600160a01b03909116907f8be0079c531659141344cd1fd0a4f28419497f9722a3daafe3b4186f6b6457e0908390a3600080546001600160a01b0319169055565b6000546001600160a01b0316331461020d5760405162461bcd60e51b815260040161011290610303565b6001600160a01b0381166102785760405162461bcd60e51b815260206004820152602c60248201527f4f776e61626c654c65676163793a206e6577206f776e6572206973207468652060448201526b7a65726f206164647265737360a01b6064820152608401610112565b600080546040516001600160a01b03808516939216917f8be0079c531659141344cd1fd0a4f28419497f9722a3daafe3b4186f6b6457e091a3600080546001600160a01b0319166001600160a01b0392909216919091179055565b6000602082840312156102e557600080fd5b81356001600160a01b03811681146102fc57600080fd5b9392505050565b60208082526026908201527f4f776e61626c654c65676163793a2063616c6c6572206973206e6f74207468656040820152651037bbb732b960d11b60608201526080019056fea2646970667358221220bc53765727d8e7a0ff7d8d15bddabbf877239ab72562ea4884c3b45bef38934264736f6c63430008180033","linkReferences":{}},"methodIdentifiers":{"getImplementation()":"aaf10f42","implementation()":"5c60da1b","owner()":"8da5cb5b","renounceOwnership()":"715018a6","transferOwnership(address)":"f2fde38b","updateImplementation(address)":"025b22bc"},"id":21}