{"abi":[{"type":"function","name":"IDBalance","inputs":[{"name":"","type":"address","internalType":"address"}],"outputs":[{"name":"","type":"uint256","internalType":"uint256"}],"stateMutability":"view"},{"type":"function","name":"addAgent","inputs":[{"name":"_agent","type":"address","internalType":"address"}],"outputs":[],"stateMutability":"nonpayable"},{"type":"function","name":"addTokenAgent","inputs":[{"name":"_agentAddress","type":"address","internalType":"address"}],"outputs":[],"stateMutability":"nonpayable"},{"type":"function","name":"bindToken","inputs":[{"name":"_token","type":"address","internalType":"address"}],"outputs":[],"stateMutability":"nonpayable"},{"type":"function","name":"canTransfer","inputs":[{"name":"_from","type":"address","internalType":"address"},{"name":"_to","type":"address","internalType":"address"},{"name":"_value","type":"uint256","internalType":"uint256"}],"outputs":[{"name":"","type":"bool","internalType":"bool"}],"stateMutability":"view"},{"type":"function","name":"complianceCheckOnMaxBalance","inputs":[{"name":"","type":"address","internalType":"address"},{"name":"_to","type":"address","internalType":"address"},{"name":"_value","type":"uint256","internalType":"uint256"}],"outputs":[{"name":"","type":"bool","internalType":"bool"}],"stateMutability":"view"},{"type":"function","name":"created","inputs":[{"name":"_to","type":"address","internalType":"address"},{"name":"_value","type":"uint256","internalType":"uint256"}],"outputs":[],"stateMutability":"nonpayable"},{"type":"function","name":"destroyed","inputs":[{"name":"_from","type":"address","internalType":"address"},{"name":"_value","type":"uint256","internalType":"uint256"}],"outputs":[],"stateMutability":"nonpayable"},{"type":"function","name":"isAgent","inputs":[{"name":"_agent","type":"address","internalType":"address"}],"outputs":[{"name":"","type":"bool","internalType":"bool"}],"stateMutability":"view"},{"type":"function","name":"isTokenAgent","inputs":[{"name":"_agentAddress","type":"address","internalType":"address"}],"outputs":[{"name":"","type":"bool","internalType":"bool"}],"stateMutability":"view"},{"type":"function","name":"isTokenBound","inputs":[{"name":"_token","type":"address","internalType":"address"}],"outputs":[{"name":"","type":"bool","internalType":"bool"}],"stateMutability":"view"},{"type":"function","name":"maxBalance","inputs":[],"outputs":[{"name":"","type":"uint256","internalType":"uint256"}],"stateMutability":"view"},{"type":"function","name":"owner","inputs":[],"outputs":[{"name":"","type":"address","internalType":"address"}],"stateMutability":"view"},{"type":"function","name":"removeAgent","inputs":[{"name":"_agent","type":"address","internalType":"address"}],"outputs":[],"stateMutability":"nonpayable"},{"type":"function","name":"removeTokenAgent","inputs":[{"name":"_agentAddress","type":"address","internalType":"address"}],"outputs":[],"stateMutability":"nonpayable"},{"type":"function","name":"renounceOwnership","inputs":[],"outputs":[],"stateMutability":"nonpayable"},{"type":"function","name":"setMaxBalance","inputs":[{"name":"_max","type":"uint256","internalType":"uint256"}],"outputs":[],"stateMutability":"nonpayable"},{"type":"function","name":"tokenBound","inputs":[],"outputs":[{"name":"","type":"address","internalType":"contract IToken"}],"stateMutability":"view"},{"type":"function","name":"transferOwnership","inputs":[{"name":"newOwner","type":"address","internalType":"address"}],"outputs":[],"stateMutability":"nonpayable"},{"type":"function","name":"transferred","inputs":[{"name":"_from","type":"address","internalType":"address"},{"name":"_to","type":"address","internalType":"address"},{"name":"_value","type":"uint256","internalType":"uint256"}],"outputs":[],"stateMutability":"nonpayable"},{"type":"function","name":"unbindToken","inputs":[{"name":"_token","type":"address","internalType":"address"}],"outputs":[],"stateMutability":"nonpayable"},{"type":"event","name":"AgentAdded","inputs":[{"name":"_agent","type":"address","indexed":true,"internalType":"address"}],"anonymous":false},{"type":"event","name":"AgentRemoved","inputs":[{"name":"_agent","type":"address","indexed":true,"internalType":"address"}],"anonymous":false},{"type":"event","name":"MaxBalanceSet","inputs":[{"name":"_maxBalance","type":"uint256","indexed":false,"internalType":"uint256"}],"anonymous":false},{"type":"event","name":"OwnershipTransferred","inputs":[{"name":"previousOwner","type":"address","indexed":true,"internalType":"address"},{"name":"newOwner","type":"address","indexed":true,"internalType":"address"}],"anonymous":false},{"type":"event","name":"TokenAgentAdded","inputs":[{"name":"_agentAddress","type":"address","indexed":false,"internalType":"address"}],"anonymous":false},{"type":"event","name":"TokenAgentRemoved","inputs":[{"name":"_agentAddress","type":"address","indexed":false,"internalType":"address"}],"anonymous":false},{"type":"event","name":"TokenBound","inputs":[{"name":"_token","type":"address","indexed":false,"internalType":"address"}],"anonymous":false},{"type":"event","name":"TokenUnbound","inputs":[{"name":"_token","type":"address","indexed":false,"internalType":"address"}],"anonymous":false},{"type":"error","name":"OwnableInvalidOwner","inputs":[{"name":"owner","type":"address","internalType":"address"}]},{"type":"error","name":"OwnableUnauthorizedAccount","inputs":[{"name":"account","type":"address","internalType":"address"}]}],"bytecode":{"object":"0x608060405234801561001057600080fd5b50338061003757604051631e4fbdf760e01b81526000600482015260240160405180910390fd5b61004081610046565b50610096565b600080546001600160a01b038381166001600160a01b0319831681178455604051919092169283917f8be0079c531659141344cd1fd0a4f28419497f9722a3daafe3b4186f6b6457e09190a35050565b6110e1806100a56000396000f3fe608060405234801561001057600080fd5b50600436106101375760003560e01c80638d2ea772116100b85780639d51d9b71161007c5780639d51d9b71461027b578063cdde29321461028e578063e46638e6146102a1578063f2fde38b146102b4578063ff3e6954146102c7578063ff548267146102da57600080fd5b80638d2ea7721461020a5780638da5cb5b1461021d57806393e62f071461024257806397a6278e14610255578063993e8b951461026857600080fd5b8063715018a6116100ff578063715018a6146101b257806373ad468a146101ba57806384d1fc40146101d157806384e79842146101e45780638baf29b4146101f757600080fd5b80631ffbb0641461013c578063346531fa146101645780633ff5aa021461017757806340db3b501461018c5780635f8dead31461019f575b600080fd5b61014f61014a366004610f23565b6102fa565b60405190151581526020015b60405180910390f35b61014f610172366004610f23565b61030d565b61018a610185366004610f23565b6103b6565b005b61018a61019a366004610f23565b6104a0565b61018a6101ad366004610f40565b6105c2565b61018a6105f4565b6101c360045481565b60405190815260200161015b565b61014f6101df366004610f6c565b610608565b61018a6101f2366004610f23565b61066f565b61018a610205366004610f6c565b61070f565b61018a610218366004610f40565b610743565b6000546001600160a01b03165b6040516001600160a01b03909116815260200161015b565b60035461022a906001600160a01b031681565b61018a610263366004610f23565b610771565b61014f610276366004610f23565b610811565b61018a610289366004610fad565b610831565b61018a61029c366004610f23565b61086e565b61014f6102af366004610f6c565b61092f565b61018a6102c2366004610f23565b610952565b61018a6102d5366004610f23565b610990565b6101c36102e8366004610f23565b60056020526000908152604090205481565b6000610307600183610a55565b92915050565b6001600160a01b03811660009081526002602052604081205460ff161580156103a157506003546040516307feec1960e21b81526001600160a01b03848116600483015290911690631ffbb06490602401602060405180830381865afa15801561037b573d6000803e3d6000fd5b505050506040513d601f19601f8201168201806040525081019061039f9190610fc6565b155b156103ae57506000919050565b506001919050565b336103c96000546001600160a01b031690565b6001600160a01b031614806103fa57506003546001600160a01b03161580156103fa5750336001600160a01b038216145b61044b5760405162461bcd60e51b815260206004820152601c60248201527f6f6e6c79206f776e6572206f7220746f6b656e2063616e2063616c6c0000000060448201526064015b60405180910390fd5b600380546001600160a01b0319166001600160a01b0383169081179091556040519081527f2de35142b19ed5a07796cf30791959c592018f70b1d2d7c460eef8ffe713692b906020015b60405180910390a150565b336104b36000546001600160a01b031690565b6001600160a01b031614806104d05750336001600160a01b038216145b61051c5760405162461bcd60e51b815260206004820152601c60248201527f6f6e6c79206f776e6572206f7220746f6b656e2063616e2063616c6c000000006044820152606401610442565b6003546001600160a01b038281169116146105795760405162461bcd60e51b815260206004820152601760248201527f5468697320746f6b656e206973206e6f7420626f756e640000000000000000006044820152606401610442565b600380546001600160a01b03191690556040516001600160a01b03821681527f28a4ca7134a3b3f9aff286e79ad3daadb4a06d1b43d037a3a98bdc074edd9b7a90602001610495565b6105ca610ad8565b6105e65760405162461bcd60e51b815260040161044290610fe8565b6105f08282610ae8565b5050565b6105fc610b8f565b6106066000610bbc565b565b600060045482111561061c57506000610668565b600061062784610c0c565b6004546001600160a01b03821660009081526005602052604090205491925090610652908590611068565b1115610662576000915050610668565b60019150505b9392505050565b610677610b8f565b6001600160a01b0381166106cd5760405162461bcd60e51b815260206004820152601f60248201527f696e76616c696420617267756d656e74202d207a65726f2061646472657373006044820152606401610442565b6106d8600182610ce6565b6040516001600160a01b038216907ff68e73cec97f2d70aa641fb26e87a4383686e2efacb648f2165aeb02ac562ec590600090a250565b610717610ad8565b6107335760405162461bcd60e51b815260040161044290610fe8565b61073e838383610d62565b505050565b61074b610ad8565b6107675760405162461bcd60e51b815260040161044290610fe8565b6105f08282610e4a565b610779610b8f565b6001600160a01b0381166107cf5760405162461bcd60e51b815260206004820152601f60248201527f696e76616c696420617267756d656e74202d207a65726f2061646472657373006044820152606401610442565b6107da600182610e8c565b6040516001600160a01b038216907fed9c8ad8d5a0a66898ea49d2956929c93ae2e8bd50281b2ed897c5d1a6737e0b90600090a250565b6003546000906001600160a01b038381169116146103ae57506000919050565b610839610b8f565b60048190556040518181527f82f9980487703d8db41f1ba63b2665566f7fb449fbc840a9e0c6ca932bed582c90602001610495565b610876610b8f565b6001600160a01b03811660009081526002602052604090205460ff166108de5760405162461bcd60e51b815260206004820181905260248201527f54686973204167656e74206973206e6f742072656769737465726564207965746044820152606401610442565b6001600160a01b038116600081815260026020908152604091829020805460ff1916905590519182527f6a659bb87bb23efbdc295f8eed8ae8c4379bfb77660ced2ef0f3d7d26b05c6a69101610495565b600061093c848484610608565b61094857506000610668565b5060019392505050565b61095a610b8f565b6001600160a01b03811661098457604051631e4fbdf760e01b815260006004820152602401610442565b61098d81610bbc565b50565b610998610b8f565b6001600160a01b03811660009081526002602052604090205460ff1615610a015760405162461bcd60e51b815260206004820181905260248201527f54686973204167656e7420697320616c726561647920726567697374657265646044820152606401610442565b6001600160a01b038116600081815260026020908152604091829020805460ff1916600117905590519182527fd62c45e13ac30396aceb3ad37c89bd1ba9048032fe61679000e92eb93dbfd67d9101610495565b60006001600160a01b038216610ab85760405162461bcd60e51b815260206004820152602260248201527f526f6c65733a206163636f756e7420697320746865207a65726f206164647265604482015261737360f01b6064820152608401610442565b506001600160a01b03166000908152602091909152604090205460ff1690565b6000610ae333610811565b905090565b6000610af383610c0c565b6001600160a01b038116600090815260056020526040812080549293508492909190610b20908490611068565b90915550506004546001600160a01b038216600090815260056020526040902054111561073e5760405162461bcd60e51b815260206004820152601d60248201527f706f73742d6d696e74696e672062616c616e636520746f6f20686967680000006044820152606401610442565b6000546001600160a01b031633146106065760405163118cdaa760e01b8152336004820152602401610442565b600080546001600160a01b038381166001600160a01b0319831681178455604051919092169283917f8be0079c531659141344cd1fd0a4f28419497f9722a3daafe3b4186f6b6457e09190a35050565b600354604080516304d3863d60e21b815290516000926001600160a01b03169163134e18f49160048083019260209291908290030181865afa158015610c56573d6000803e3d6000fd5b505050506040513d601f19601f82011682018060405250810190610c7a919061107b565b604051633c3ad79560e21b81526001600160a01b038481166004830152919091169063f0eb5e5490602401602060405180830381865afa158015610cc2573d6000803e3d6000fd5b505050506040513d601f19601f82011682018060405250810190610307919061107b565b610cf08282610a55565b15610d3d5760405162461bcd60e51b815260206004820152601f60248201527f526f6c65733a206163636f756e7420616c72656164792068617320726f6c65006044820152606401610442565b6001600160a01b0316600090815260209190915260409020805460ff19166001179055565b6000610d6d84610c0c565b90506000610d7a84610c0c565b6001600160a01b038116600090815260056020526040812080549293508592909190610da7908490611068565b90915550506001600160a01b03821660009081526005602052604081208054859290610dd4908490611098565b90915550506004546001600160a01b0382166000908152600560205260409020541115610e435760405162461bcd60e51b815260206004820152601e60248201527f706f73742d7472616e736665722062616c616e636520746f6f206869676800006044820152606401610442565b5050505050565b6000610e5583610c0c565b6001600160a01b038116600090815260056020526040812080549293508492909190610e82908490611098565b9091555050505050565b610e968282610a55565b610eec5760405162461bcd60e51b815260206004820152602160248201527f526f6c65733a206163636f756e7420646f6573206e6f74206861766520726f6c6044820152606560f81b6064820152608401610442565b6001600160a01b0316600090815260209190915260409020805460ff19169055565b6001600160a01b038116811461098d57600080fd5b600060208284031215610f3557600080fd5b813561066881610f0e565b60008060408385031215610f5357600080fd5b8235610f5e81610f0e565b946020939093013593505050565b600080600060608486031215610f8157600080fd5b8335610f8c81610f0e565b92506020840135610f9c81610f0e565b929592945050506040919091013590565b600060208284031215610fbf57600080fd5b5035919050565b600060208284031215610fd857600080fd5b8151801515811461066857600080fd5b60208082526044908201527f6572726f72203a20746869732061646472657373206973206e6f74206120746f60408201527f6b656e20626f756e6420746f2074686520636f6d706c69616e636520636f6e746060820152631c9858dd60e21b608082015260a00190565b634e487b7160e01b600052601160045260246000fd5b8082018082111561030757610307611052565b60006020828403121561108d57600080fd5b815161066881610f0e565b818103818111156103075761030761105256fea2646970667358221220a57070471026ef6e58688c1dac75a3100a0b3a268df2f79525c6f6cf1b786e8e64736f6c63430008180033","linkReferences":{}},"methodIdentifiers":{"IDBalance(address)":"ff548267","addAgent(address)":"84e79842","addTokenAgent(address)":"ff3e6954","bindToken(address)":"3ff5aa02","canTransfer(address,address,uint256)":"e46638e6","complianceCheckOnMaxBalance(address,address,uint256)":"84d1fc40","created(address,uint256)":"5f8dead3","destroyed(address,uint256)":"8d2ea772","isAgent(address)":"1ffbb064","isTokenAgent(address)":"346531fa","isTokenBound(address)":"993e8b95","maxBalance()":"73ad468a","owner()":"8da5cb5b","removeAgent(address)":"97a6278e","removeTokenAgent(address)":"cdde2932","renounceOwnership()":"715018a6","setMaxBalance(uint256)":"9d51d9b7","tokenBound()":"93e62f07","transferOwnership(address)":"f2fde38b","transferred(address,address,uint256)":"8baf29b4","unbindToken(address)":"40db3b50"},"id":39}