{"abi":[{"type":"constructor","inputs":[],"stateMutability":"nonpayable"},{"type":"function","name":"availableVaults","inputs":[{"name":"vault","type":"address","internalType":"address"}],"outputs":[{"name":"","type":"bool","internalType":"bool"}],"stateMutability":"view"},{"type":"function","name":"deployVault","inputs":[{"name":"salt","type":"string","internalType":"string"},{"name":"vaultDetails","type":"tuple","internalType":"struct IVaultFactory.VaultDetails","components":[{"name":"stakingToken","type":"address","internalType":"address"},{"name":"shareTokenName","type":"string","internalType":"string"},{"name":"shareTokenSymbol","type":"string","internalType":"string"},{"name":"vaultRewardController","type":"address","internalType":"address"},{"name":"feeConfigController","type":"address","internalType":"address"}]},{"name":"feeConfig","type":"tuple","internalType":"struct FeeConfiguration.FeeConfig","components":[{"name":"receiver","type":"address","internalType":"address"},{"name":"token","type":"address","internalType":"address"},{"name":"feePercentage","type":"uint256","internalType":"uint256"}]}],"outputs":[{"name":"vault","type":"address","internalType":"address"}],"stateMutability":"payable"},{"type":"function","name":"isVaultAvailable","inputs":[{"name":"vault","type":"address","internalType":"address"}],"outputs":[{"name":"","type":"bool","internalType":"bool"}],"stateMutability":"view"},{"type":"function","name":"owner","inputs":[],"outputs":[{"name":"","type":"address","internalType":"address"}],"stateMutability":"view"},{"type":"function","name":"renounceOwnership","inputs":[],"outputs":[],"stateMutability":"nonpayable"},{"type":"function","name":"supportsInterface","inputs":[{"name":"interfaceId","type":"bytes4","internalType":"bytes4"}],"outputs":[{"name":"","type":"bool","internalType":"bool"}],"stateMutability":"view"},{"type":"function","name":"transferOwnership","inputs":[{"name":"newOwner","type":"address","internalType":"address"}],"outputs":[],"stateMutability":"nonpayable"},{"type":"function","name":"vaultDeployed","inputs":[{"name":"","type":"string","internalType":"string"}],"outputs":[{"name":"","type":"address","internalType":"address"}],"stateMutability":"view"},{"type":"event","name":"OwnershipTransferred","inputs":[{"name":"previousOwner","type":"address","indexed":true,"internalType":"address"},{"name":"newOwner","type":"address","indexed":true,"internalType":"address"}],"anonymous":false},{"type":"event","name":"VaultDeployed","inputs":[{"name":"vault","type":"address","indexed":true,"internalType":"address"},{"name":"name","type":"string","indexed":false,"internalType":"string"},{"name":"symbol","type":"string","indexed":false,"internalType":"string"}],"anonymous":false},{"type":"error","name":"OwnableInvalidOwner","inputs":[{"name":"owner","type":"address","internalType":"address"}]},{"type":"error","name":"OwnableUnauthorizedAccount","inputs":[{"name":"account","type":"address","internalType":"address"}]}],"bytecode":{"object":"0x608060405234801561001057600080fd5b50338061003757604051631e4fbdf760e01b81526000600482015260240160405180910390fd5b61004081610046565b50610096565b600080546001600160a01b038381166001600160a01b0319831681178455604051919092169283917f8be0079c531659141344cd1fd0a4f28419497f9722a3daafe3b4186f6b6457e09190a35050565b616bd5806100a56000396000f3fe608060405260043610620000855760003560e01c80638da5cb5b11620000545780638da5cb5b1462000142578063f26eb0fd1462000162578063f2fde38b146200019f578063fe738c8314620001c457600080fd5b806301ffc9a7146200008a5780630f98d41114620000c4578063715018a614620000f85780637bac419d1462000112575b600080fd5b3480156200009757600080fd5b50620000af620000a93660046200074e565b62000209565b60405190151581526020015b60405180910390f35b348015620000d157600080fd5b50620000af620000e336600462000781565b60016020526000908152604090205460ff1681565b3480156200010557600080fd5b506200011062000241565b005b6200012962000123366004620007c5565b62000259565b6040516001600160a01b039091168152602001620000bb565b3480156200014f57600080fd5b506000546001600160a01b031662000129565b3480156200016f57600080fd5b50620000af6200018136600462000781565b6001600160a01b031660009081526001602052604090205460ff1690565b348015620001ac57600080fd5b5062000110620001be36600462000781565b62000514565b348015620001d157600080fd5b5062000129620001e33660046200088f565b80516020818301810180516002825292820191909301209152546001600160a01b031681565b60006001600160e01b0319821663044e178b60e51b14806200023b57506301ffc9a760e01b6001600160e01b03198316145b92915050565b6200024b62000558565b62000257600062000587565b565b6000806001600160a01b031660028686604051620002799291906200094a565b908152604051908190036020019020546001600160a01b031614620002de5760405162461bcd60e51b815260206004820152601660248201527515985d5b1d08185b1c9958591e4819195c1b1bde595960521b60448201526064015b60405180910390fd5b6000620002ef602085018562000781565b6001600160a01b0316036200033f5760405162461bcd60e51b815260206004820152601560248201527424b73b30b634b21039ba30b5b4b733903a37b5b2b760591b6044820152606401620002d5565b600062000353608085016060860162000781565b6001600160a01b031603620003b55760405162461bcd60e51b815260206004820152602160248201527f496e76616c69642072657761726420636f6e74726f6c6c6572206164647265736044820152607360f81b6064820152608401620002d5565b6000620003c960a085016080860162000781565b6001600160a01b031603620004215760405162461bcd60e51b815260206004820152601e60248201527f496e76616c69642066656520636f6e74726f6c6c6572206164647265737300006044820152606401620002d5565b6200042f85858585620005d7565b6001600160a01b038116600081815260016020819052604091829020805460ff191690911790555163f2fde38b60e01b81523360048201529192509063f2fde38b90602401600060405180830381600087803b1580156200048f57600080fd5b505af1158015620004a4573d6000803e3d6000fd5b5050506001600160a01b03821690507fd2cdcadeca6ad2e3691c1a25b1067ee469fb437fd70f08d97d607e652c1146d0620004e360208601866200095a565b620004f260408801886200095a565b604051620005049493929190620009d4565b60405180910390a2949350505050565b6200051e62000558565b6001600160a01b0381166200054a57604051631e4fbdf760e01b815260006004820152602401620002d5565b620005558162000587565b50565b6000546001600160a01b03163314620002575760405163118cdaa760e01b8152336004820152602401620002d5565b600080546001600160a01b038381166001600160a01b0319831681178455604051919092169283917f8be0079c531659141344cd1fd0a4f28419497f9722a3daafe3b4186f6b6457e09190a35050565b60008060405180602001620005ec9062000740565b601f1982820381018352601f909101166040529050600062000612602086018662000781565b6200062160208701876200095a565b6200063060408901896200095a565b6200063f60208a018a62000781565b6200065160408b0160208c0162000781565b60408b01356200066860808e0160608f0162000781565b8d60800160208101906200067d919062000781565b604051602001620006989a9998979695949392919062000a0a565b604051602081830303815290604052905060008282604051602001620006c092919062000ab0565b6040516020818303038152906040529050620006de888883620006ea565b98975050505050505050565b6000808484604051602001620007029291906200094a565b604051602081830303815290604052805190602001209050600083602001845183818334f592505050803b6200073757600080fd5b95945050505050565b6160ce8062000ad283390190565b6000602082840312156200076157600080fd5b81356001600160e01b0319811681146200077a57600080fd5b9392505050565b6000602082840312156200079457600080fd5b81356001600160a01b03811681146200077a57600080fd5b600060608284031215620007bf57600080fd5b50919050565b60008060008060a08587031215620007dc57600080fd5b843567ffffffffffffffff80821115620007f557600080fd5b818701915087601f8301126200080a57600080fd5b8135818111156200081a57600080fd5b8860208285010111156200082d57600080fd5b6020928301965094509086013590808211156200084957600080fd5b50850160a081880312156200085d57600080fd5b91506200086e8660408701620007ac565b905092959194509250565b634e487b7160e01b600052604160045260246000fd5b600060208284031215620008a257600080fd5b813567ffffffffffffffff80821115620008bb57600080fd5b818401915084601f830112620008d057600080fd5b813581811115620008e557620008e562000879565b604051601f8201601f19908116603f0116810190838211818310171562000910576200091062000879565b816040528281528760208487010111156200092a57600080fd5b826020860160208301376000928101602001929092525095945050505050565b8183823760009101908152919050565b6000808335601e198436030181126200097257600080fd5b83018035915067ffffffffffffffff8211156200098e57600080fd5b602001915036819003821315620009a457600080fd5b9250929050565b81835281816020850137506000828201602090810191909152601f909101601f19169091010190565b604081526000620009ea604083018688620009ab565b8281036020840152620009ff818587620009ab565b979650505050505050565b6001600160a01b038b811682526101006020830181905260009162000a338483018d8f620009ab565b9150838203604085015262000a4a828b8d620009ab565b98811660608501529687166080840152505060a081019390935290831660c083015290911660e09091015295945050505050565b6000815160005b8181101562000aa1576020818501810151868301520162000a85565b50600093019283525090919050565b600062000ac962000ac2838662000a7e565b8462000a7e565b94935050505056fe610100604052604051620060ce380380620060ce833981016040819052620000279162001185565b338a8a8d6001600160a01b031663313ce5676040518163ffffffff1660e01b8152600401602060405180830381865afa15801562000069573d6000803e3d6000fd5b505050506040513d601f19601f820116820180604052508101906200008f9190620012fa565b60006200009d8482620013b7565b506001620000ac8382620013b7565b5060ff81166080524660a052620000c2620001b2565b60c0525050506001600160a01b038116620000f857604051631e4fbdf760e01b8152600060048201526024015b60405180910390fd5b62000103816200024e565b50600160115562000116888888620002a0565b62000125858585858562000326565b6001600160a01b038b1660e05260148054604080516020808402820181019092528281529291908301828280156200018757602002820191906000526020600020905b81546001600160a01b0316815260019091019060200180831162000168575b50505050509250620001a18a8a8d620005b260201b60201c565b505050505050505050505062001a1d565b60007f8b73c3c69bb8fe3d512ecc4cf759cc79239f7b179b0ffacaa9a75d522b39400f6000604051620001e6919062001483565b6040805191829003822060208301939093528101919091527fc89efdaa54c0f20c7adf612882df0950f5a951637e0307cdcb4c672f298b8bc660608201524660808201523060a082015260c00160405160208183030381529060405280519060200120905090565b601080546001600160a01b038381166001600160a01b0319831681179093556040519116919082907f8be0079c531659141344cd1fd0a4f28419497f9722a3daafe3b4186f6b6457e090600090a35050565b825160208401516040850151620002b992919062000855565b620002c660003362000915565b50620002f37f477fc23fb51bb5d5aa814872a393b0e4f35d0916c7503c0fd96584681070d4108362000915565b50620003207f74e458455daa935f28c556b43e0cc4ad001a8a090f5feee376681e97d4618f468262000915565b50505050565b600e80546001600160a01b038087166001600160a01b03199283168117909355600f80549189169190921617905560408051631a0fcb6560e31b815290516000929163d07e5b289160048083019260209291908290030181865afa15801562000393573d6000803e3d6000fd5b505050506040513d601f19601f82011682018060405250810190620003b9919062001501565b845190915060005b81811015620005a857848181518110620003df57620003df62001521565b6020026020010151600a600088848151811062000400576200040062001521565b60200260200101516001600160a01b03166001600160a01b031681526020019081526020016000208190555083818151811062000441576200044162001521565b6020026020010151600b600088848151811062000462576200046262001521565b60200260200101516001600160a01b03166001600160a01b03168152602001908152602001600020819055506040518060400160405280846001600160a01b03166001600160a01b03168152602001878381518110620004c657620004c662001521565b60200260200101516001600160a01b03166001600160a01b0316815250600c6000888481518110620004fc57620004fc62001521565b60200260200101516001600160a01b03166001600160a01b031681526020019081526020016000209060026200053492919062000e15565b50620005628682815181106200054e576200054e62001521565b6020026020010151620009c860201b60201c565b600d60008884815181106200057b576200057b62001521565b6020908102919091018101516001600160a01b0316825281019190915260400160002055600101620003c1565b5050505050505050565b620005be813062000b52565b6040805160a08082018352600080835260208084018290526060848601819052808501819052306080808701829052875195860188528486528584018590528588018390528583018390528501528551600280825291810190965260109560019594939290919082015b6200063262000e7f565b815260200190600190039081620006285790505090506040518060400160405280868152602001848152508160008151811062000673576200067362001521565b602002602001018190525060405180604001604052808581526020018381525081600181518110620006a957620006a962001521565b6020026020010181905250620006ee6040518060600160405280600063ffffffff16815260200160006001600160a01b03168152602001600063ffffffff1681525090565b306020820152627a120060408201526200076460408051610120810182526060808252602080830182905260008385018190528284018390526080840181905260a0840181905260c0840181905260e0840183905284519283018552808352908201819052928101929092529061010082015290565b89815260208082018a905230604080840191909152610100830184905260e08301859052805163313ce56760e01b81529051620008019284926000926001600160a01b038e169263313ce56792600480820193918290030181865afa158015620007d2573d6000803e3d6000fd5b505050506040513d601f19601f82011682018060405250810190620007f89190620012fa565b60ff1662000c81565b601280546001600160a01b0319166001600160a01b039290921691821790556040517f7bb17726df1f3adee8aa00ba8e8bc5d6f182af3bbf77604639cb7f008dd3b4ed90600090a250505050505050505050565b61271081106200089a5760405162461bcd60e51b815260206004820152600f60248201526e46433a20496e76616c69642066656560881b6044820152606401620000ef565b600780546001600160a01b038581166001600160a01b0319928316811790935560088054918616919092168117909155600983905560408051928352602083019190915281018290527febd34b2df88ea5c9f67c04b13b08e5e63c2d17e269aab73b866fe47a8736a2649060600160405180910390a1505050565b60008281526006602090815260408083206001600160a01b038516845290915281205460ff16620009be5760008381526006602090815260408083206001600160a01b03861684529091529020805460ff19166001179055620009753390565b6001600160a01b0316826001600160a01b0316847f2f8788117e7eff1d82e926ec794901d17c78024a50270940304540a733656f0d60405160405180910390a4506001620009c2565b5060005b92915050565b600f546001600160a01b038281166000908152600b60205260408082205490516331d98b3f60e01b81529193849316916331d98b3f9162000a0f9160040190815260200190565b608060405180830381865afa15801562000a2d573d6000803e3d6000fd5b505050506040513d601f19601f8201168201806040525081019062000a5391906200154a565b90506000836001600160a01b031663313ce5676040518163ffffffff1660e01b8152600401602060405180830381865afa15801562000a96573d6000803e3d6000fd5b505050506040513d601f19601f8201168201806040525081019062000abc9190620012fa565b60ff1690506000826040015160001962000ad79190620015f6565b62000ae49060126200171d565b62000af18360126200172e565b845162000b0891906001600160401b03166200173c565b62000b14919062001756565b90508062000b248360126200172e565b62000b318460126200172e565b62000b3d91906200173c565b62000b49919062001756565b95945050505050565b604080516001600160a01b038381166024830152841660448083019190915282518083039091018152606490910182526020810180516001600160e01b031663248a35ef60e11b1790529051600091829182916101679162000bb5919062001779565b6000604051808303816000865af19150503d806000811462000bf4576040519150601f19603f3d011682016040523d82523d6000602084013e62000bf9565b606091505b50915091508162000c0c57601562000c22565b8080602001905181019062000c22919062001797565b9250600383900b60161462000c7a5760405162461bcd60e51b815260206004820152601f60248201527f536166652073696e676c65206173736f63696174696f6e206661696c656421006044820152606401620000ef565b5050505050565b61010083015151600090849063ffffffff1615801562000cae57506101008101516040015163ffffffff16155b1562000cc5576101008101516276a7006040909101525b60008060006101676001600160a01b031634637812a04b60e01b8a8a8a60405160240162000cf693929190620018b4565b60408051601f198184030181529181526020820180516001600160e01b03166001600160e01b031990941693909317909252905162000d36919062001779565b60006040518083038185875af1925050503d806000811462000d75576040519150601f19603f3d011682016040523d82523d6000602084013e62000d7a565b606091505b50915091508162000d8f576015600062000da5565b8080602001905181019062000da59190620019e1565b95509250600383900b60161462000e0a5760405162461bcd60e51b815260206004820152602260248201527f53616665206372656174652066756e6769626c6520746f6b656e206661696c65604482015261642160f01b6064820152608401620000ef565b505050509392505050565b82805482825590600052602060002090810192821562000e6d579160200282015b8281111562000e6d57825182546001600160a01b0319166001600160a01b0390911617825560209092019160019091019062000e36565b5062000e7b92915062000edd565b5090565b60405180604001604052806000815260200162000ed86040518060a0016040528060001515815260200160006001600160a01b03168152602001606081526020016060815260200160006001600160a01b031681525090565b905290565b5b8082111562000e7b576000815560010162000ede565b6001600160a01b038116811462000f0a57600080fd5b50565b805162000f1a8162000ef4565b919050565b634e487b7160e01b600052604160045260246000fd5b604051601f8201601f191681016001600160401b038111828210171562000f605762000f6062000f1f565b604052919050565b60005b8381101562000f8557818101518382015260200162000f6b565b50506000910152565b600082601f83011262000fa057600080fd5b81516001600160401b0381111562000fbc5762000fbc62000f1f565b62000fd1601f8201601f191660200162000f35565b81815284602083860101111562000fe757600080fd5b62000ffa82602083016020870162000f68565b949350505050565b6000606082840312156200101557600080fd5b604051606081016001600160401b03811182821017156200103a576200103a62000f1f565b806040525080915082516200104f8162000ef4565b81526020830151620010618162000ef4565b6020820152604092830151920191909152919050565b60006001600160401b0382111562001093576200109362000f1f565b5060051b60200190565b600082601f830112620010af57600080fd5b81516020620010c8620010c28362001077565b62000f35565b8083825260208201915060208460051b870101935086841115620010eb57600080fd5b602086015b8481101562001114578051620011068162000ef4565b8352918301918301620010f0565b509695505050505050565b600082601f8301126200113157600080fd5b8151602062001144620010c28362001077565b8083825260208201915060208460051b8701019350868411156200116757600080fd5b602086015b848110156200111457805183529183019183016200116c565b60008060008060008060008060008060006101a08c8e031215620011a857600080fd5b620011b38c62000f0d565b60208d0151909b506001600160401b03811115620011d057600080fd5b620011de8e828f0162000f8e565b60408e0151909b5090506001600160401b03811115620011fd57600080fd5b6200120b8e828f0162000f8e565b9950506200121d8d60608e0162001002565b97506200122d60c08d0162000f0d565b96506200123d60e08d0162000f0d565b95506200124e6101008d0162000f0d565b94506200125f6101208d0162000f0d565b6101408d01519094506001600160401b038111156200127d57600080fd5b6200128b8e828f016200109d565b6101608e015190945090506001600160401b03811115620012ab57600080fd5b620012b98e828f016200111f565b6101808e015190935090506001600160401b03811115620012d957600080fd5b620012e78e828f016200111f565b9150509295989b509295989b9093969950565b6000602082840312156200130d57600080fd5b815160ff811681146200131f57600080fd5b9392505050565b600181811c908216806200133b57607f821691505b6020821081036200135c57634e487b7160e01b600052602260045260246000fd5b50919050565b601f821115620013b2576000816000526020600020601f850160051c810160208610156200138d5750805b601f850160051c820191505b81811015620013ae5782815560010162001399565b5050505b505050565b81516001600160401b03811115620013d357620013d362000f1f565b620013eb81620013e4845462001326565b8462001362565b602080601f8311600181146200142357600084156200140a5750858301515b600019600386901b1c1916600185901b178555620013ae565b600085815260208120601f198616915b82811015620014545788860151825594840194600190910190840162001433565b5085821015620014735787850151600019600388901b60f8161c191681555b5050505050600190811b01905550565b6000808354620014938162001326565b60018281168015620014ae5760018114620014c457620014f5565b60ff1984168752821515830287019450620014f5565b8760005260208060002060005b85811015620014ec5781548a820152908401908201620014d1565b50505082870194505b50929695505050505050565b6000602082840312156200151457600080fd5b81516200131f8162000ef4565b634e487b7160e01b600052603260045260246000fd5b8051600381900b811462000f1a57600080fd5b6000608082840312156200155d57600080fd5b604051608081016001600160401b03808211838310171562001583576200158362000f1f565b81604052845191508160070b82146200159b57600080fd5b9082526020840151908082168214620015b357600080fd5b506020820152620015c76040840162001537565b6040820152606083015160608201528091505092915050565b634e487b7160e01b600052601160045260246000fd5b60008260030b8260030b028060030b9150808214620016195762001619620015e0565b5092915050565b600181815b8085111562001661578160001904821115620016455762001645620015e0565b808516156200165357918102915b93841c939080029062001625565b509250929050565b6000826200167a57506001620009c2565b816200168957506000620009c2565b8160018114620016a25760028114620016ad57620016cd565b6001915050620009c2565b60ff841115620016c157620016c1620015e0565b50506001821b620009c2565b5060208310610133831016604e8410600b8410161715620016f2575081810a620009c2565b620016fe838362001620565b8060001904821115620017155762001715620015e0565b029392505050565b60006200131f60ff84168362001669565b60006200131f838362001669565b8082028115828204841417620009c257620009c2620015e0565b6000826200177457634e487b7160e01b600052601260045260246000fd5b500490565b600082516200178d81846020870162000f68565b9190910192915050565b600060208284031215620017aa57600080fd5b6200131f8262001537565b60008151808452620017cf81602086016020860162000f68565b601f01601f19169290920160200192915050565b600082825180855260208086019550808260051b84010181860160005b84811015620018a757858303601f1901895281518051845284015160408585018190528151151581860152818601516001600160a01b039081166060808801919091529183015160a060808089018290529193909290916200186660e08a0186620017b5565b92860151898403603f1901858b0152929450620018848584620017b5565b9501511660c0979097019690965250509884019892509083019060010162001800565b5090979650505050505050565b6060815260008451610160806060850152620018d56101c0850183620017b5565b91506020870151605f1980868503016080870152620018f58483620017b5565b9350604089015191506200191460a08701836001600160a01b03169052565b60608901519150808685030160c0870152620019318483620017b5565b9350608089015191506200194960e087018315159052565b60a08901519150610100620019658188018463ffffffff169052565b60c08a0151151561012088015260e08a015187860383016101408901529250620019908584620017e3565b9450808a015192505050620019cd82860182805163ffffffff90811683526020808301516001600160a01b03169084015260409182015116910152565b505060208301949094525060400152919050565b60008060408385031215620019f557600080fd5b62001a008362001537565b9150602083015162001a128162000ef4565b809150509250929050565b60805160a05160c05160e05161463f62001a8f6000396000818161072701528181610d1301528181610ede0152818161184301528181611bda01528181611d470152818161206b0152612406015260006111e8015260006111b801526000818161066a01526110aa015261463f6000f3fe6080604052600436106103b85760003560e01c806388a320fe116101f2578063c4f59f9b1161010d578063db8bb3a1116100a0578063efa6f4251161006f578063efa6f42514610c88578063f2fde38b14610ca8578063f52a346814610cc8578063f98d06f014610cdb57600080fd5b8063db8bb3a114610bf0578063dd62ed3e14610c10578063eb4e159314610c48578063ef8b30f714610c6857600080fd5b8063d505accf116100dc578063d505accf14610b4d578063d547741f14610b6d578063d905777e14610b8d578063db7a682814610bc357600080fd5b8063c4f59f9b14610abf578063c63d75b614610761578063cd9cdfda14610ae1578063ce96cb7714610b2d57600080fd5b8063a8d5fd6511610185578063b4f6d61311610154578063b4f6d61314610a2b578063b5be920d14610a5f578063ba08765214610a7f578063bea9db6d14610a9f57600080fd5b8063a8d5fd65146109ab578063a9059cbb146109cb578063b3d7f6b9146109eb578063b460af9414610a0b57600080fd5b806394bf804d116101c157806394bf804d1461094e57806395d89b411461096e5780639feb8f5014610983578063a217fddf1461099657600080fd5b806388a320fe146108da5780638da5cb5b146108fa5780638f12c2f41461091857806391d148541461092e57600080fd5b806335d16e17116102e25780635ab764ed11610275578063715018a611610244578063715018a6146108505780637a07bf3a146108655780637bb7bed11461088d5780637ecebe00146108ad57600080fd5b80635ab764ed146107c3578063695135ec146107e35780636e553f651461080357806370a082311461082357600080fd5b806338d52e0f116102b157806338d52e0f14610715578063402d267d14610761578063490a0af9146107835780634cdad506146107a357600080fd5b806335d16e171461069e578063362a3fad146106b35780633644e515146106e057806336568abe146106f557600080fd5b806318160ddd1161035a578063248a9ca311610329578063248a9ca3146105e65780632c62fa10146106165780632f2ff15d14610636578063313ce5671461065857600080fd5b806318160ddd146105325780631e5eb1d014610548578063204120bc1461059957806323b872dd146105c657600080fd5b806306fdde031161039657806306fdde0314610449578063095ea7b31461046b5780630a28a4771461048b57806316ad0672146104ab57600080fd5b806301e1d114146103bd57806301ffc9a7146103e557806305fb2a5114610415575b600080fd5b3480156103c957600080fd5b506103d2610cfb565b6040519081526020015b60405180910390f35b3480156103f157600080fd5b506104056104003660046138f2565b610d8b565b60405190151581526020016103dc565b34801561042157600080fd5b506103d27f74e458455daa935f28c556b43e0cc4ad001a8a090f5feee376681e97d4618f4681565b34801561045557600080fd5b5061045e610dc2565b6040516103dc919061396c565b34801561047757600080fd5b5061040561048636600461399b565b610e50565b34801561049757600080fd5b506103d26104a63660046139c5565b610ebc565b3480156104b757600080fd5b506104ff6104c63660046139de565b6015602052600090815260409020805460018201546003830154600484015460058501546006909501549394929360ff90921692909186565b604080519687526020870195909552921515938501939093526060840152608083019190915260a082015260c0016103dc565b34801561053e57600080fd5b506103d260025481565b34801561055457600080fd5b50600754600854600954610573926001600160a01b0390811692169083565b604080516001600160a01b039485168152939092166020840152908201526060016103dc565b3480156105a557600080fd5b506103d26105b43660046139de565b600d6020526000908152604090205481565b3480156105d257600080fd5b506104056105e13660046139f9565b610f73565b3480156105f257600080fd5b506103d26106013660046139c5565b60009081526006602052604090206001015490565b34801561062257600080fd5b506103d26106313660046139de565b611053565b34801561064257600080fd5b50610656610651366004613a35565b611075565b005b34801561066457600080fd5b5061068c7f000000000000000000000000000000000000000000000000000000000000000081565b60405160ff90911681526020016103dc565b3480156106aa57600080fd5b506103d26110a0565b3480156106bf57600080fd5b506106d36106ce3660046139de565b6110d0565b6040516103dc9190613a61565b3480156106ec57600080fd5b506103d26111b4565b34801561070157600080fd5b50610656610710366004613a35565b61120a565b34801561072157600080fd5b506107497f000000000000000000000000000000000000000000000000000000000000000081565b6040516001600160a01b0390911681526020016103dc565b34801561076d57600080fd5b506103d261077c3660046139de565b5060001990565b34801561078f57600080fd5b506106d361079e366004613b59565b611242565b3480156107af57600080fd5b506103d26107be3660046139c5565b611525565b3480156107cf57600080fd5b506103d26107de366004613c1b565b611547565b3480156107ef57600080fd5b506103d26107fe3660046139de565b61168c565b34801561080f57600080fd5b506103d261081e366004613a35565b6117fd565b34801561082f57600080fd5b506103d261083e3660046139de565b60036020526000908152604090205481565b34801561085c57600080fd5b50610656611939565b6108786108733660046139c5565b61194d565b604080519283526020830191909152016103dc565b34801561089957600080fd5b506107496108a83660046139c5565b611afc565b3480156108b957600080fd5b506103d26108c83660046139de565b60056020526000908152604090205481565b3480156108e657600080fd5b50600e54610749906001600160a01b031681565b34801561090657600080fd5b506010546001600160a01b0316610749565b34801561092457600080fd5b506103d260135481565b34801561093a57600080fd5b50610405610949366004613a35565b611b26565b34801561095a57600080fd5b506103d2610969366004613a35565b611b51565b34801561097a57600080fd5b5061045e611c0b565b61065661099136600461399b565b611c18565b3480156109a257600080fd5b506103d2600081565b3480156109b757600080fd5b50601254610749906001600160a01b031681565b3480156109d757600080fd5b506104056109e636600461399b565b611f6c565b3480156109f757600080fd5b506103d2610a063660046139c5565b611fd2565b348015610a1757600080fd5b506103d2610a26366004613c45565b611ff4565b348015610a3757600080fd5b506103d27f477fc23fb51bb5d5aa814872a393b0e4f35d0916c7503c0fd96584681070d41081565b348015610a6b57600080fd5b50610656610a7a366004613c81565b6120f2565b348015610a8b57600080fd5b506103d2610a9a366004613c45565b612331565b348015610aab57600080fd5b50610656610aba366004613c81565b612437565b348015610acb57600080fd5b50610ad46125d3565b6040516103dc9190613cc2565b348015610aed57600080fd5b50610b18610afc3660046139de565b6016602052600090815260409020805460019091015460ff1682565b604080519283529015156020830152016103dc565b348015610b3957600080fd5b506103d2610b483660046139de565b612635565b348015610b5957600080fd5b50610656610b68366004613d12565b612640565b348015610b7957600080fd5b50610656610b88366004613a35565b612884565b348015610b9957600080fd5b506103d2610ba83660046139de565b6001600160a01b031660009081526003602052604090205490565b348015610bcf57600080fd5b506103d2610bde3660046139de565b600b6020526000908152604090205481565b348015610bfc57600080fd5b50610749610c0b36600461399b565b6128a9565b348015610c1c57600080fd5b506103d2610c2b366004613c1b565b600460209081526000928352604080842090915290825290205481565b348015610c5457600080fd5b50610656610c6336600461399b565b6128e1565b348015610c7457600080fd5b506103d2610c833660046139c5565b61299c565b348015610c9457600080fd5b50610656610ca3366004613d7f565b6129bd565b348015610cb457600080fd5b50610656610cc33660046139de565b612a02565b610656610cd6366004613c81565b612a40565b348015610ce757600080fd5b50600f54610749906001600160a01b031681565b6040516370a0823160e01b81523060048201526000907f00000000000000000000000000000000000000000000000000000000000000006001600160a01b0316906370a0823190602401602060405180830381865afa158015610d62573d6000803e3d6000fd5b505050506040513d601f19601f82011682018060405250810190610d869190613de6565b905090565b60006001600160e01b03198216637965db0b60e01b1480610dbc57506301ffc9a760e01b6001600160e01b03198316145b92915050565b60008054610dcf90613dff565b80601f0160208091040260200160405190810160405280929190818152602001828054610dfb90613dff565b8015610e485780601f10610e1d57610100808354040283529160200191610e48565b820191906000526020600020905b815481529060010190602001808311610e2b57829003601f168201915b505050505081565b3360008181526004602090815260408083206001600160a01b038716808552925280832085905551919290917f8c5be1e5ebec7d5bd14f71427d1e84f3dd0314c0f7b2291e5b200ac8c7c3b92590610eab9086815260200190565b60405180910390a350600192915050565b6040516370a0823160e01b815230600482015260009081906001600160a01b037f000000000000000000000000000000000000000000000000000000000000000016906370a0823190602401602060405180830381865afa158015610f25573d6000803e3d6000fd5b505050506040513d601f19601f82011682018060405250810190610f499190613de6565b90508015610f6a57610f6581610f5d610cfb565b859190612b20565b610f6c565b825b9392505050565b6001600160a01b03831660009081526004602090815260408083203384529091528120546000198114610fcf57610faa8382613e4f565b6001600160a01b03861660009081526004602090815260408083203384529091529020555b6001600160a01b03851660009081526003602052604081208054859290610ff7908490613e4f565b90915550506001600160a01b03808516600081815260036020526040908190208054870190555190918716906000805160206145ea833981519152906110409087815260200190565b60405180910390a3506001949350505050565b6001600160a01b038116600090815260036020526040812054610dbc90611525565b60008281526006602052604090206001015461109081612b46565b61109a8383612b50565b50505050565b6000610d866107be7f0000000000000000000000000000000000000000000000000000000000000000600a613f46565b60606001600160a01b0382166111015760405162461bcd60e51b81526004016110f890613f55565b60405180910390fd5b6014546000906001600160401b0381111561111e5761111e613aa5565b604051908082528060200260200182016040528015611147578160200160208202803683370190505b50905060005b6014548110156111ad57611188846014838154811061116e5761116e613f96565b6000918252602090912001546001600160a01b0316611547565b82828151811061119a5761119a613f96565b602090810291909101015260010161114d565b5092915050565b60007f000000000000000000000000000000000000000000000000000000000000000046146111e557610d86612be4565b507f000000000000000000000000000000000000000000000000000000000000000090565b6001600160a01b03811633146112335760405163334bd91960e11b815260040160405180910390fd5b61123d8282612c7e565b505050565b825160609082146112a05760405162461bcd60e51b815260206004820152602260248201527f546f6b656e20707269636573206172726179206c656e677468206d69736d61746044820152610c6d60f31b60648201526084016110f8565b600080836001600160401b038111156112bb576112bb613aa5565b6040519080825280602002602001820160405280156112e4578160200160208202803683370190505b50905060005b848110156113f35785858281811061130457611304613f96565b905060200201602081019061131991906139de565b6040516370a0823160e01b81523060048201526001600160a01b0391909116906370a0823190602401602060405180830381865afa15801561135f573d6000803e3d6000fd5b505050506040513d601f19601f820116820180604052508101906113839190613de6565b82828151811061139557611395613f96565b6020026020010181815250508681815181106113b3576113b3613f96565b60200260200101518282815181106113cd576113cd613f96565b60200260200101516113df9190613fac565b6113e99084613fc3565b92506001016112ea565b506000846001600160401b0381111561140e5761140e613aa5565b604051908082528060200260200182016040528015611437578160200160208202803683370190505b50905060005b8581101561151a576000612710600a60008a8a8681811061146057611460613f96565b905060200201602081019061147591906139de565b6001600160a01b031681526020810191909152604001600020546114999087613fac565b6114a39190613fd6565b905060008983815181106114b9576114b9613f96565b6020026020010151826114cc9190613fd6565b90508483815181106114e0576114e0613f96565b6020026020010151816114f39190613e4f565b84848151811061150557611505613f96565b6020908102919091010152505060010161143d565b509695505050505050565b6002546000908015610f6a57610f6561153c610cfb565b600254859190612ceb565b60006001600160a01b03831661156f5760405162461bcd60e51b81526004016110f890613f55565b6001600160a01b0382166115d75760405162461bcd60e51b815260206004820152602960248201527f5661756c743a2052657761726420746f6b656e20616464726573732063616e2760448201526874206265207a65726f60b81b60648201526084016110f8565b6001600160a01b03808316600081815260166020908152604080832080549589168452601583528184208054958552600281019093529083205490949391926116208286613e4f565b9050600061163082600186612ceb565b90506000429050600061164d838860040154896005015485612d09565b50600954909a508a91501561167d57600061166d8b600760020154612d71565b9050611679818c613e4f565b9a50505b50505050505050505092915050565b600f546001600160a01b038281166000908152600b60205260408082205490516331d98b3f60e01b81529193849316916331d98b3f916116d29160040190815260200190565b608060405180830381865afa1580156116ef573d6000803e3d6000fd5b505050506040513d601f19601f820116820180604052508101906117139190614033565b90506000836001600160a01b031663313ce5676040518163ffffffff1660e01b8152600401602060405180830381865afa158015611755573d6000803e3d6000fd5b505050506040513d601f19601f8201168201806040525081019061177991906140ab565b60ff1690506000826040015160001961179291906140c8565b61179d906012613f46565b6117a88360126140e8565b84516117bd91906001600160401b0316613fac565b6117c79190613fd6565b9050806117d58360126140e8565b6117e08460126140e8565b6117ea9190613fac565b6117f49190613fd6565b95945050505050565b6000611807612df1565b6118108361299c565b90508060000361183657604051636e3699b760e11b8152600481018490526024016110f8565b61186b6001600160a01b037f000000000000000000000000000000000000000000000000000000000000000016333086612e1b565b826013600082825461187d9190613fc3565b9091555050601254604080516000808252602082019092526118c6926001600160a01b0316918691906118c0565b60608152602001906001900390816118ab5790505b50612ea5565b50506012546118e0906001600160a01b0316303386612fe8565b60408051848152602081018390526001600160a01b0384169133917fdcbc1c05240f31ff3ad067ef1ee35ce4997762752e3a095284754544f4c709d7910160405180910390a361192f83613118565b610dbc6001601155565b6119416132d1565b61194b60006132fe565b565b60145460085460009182916001600160a01b031642855b838110801561197c575061197987600a613fc3565b81105b15611aef576000806014838154811061199757611997613f96565b600091825260208083209091015433835260158252604080842080546001600160a01b03909316808652600290910184528185205460169094529320549293506119ee926001926119e791613e4f565b9190612ceb565b336000908152601560205260408120600481015460059091015492945090918291611a1c9186919089612d09565b33600090815260156020526040812060060180549395509193508492611a43908490613fc3565b90915550506001600160a01b03831660008181526016602090815260408083205433808552601580855283862096865260028701855292852091909155928390529052600690910154611a9a918591309190612fe8565b336000908152601560205260408120600601556001600160a01b03871615611ad85733600090815260156020526040902060060154611ad890613350565b505050508080611ae7906140f4565b915050611964565b5094959194509092505050565b60148181548110611b0c57600080fd5b6000918252602090912001546001600160a01b0316905081565b60009182526006602090815260408084206001600160a01b0393909316845291905290205460ff1690565b6000611b5b612df1565b611b7082611b6885611fd2565b925082613445565b8060136000828254611b829190613fc3565b909155505060408051828152602081018590526001600160a01b0384169133917fdcbc1c05240f31ff3ad067ef1ee35ce4997762752e3a095284754544f4c709d7910160405180910390a3611c026001600160a01b037f000000000000000000000000000000000000000000000000000000000000000016333084612e1b565b61192f81613118565b60018054610dcf90613dff565b7f477fc23fb51bb5d5aa814872a393b0e4f35d0916c7503c0fd96584681070d410611c4281612b46565b6001600160a01b038316611ca35760405162461bcd60e51b815260206004820152602260248201527f5661756c743a20546f6b656e20616464726573732063616e2774206265207a65604482015261726f60f01b60648201526084016110f8565b81600003611cf35760405162461bcd60e51b815260206004820152601b60248201527f5661756c743a20416d6f756e742063616e2774206265207a65726f000000000060448201526064016110f8565b601354600003611d455760405162461bcd60e51b815260206004820152601a60248201527f5661756c743a204e6f20746f6b656e207374616b65642079657400000000000060448201526064016110f8565b7f00000000000000000000000000000000000000000000000000000000000000006001600160a01b0316836001600160a01b031614158015611d9557506012546001600160a01b03848116911614155b611df95760405162461bcd60e51b815260206004820152602f60248201527f5661756c743a2052657761726420616e64205374616b696e6720746f6b656e7360448201526e2063616e6e6f742062652073616d6560881b60648201526084016110f8565b601454600a03611e1c57604051637561e0ab60e01b815260040160405180910390fd5b6000611e36600160135485612ceb9092919063ffffffff16565b6001600160a01b038516600090815260166020526040902060018101549192509060ff16611edf5760148054600180820183556000929092527fce6d7b5282bd9a3661ae061feed1dbda4e52ab073b1f9285be6e155d9c38d4ec0180546001600160a01b0319166001600160a01b038816179055818101805460ff19169091179055818155611ec5853061349f565b611eda6001600160a01b038616333087612e1b565b611f22565b6001600160a01b03851660009081526016602052604081208054849290611f07908490613fc3565b90915550611f2290506001600160a01b038616333087612e1b565b846001600160a01b03167fac24935fd910bc682b5ccb1a07b718cadf8cf2f6d1404c4f3ddc3662dae40e2985604051611f5d91815260200190565b60405180910390a25050505050565b33600090815260036020526040812080548391908390611f8d908490613e4f565b90915550506001600160a01b038316600081815260036020526040908190208054850190555133906000805160206145ea83398151915290610eab9086815260200190565b6002546000908015610f6a57610f65611fe9610cfb565b600254859190612b20565b6000611ffe612df1565b612007846135bd565b83601360008282546120199190613e4f565b9091555050601254612036906001600160a01b0316333087612fe8565b60125460408051600081526020810190915261205d916001600160a01b03169086906135f5565b506120926001600160a01b037f0000000000000000000000000000000000000000000000000000000000000000168486613721565b826001600160a01b0316826001600160a01b03167ff341246adaac6f497bc2a656f546ab9e182111d630394f0c57c710a59a2cb56786846040516120e0929190918252602082015260400190565b60405180910390a3610f6c6001601155565b60005b8181101561123d57600083838381811061211157612111613f96565b905060200201602081019061212691906139de565b6040516370a0823160e01b81523060048201529091506000906001600160a01b038316906370a0823190602401602060405180830381865afa158015612170573d6000803e3d6000fd5b505050506040513d601f19601f820116820180604052508101906121949190613de6565b6001600160a01b0383166000908152600d60205260408120549192506121ba8284613fac565b6001600160a01b0385166000908152600a602052604081205491925090612710906121e59084613fac565b6121ef9190613fd6565b905060006121fd8483613fd6565b90508085111561231f5760006122138287613e4f565b600e5460405163095ea7b360e01b81526001600160a01b0391821660048201526024810183905291925088169063095ea7b3906044016020604051808303816000875af1158015612268573d6000803e3d6000fd5b505050506040513d601f19601f8201168201806040525081019061228c919061410d565b50600e546001600160a01b038881166000908152600c602052604080822090516318cbafe560e01b815292909316926318cbafe5926122d5928692909130904290600401614179565b6000604051808303816000875af11580156122f4573d6000803e3d6000fd5b505050506040513d6000823e601f3d908101601f1916820160405261231c91908101906141b5565b50505b5050600190940193506120f592505050565b600061233b612df1565b61234484611525565b9050806000036123845760405162461bcd60e51b815260206004820152600b60248201526a5a45524f5f41535345545360a81b60448201526064016110f8565b61238d84611525565b90506123998285613799565b80601360008282546123ab9190613e4f565b909155505060408051828152602081018690526001600160a01b0380861692908516917ff341246adaac6f497bc2a656f546ab9e182111d630394f0c57c710a59a2cb567910160405180910390a361242d6001600160a01b037f0000000000000000000000000000000000000000000000000000000000000000168483613721565b610f6c6001601155565b80606060005b828110156124b657600d600086868481811061245b5761245b613f96565b905060200201602081019061247091906139de565b6001600160a01b03166001600160a01b03168152602001908152602001600020548282815181106124a3576124a3613f96565b602090810291909101015260010161243d565b5060006124c4828686611242565b90506124d085856120f2565b805160005b818110156125ca57600e5483516001600160a01b0390911690637ff36ab59085908490811061250657612506613f96565b6020026020010151600c60008b8b8781811061252457612524613f96565b905060200201602081019061253991906139de565b6001600160a01b03166001600160a01b0316815260200190815260200160002030426040518563ffffffff1660e01b815260040161257a9493929190614245565b6000604051808303816000875af1158015612599573d6000803e3d6000fd5b505050506040513d6000823e601f3d908101601f191682016040526125c191908101906141b5565b506001016124d5565b50505050505050565b6060601480548060200260200160405190810160405280929190818152602001828054801561262b57602002820191906000526020600020905b81546001600160a01b0316815260019091019060200180831161260d575b5050505050905090565b6000610dbc82611053565b428410156126905760405162461bcd60e51b815260206004820152601760248201527f5045524d49545f444541444c494e455f4558504952454400000000000000000060448201526064016110f8565b6000600161269c6111b4565b6001600160a01b038a811660008181526005602090815260409182902080546001810190915582517f6e71edae12b1b97f4d1f60370fef10105fa2faae0126114a169c64845d6126c98184015280840194909452938d166060840152608083018c905260a083019390935260c08083018b90528151808403909101815260e08301909152805192019190912061190160f01b6101008301526101028201929092526101228101919091526101420160408051601f198184030181528282528051602091820120600084529083018083525260ff871690820152606081018590526080810184905260a0016020604051602081039080840390855afa1580156127a8573d6000803e3d6000fd5b5050604051601f1901519150506001600160a01b038116158015906127de5750876001600160a01b0316816001600160a01b0316145b61281b5760405162461bcd60e51b815260206004820152600e60248201526d24a72b20a624a22fa9a4a3a722a960911b60448201526064016110f8565b6001600160a01b0390811660009081526004602090815260408083208a8516808552908352928190208990555188815291928a16917f8c5be1e5ebec7d5bd14f71427d1e84f3dd0314c0f7b2291e5b200ac8c7c3b925910160405180910390a350505050505050565b60008281526006602052604090206001015461289f81612b46565b61109a8383612c7e565b600c60205281600052604060002081815481106128c557600080fd5b6000918252602090912001546001600160a01b03169150829050565b61271081106129325760405162461bcd60e51b815260206004820152601760248201527f50657263656e746167652065786365656473203130302500000000000000000060448201526064016110f8565b6001600160a01b0382166129805760405162461bcd60e51b8152602060048201526015602482015274496e76616c696420746f6b656e206164647265737360581b60448201526064016110f8565b6001600160a01b039091166000908152600a6020526040902055565b6002546000908015610f6a57610f6560016129b5610cfb565b859190612ceb565b7f74e458455daa935f28c556b43e0cc4ad001a8a090f5feee376681e97d4618f466129e781612b46565b6129fe8260000151836020015184604001516137fb565b5050565b612a0a6132d1565b6001600160a01b038116612a3457604051631e4fbdf760e01b8152600060048201526024016110f8565b612a3d816132fe565b50565b600f5460405163d47eed4560e01b81526000916001600160a01b03169063d47eed4590612a7390869086906004016142a3565b602060405180830381865afa158015612a90573d6000803e3d6000fd5b505050506040513d601f19601f82011682018060405250810190612ab49190613de6565b600f54604051631df3cbc560e31b81529192506001600160a01b03169063ef9e5e28908390612ae990879087906004016142a3565b6000604051808303818588803b158015612b0257600080fd5b505af1158015612b16573d6000803e3d6000fd5b5050505050505050565b6000826000190484118302158202612b3757600080fd5b50910281810615159190040190565b612a3d81336138b9565b6000612b5c8383611b26565b612bdc5760008381526006602090815260408083206001600160a01b03861684529091529020805460ff19166001179055612b943390565b6001600160a01b0316826001600160a01b0316847f2f8788117e7eff1d82e926ec794901d17c78024a50270940304540a733656f0d60405160405180910390a4506001610dbc565b506000610dbc565b60007f8b73c3c69bb8fe3d512ecc4cf759cc79239f7b179b0ffacaa9a75d522b39400f6000604051612c16919061433e565b6040805191829003822060208301939093528101919091527fc89efdaa54c0f20c7adf612882df0950f5a951637e0307cdcb4c672f298b8bc660608201524660808201523060a082015260c00160405160208183030381529060405280519060200120905090565b6000612c8a8383611b26565b15612bdc5760008381526006602090815260408083206001600160a01b0386168085529252808320805460ff1916905551339286917ff6391f5c32d9c69d2a47ea670b442974b53935d1edc7fd64eb21e047a839171b9190a4506001610dbc565b6000826000190484118302158202612d0257600080fd5b5091020490565b600080848311612d1e57506000905084612d68565b838310612d3057508490506000612d68565b6000612d3c8685613e4f565b90506000612d4a8787613e4f565b9050612d57888383612ceb565b9350612d638489613e4f565b925050505b94509492505050565b6000612710612d808385613fac565b1015612dda5760405162461bcd60e51b8152602060048201526024808201527f46433a20546f6f20736d616c6c20616d6f756e7420746f20636f6e73696465726044820152632066656560e01b60648201526084016110f8565b612710612de78385613fac565b610f6c9190613fd6565b600260115403612e1457604051633ee5aeb560e01b815260040160405180910390fd5b6002601155565b60006040516323b872dd60e01b81528460048201528360248201528260448201526020600060648360008a5af13d15601f3d1160016000511416171691505080612e9e5760405162461bcd60e51b81526020600482015260146024820152731514905394d1915497d19493d357d1905253115160621b60448201526064016110f8565b5050505050565b6000606060008060006101676001600160a01b031663278e0b8860e01b898989604051602401612ed7939291906143df565b60408051601f198184030181529181526020820180516001600160e01b03166001600160e01b0319909416939093179092529051612f159190614463565b6000604051808303816000865af19150503d8060008114612f52576040519150601f19603f3d011682016040523d82523d6000602084013e612f57565b606091505b509150915081612f7a576040805160008082526020820190925260159190612f8e565b80806020019051810190612f8e919061447f565b90965094509250600383900b601614612fdd5760405162461bcd60e51b815260206004820152601160248201527053616665206d696e74206661696c65642160781b60448201526064016110f8565b505050935093915050565b604080516001600160a01b038681166024830152858116604483015284166064820152600783900b6084808301919091528251808303909101815260a490910182526020810180516001600160e01b031663eca3691760e01b1790529051600091829182916101679161305b9190614463565b6000604051808303816000865af19150503d8060008114613098576040519150601f19603f3d011682016040523d82523d6000602084013e61309d565b606091505b5091509150816130ae5760156130c2565b808060200190518101906130c29190614539565b9250600383900b6016146125ca5760405162461bcd60e51b815260206004820152601b60248201527f5361666520746f6b656e207472616e73666572206661696c656421000000000060448201526064016110f8565b3360009081526015602052604090206003015460ff166132715760145460005b818110156131fc5760006014828154811061315557613155613f96565b60009182526020808320909101546001600160a01b03168083526016825260408084205433855260158452818520838652600201845281852055805163053aa6f360e11b815290519194508493630a754de693600480840194919391929183900301908290875af11580156131ce573d6000803e3d6000fd5b505050506040513d601f19601f820116820180604052508101906131f29190613de6565b5050600101613138565b5033600090815260156020526040902082815560038101805460ff1916600190811790915542908201819055600490910181905561323d9062278d00613fc3565b3360009081526015602052604081206005019190915560138054849290613265908490613fc3565b90915550612a3d915050565b61327b600061194d565b5050336000908152601560205260408120805483929061329c908490613fc3565b909155505033600090815260156020526040812042600190910155601380548392906132c9908490613fc3565b909155505050565b6010546001600160a01b0316331461194b5760405163118cdaa760e01b81523360048201526024016110f8565b601080546001600160a01b038381166001600160a01b0319831681179093556040519116919082907f8be0079c531659141344cd1fd0a4f28419497f9722a3daafe3b4186f6b6457e090600090a35050565b6008546009546001600160a01b0390911690600090613370908490612d71565b6040516370a0823160e01b815233600482015290915081906001600160a01b038416906370a0823190602401602060405180830381865afa1580156133b9573d6000803e3d6000fd5b505050506040513d601f19601f820116820180604052508101906133dd9190613de6565b101561342b5760405162461bcd60e51b815260206004820152601e60248201527f46433a20496e73756666696369656e7420746f6b656e2062616c616e6365000060448201526064016110f8565b60075461123d90839033906001600160a01b031684612fe8565b80600260008282546134579190613fc3565b90915550506001600160a01b0382166000818152600360209081526040808320805486019055518481526000805160206145ea83398151915291015b60405180910390a35050565b604080516001600160a01b038381166024830152841660448083019190915282518083039091018152606490910182526020810180516001600160e01b031663248a35ef60e11b179052905160009182918291610167916135009190614463565b6000604051808303816000865af19150503d806000811461353d576040519150601f19603f3d011682016040523d82523d6000602084013e613542565b606091505b509150915081613553576015613567565b808060200190518101906135679190614539565b9250600383900b601614612e9e5760405162461bcd60e51b815260206004820152601f60248201527f536166652073696e676c65206173736f63696174696f6e206661696c6564210060448201526064016110f8565b33600090815260156020526040812080548392906135dc908490613e4f565b9250508190555080601360008282546132c99190613e4f565b6000806000806101676001600160a01b031663acb9cff960e01b88888860405160240161362493929190614554565b60408051601f198184030181529181526020820180516001600160e01b03166001600160e01b03199094169390931790925290516136629190614463565b6000604051808303816000865af19150503d806000811461369f576040519150601f19603f3d011682016040523d82523d6000602084013e6136a4565b606091505b5091509150816136b757601560006136cb565b808060200190518101906136cb91906145bf565b94509250600383900b6016146137175760405162461bcd60e51b815260206004820152601160248201527053616665206275726e206661696c65642160781b60448201526064016110f8565b5050509392505050565b600060405163a9059cbb60e01b8152836004820152826024820152602060006044836000895af13d15601f3d116001600051141617169150508061109a5760405162461bcd60e51b815260206004820152600f60248201526e1514905394d1915497d19052531151608a1b60448201526064016110f8565b6001600160a01b038216600090815260036020526040812080548392906137c1908490613e4f565b90915550506002805482900390556040518181526000906001600160a01b038416906000805160206145ea83398151915290602001613493565b612710811061383e5760405162461bcd60e51b815260206004820152600f60248201526e46433a20496e76616c69642066656560881b60448201526064016110f8565b600780546001600160a01b038581166001600160a01b0319928316811790935560088054918616919092168117909155600983905560408051928352602083019190915281018290527febd34b2df88ea5c9f67c04b13b08e5e63c2d17e269aab73b866fe47a8736a2649060600160405180910390a1505050565b6138c38282611b26565b6129fe5760405163e2517d3f60e01b81526001600160a01b0382166004820152602481018390526044016110f8565b60006020828403121561390457600080fd5b81356001600160e01b031981168114610f6c57600080fd5b60005b8381101561393757818101518382015260200161391f565b50506000910152565b6000815180845261395881602086016020860161391c565b601f01601f19169290920160200192915050565b602081526000610f6c6020830184613940565b80356001600160a01b038116811461399657600080fd5b919050565b600080604083850312156139ae57600080fd5b6139b78361397f565b946020939093013593505050565b6000602082840312156139d757600080fd5b5035919050565b6000602082840312156139f057600080fd5b610f6c8261397f565b600080600060608486031215613a0e57600080fd5b613a178461397f565b9250613a256020850161397f565b9150604084013590509250925092565b60008060408385031215613a4857600080fd5b82359150613a586020840161397f565b90509250929050565b6020808252825182820181905260009190848201906040850190845b81811015613a9957835183529284019291840191600101613a7d565b50909695505050505050565b634e487b7160e01b600052604160045260246000fd5b604051601f8201601f191681016001600160401b0381118282101715613ae357613ae3613aa5565b604052919050565b60006001600160401b03821115613b0457613b04613aa5565b5060051b60200190565b60008083601f840112613b2057600080fd5b5081356001600160401b03811115613b3757600080fd5b6020830191508360208260051b8501011115613b5257600080fd5b9250929050565b600080600060408486031215613b6e57600080fd5b83356001600160401b0380821115613b8557600080fd5b818601915086601f830112613b9957600080fd5b81356020613bae613ba983613aeb565b613abb565b82815260059290921b8401810191818101908a841115613bcd57600080fd5b948201945b83861015613beb57853582529482019490820190613bd2565b97505087013592505080821115613c0157600080fd5b50613c0e86828701613b0e565b9497909650939450505050565b60008060408385031215613c2e57600080fd5b613c378361397f565b9150613a586020840161397f565b600080600060608486031215613c5a57600080fd5b83359250613c6a6020850161397f565b9150613c786040850161397f565b90509250925092565b60008060208385031215613c9457600080fd5b82356001600160401b03811115613caa57600080fd5b613cb685828601613b0e565b90969095509350505050565b6020808252825182820181905260009190848201906040850190845b81811015613a995783516001600160a01b031683529284019291840191600101613cde565b60ff81168114612a3d57600080fd5b600080600080600080600060e0888a031215613d2d57600080fd5b613d368861397f565b9650613d446020890161397f565b955060408801359450606088013593506080880135613d6281613d03565b9699959850939692959460a0840135945060c09093013592915050565b600060608284031215613d9157600080fd5b604051606081018181106001600160401b0382111715613db357613db3613aa5565b604052613dbf8361397f565b8152613dcd6020840161397f565b6020820152604083013560408201528091505092915050565b600060208284031215613df857600080fd5b5051919050565b600181811c90821680613e1357607f821691505b602082108103613e3357634e487b7160e01b600052602260045260246000fd5b50919050565b634e487b7160e01b600052601160045260246000fd5b81810381811115610dbc57610dbc613e39565b600181815b80851115613e9d578160001904821115613e8357613e83613e39565b80851615613e9057918102915b93841c9390800290613e67565b509250929050565b600082613eb457506001610dbc565b81613ec157506000610dbc565b8160018114613ed75760028114613ee157613efd565b6001915050610dbc565b60ff841115613ef257613ef2613e39565b50506001821b610dbc565b5060208310610133831016604e8410600b8410161715613f20575081810a610dbc565b613f2a8383613e62565b8060001904821115613f3e57613f3e613e39565b029392505050565b6000610f6c60ff841683613ea5565b60208082526021908201527f5661756c743a205573657220616464726573732063616e2774206265207a65726040820152606f60f81b606082015260800190565b634e487b7160e01b600052603260045260246000fd5b8082028115828204841417610dbc57610dbc613e39565b80820180821115610dbc57610dbc613e39565b600082613ff357634e487b7160e01b600052601260045260246000fd5b500490565b8051600781900b811461399657600080fd5b80516001600160401b038116811461399657600080fd5b8051600381900b811461399657600080fd5b60006080828403121561404557600080fd5b604051608081018181106001600160401b038211171561406757614067613aa5565b60405261407383613ff8565b81526140816020840161400a565b602082015261409260408401614021565b6040820152606083015160608201528091505092915050565b6000602082840312156140bd57600080fd5b8151610f6c81613d03565b60008260030b8260030b028060030b91508082146111ad576111ad613e39565b6000610f6c8383613ea5565b60006001820161410657614106613e39565b5060010190565b60006020828403121561411f57600080fd5b81518015158114610f6c57600080fd5b600081548084526020808501945083600052602060002060005b8381101561416e5781546001600160a01b031687529582019560019182019101614149565b509495945050505050565b85815284602082015260a06040820152600061419860a083018661412f565b6001600160a01b0394909416606083015250608001529392505050565b600060208083850312156141c857600080fd5b82516001600160401b038111156141de57600080fd5b8301601f810185136141ef57600080fd5b80516141fd613ba982613aeb565b81815260059190911b8201830190838101908783111561421c57600080fd5b928401925b8284101561423a57835182529284019290840190614221565b979650505050505050565b84815260806020820152600061425e608083018661412f565b6001600160a01b03949094166040830152506060015292915050565b81835281816020850137506000828201602090810191909152601f909101601f19169091010190565b60208082528181018390526000906040600585901b8401810190840186845b8781101561433157868403603f190183528135368a9003601e190181126142e857600080fd5b890185810190356001600160401b0381111561430357600080fd5b80360382131561431257600080fd5b61431d86828461427a565b9550505091840191908401906001016142c2565b5091979650505050505050565b60008083548160018260011c9150600183168061435c57607f831692505b6020808410820361437b57634e487b7160e01b86526022600452602486fd5b81801561438f57600181146143a4576143d1565b60ff19861689528415158502890196506143d1565b60008a81526020902060005b868110156143c95781548b8201529085019083016143b0565b505084890196505b509498975050505050505050565b60006060820160018060a01b038616835260206001600160401b03861660208501526060604085015281855180845260808601915060808160051b87010193506020870160005b8281101561445457607f19888703018452614442868351613940565b95509284019290840190600101614426565b50939998505050505050505050565b6000825161447581846020870161391c565b9190910192915050565b60008060006060848603121561449457600080fd5b61449d84614021565b925060206144ac81860161400a565b925060408501516001600160401b038111156144c757600080fd5b8501601f810187136144d857600080fd5b80516144e6613ba982613aeb565b81815260059190911b8201830190838101908983111561450557600080fd5b928401925b8284101561452a5761451b84613ff8565b8252928401929084019061450a565b80955050505050509250925092565b60006020828403121561454b57600080fd5b610f6c82614021565b6001600160a01b03841681526001600160401b0383166020808301919091526060604083018190528351908301819052600091848101916080850190845b818110156145b157845160070b83529383019391830191600101614592565b509098975050505050505050565b600080604083850312156145d257600080fd5b6145db83614021565b9150613a586020840161400a56feddf252ad1be2c89b69c2b068fc378daa952ba7f163c4a11628f55a4df523b3efa264697066735822122025368c444359961ce7f805b37a03a62001beb48f4db5d2380638d791415e62ca64736f6c63430008180033a2646970667358221220123fbd7009adc054c2713a425c3fa24ae400edc91771654f684af502c2c7025b64736f6c63430008180033","linkReferences":{}},"methodIdentifiers":{"availableVaults(address)":"0f98d411","deployVault(string,(address,string,string,address,address),(address,address,uint256))":"7bac419d","isVaultAvailable(address)":"f26eb0fd","owner()":"8da5cb5b","renounceOwnership()":"715018a6","supportsInterface(bytes4)":"01ffc9a7","transferOwnership(address)":"f2fde38b","vaultDeployed(string)":"fe738c83"},"id":106}