{"abi":[{"type":"function","name":"addAgent","inputs":[{"name":"_agent","type":"address","internalType":"address"}],"outputs":[],"stateMutability":"nonpayable"},{"type":"function","name":"addExchangeID","inputs":[{"name":"_exchangeID","type":"address","internalType":"address"}],"outputs":[],"stateMutability":"nonpayable"},{"type":"function","name":"addTokenAgent","inputs":[{"name":"_agentAddress","type":"address","internalType":"address"}],"outputs":[],"stateMutability":"nonpayable"},{"type":"function","name":"bindToken","inputs":[{"name":"_token","type":"address","internalType":"address"}],"outputs":[],"stateMutability":"nonpayable"},{"type":"function","name":"canTransfer","inputs":[{"name":"_from","type":"address","internalType":"address"},{"name":"_to","type":"address","internalType":"address"},{"name":"_value","type":"uint256","internalType":"uint256"}],"outputs":[{"name":"","type":"bool","internalType":"bool"}],"stateMutability":"view"},{"type":"function","name":"complianceCheckOnExchangeMonthlyLimits","inputs":[{"name":"_from","type":"address","internalType":"address"},{"name":"_to","type":"address","internalType":"address"},{"name":"_value","type":"uint256","internalType":"uint256"}],"outputs":[{"name":"","type":"bool","internalType":"bool"}],"stateMutability":"view"},{"type":"function","name":"created","inputs":[{"name":"_to","type":"address","internalType":"address"},{"name":"_value","type":"uint256","internalType":"uint256"}],"outputs":[],"stateMutability":"nonpayable"},{"type":"function","name":"destroyed","inputs":[{"name":"_from","type":"address","internalType":"address"},{"name":"_value","type":"uint256","internalType":"uint256"}],"outputs":[],"stateMutability":"nonpayable"},{"type":"function","name":"getExchangeMonthlyLimit","inputs":[{"name":"_exchangeID","type":"address","internalType":"address"}],"outputs":[{"name":"","type":"uint256","internalType":"uint256"}],"stateMutability":"view"},{"type":"function","name":"getMonthlyCounter","inputs":[{"name":"_exchangeID","type":"address","internalType":"address"},{"name":"_investorID","type":"address","internalType":"address"}],"outputs":[{"name":"","type":"uint256","internalType":"uint256"}],"stateMutability":"view"},{"type":"function","name":"getMonthlyTimer","inputs":[{"name":"_exchangeID","type":"address","internalType":"address"},{"name":"_investorID","type":"address","internalType":"address"}],"outputs":[{"name":"","type":"uint256","internalType":"uint256"}],"stateMutability":"view"},{"type":"function","name":"isAgent","inputs":[{"name":"_agent","type":"address","internalType":"address"}],"outputs":[{"name":"","type":"bool","internalType":"bool"}],"stateMutability":"view"},{"type":"function","name":"isExchangeID","inputs":[{"name":"_exchangeID","type":"address","internalType":"address"}],"outputs":[{"name":"","type":"bool","internalType":"bool"}],"stateMutability":"view"},{"type":"function","name":"isTokenAgent","inputs":[{"name":"_agentAddress","type":"address","internalType":"address"}],"outputs":[{"name":"","type":"bool","internalType":"bool"}],"stateMutability":"view"},{"type":"function","name":"isTokenBound","inputs":[{"name":"_token","type":"address","internalType":"address"}],"outputs":[{"name":"","type":"bool","internalType":"bool"}],"stateMutability":"view"},{"type":"function","name":"owner","inputs":[],"outputs":[{"name":"","type":"address","internalType":"address"}],"stateMutability":"view"},{"type":"function","name":"removeAgent","inputs":[{"name":"_agent","type":"address","internalType":"address"}],"outputs":[],"stateMutability":"nonpayable"},{"type":"function","name":"removeExchangeID","inputs":[{"name":"_exchangeID","type":"address","internalType":"address"}],"outputs":[],"stateMutability":"nonpayable"},{"type":"function","name":"removeTokenAgent","inputs":[{"name":"_agentAddress","type":"address","internalType":"address"}],"outputs":[],"stateMutability":"nonpayable"},{"type":"function","name":"renounceOwnership","inputs":[],"outputs":[],"stateMutability":"nonpayable"},{"type":"function","name":"setExchangeMonthlyLimit","inputs":[{"name":"_exchangeID","type":"address","internalType":"address"},{"name":"_newExchangeMonthlyLimit","type":"uint256","internalType":"uint256"}],"outputs":[],"stateMutability":"nonpayable"},{"type":"function","name":"tokenBound","inputs":[],"outputs":[{"name":"","type":"address","internalType":"contract IToken"}],"stateMutability":"view"},{"type":"function","name":"transferOwnership","inputs":[{"name":"newOwner","type":"address","internalType":"address"}],"outputs":[],"stateMutability":"nonpayable"},{"type":"function","name":"transferred","inputs":[{"name":"_from","type":"address","internalType":"address"},{"name":"_to","type":"address","internalType":"address"},{"name":"_value","type":"uint256","internalType":"uint256"}],"outputs":[],"stateMutability":"nonpayable"},{"type":"function","name":"unbindToken","inputs":[{"name":"_token","type":"address","internalType":"address"}],"outputs":[],"stateMutability":"nonpayable"},{"type":"event","name":"AgentAdded","inputs":[{"name":"_agent","type":"address","indexed":true,"internalType":"address"}],"anonymous":false},{"type":"event","name":"AgentRemoved","inputs":[{"name":"_agent","type":"address","indexed":true,"internalType":"address"}],"anonymous":false},{"type":"event","name":"ExchangeIDAdded","inputs":[{"name":"_newExchangeID","type":"address","indexed":false,"internalType":"address"}],"anonymous":false},{"type":"event","name":"ExchangeIDRemoved","inputs":[{"name":"_exchangeID","type":"address","indexed":false,"internalType":"address"}],"anonymous":false},{"type":"event","name":"ExchangeMonthlyLimitUpdated","inputs":[{"name":"_exchangeID","type":"address","indexed":false,"internalType":"address"},{"name":"_newExchangeMonthlyLimit","type":"uint256","indexed":false,"internalType":"uint256"}],"anonymous":false},{"type":"event","name":"OwnershipTransferred","inputs":[{"name":"previousOwner","type":"address","indexed":true,"internalType":"address"},{"name":"newOwner","type":"address","indexed":true,"internalType":"address"}],"anonymous":false},{"type":"event","name":"TokenAgentAdded","inputs":[{"name":"_agentAddress","type":"address","indexed":false,"internalType":"address"}],"anonymous":false},{"type":"event","name":"TokenAgentRemoved","inputs":[{"name":"_agentAddress","type":"address","indexed":false,"internalType":"address"}],"anonymous":false},{"type":"event","name":"TokenBound","inputs":[{"name":"_token","type":"address","indexed":false,"internalType":"address"}],"anonymous":false},{"type":"event","name":"TokenUnbound","inputs":[{"name":"_token","type":"address","indexed":false,"internalType":"address"}],"anonymous":false},{"type":"error","name":"OwnableInvalidOwner","inputs":[{"name":"owner","type":"address","internalType":"address"}]},{"type":"error","name":"OwnableUnauthorizedAccount","inputs":[{"name":"account","type":"address","internalType":"address"}]}],"bytecode":{"object":"0x608060405234801561001057600080fd5b50338061003757604051631e4fbdf760e01b81526000600482015260240160405180910390fd5b61004081610046565b50610096565b600080546001600160a01b038381166001600160a01b0319831681178455604051919092169283917f8be0079c531659141344cd1fd0a4f28419497f9722a3daafe3b4186f6b6457e09190a35050565b611331806100a56000396000f3fe608060405234801561001057600080fd5b50600436106101735760003560e01c806393e62f07116100de578063ca63968d11610097578063d22579fb11610071578063d22579fb1461035f578063e46638e614610372578063f2fde38b14610385578063ff3e69541461039857600080fd5b8063ca63968d146102fd578063cdde293214610310578063ce32926d1461032357600080fd5b806393e62f071461026757806395c5dbfc1461027a57806397a6278e146102b1578063993e8b95146102c4578063a9336def146102d7578063bba58c29146102ea57600080fd5b8063715018a611610130578063715018a61461020157806374436d971461020957806384e798421461021c5780638baf29b41461022f5780638d2ea772146101ee5780638da5cb5b1461024257600080fd5b80631ffbb064146101785780632bb5e721146101a0578063346531fa146101b55780633ff5aa02146101c857806340db3b50146101db5780635f8dead3146101ee575b600080fd5b61018b61018636600461116e565b6103ab565b60405190151581526020015b60405180910390f35b6101b36101ae36600461116e565b6103be565b005b61018b6101c336600461116e565b610488565b6101b36101d636600461116e565b610531565b6101b36101e936600461116e565b61060f565b6101b36101fc36600461118b565b610731565b6101b3610759565b6101b361021736600461116e565b61076d565b6101b361022a36600461116e565b61081b565b6101b361023d3660046111b7565b6108bb565b6000546001600160a01b03165b6040516001600160a01b039091168152602001610197565b60035461024f906001600160a01b031681565b6102a361028836600461116e565b6001600160a01b031660009081526004602052604090205490565b604051908152602001610197565b6101b36102bf36600461116e565b6108ef565b61018b6102d236600461116e565b61098f565b6101b36102e536600461118b565b6109af565b61018b6102f83660046111b7565b610a0f565b6102a361030b3660046111f8565b610b06565b6101b361031e36600461116e565b610b31565b6102a36103313660046111f8565b6001600160a01b03918216600090815260056020908152604080832093909416825291909152206001015490565b61018b61036d36600461116e565b610bf2565b61018b6103803660046111b7565b610c10565b6101b361039336600461116e565b610c33565b6101b36103a636600461116e565b610c71565b60006103b8600183610d36565b92915050565b6103c6610db9565b6103cf81610bf2565b1561042d5760405162461bcd60e51b8152602060048201526024808201527f4f4e434841494e494420616c7265616479207461676765642061732065786368604482015263616e676560e01b60648201526084015b60405180910390fd5b6001600160a01b038116600081815260066020908152604091829020805460ff1916600117905590519182527fca661533a567195376b79f20fcbcca20e62ceea1d43efacba5f8028329da8e6b91015b60405180910390a150565b6001600160a01b03811660009081526002602052604081205460ff1615801561051c57506003546040516307feec1960e21b81526001600160a01b03848116600483015290911690631ffbb06490602401602060405180830381865afa1580156104f6573d6000803e3d6000fd5b505050506040513d601f19601f8201168201806040525081019061051a9190611231565b155b1561052957506000919050565b506001919050565b336105446000546001600160a01b031690565b6001600160a01b0316148061057557506003546001600160a01b03161580156105755750336001600160a01b038216145b6105c15760405162461bcd60e51b815260206004820152601c60248201527f6f6e6c79206f776e6572206f7220746f6b656e2063616e2063616c6c000000006044820152606401610424565b600380546001600160a01b0319166001600160a01b0383169081179091556040519081527f2de35142b19ed5a07796cf30791959c592018f70b1d2d7c460eef8ffe713692b9060200161047d565b336106226000546001600160a01b031690565b6001600160a01b0316148061063f5750336001600160a01b038216145b61068b5760405162461bcd60e51b815260206004820152601c60248201527f6f6e6c79206f776e6572206f7220746f6b656e2063616e2063616c6c000000006044820152606401610424565b6003546001600160a01b038281169116146106e85760405162461bcd60e51b815260206004820152601760248201527f5468697320746f6b656e206973206e6f7420626f756e640000000000000000006044820152606401610424565b600380546001600160a01b03191690556040516001600160a01b03821681527f28a4ca7134a3b3f9aff286e79ad3daadb4a06d1b43d037a3a98bdc074edd9b7a9060200161047d565b610739610de6565b6107555760405162461bcd60e51b815260040161042490611253565b5050565b610761610db9565b61076b6000610df6565b565b610775610db9565b61077e81610bf2565b6107ca5760405162461bcd60e51b815260206004820181905260248201527f4f4e434841494e4944206e6f74207461676765642061732065786368616e67656044820152606401610424565b6001600160a01b038116600081815260066020908152604091829020805460ff1916905590519182527fc59743ca46d36b7cf42c36211a2fbef12e10aec1bfc9d39eccf91b6976a260f5910161047d565b610823610db9565b6001600160a01b0381166108795760405162461bcd60e51b815260206004820152601f60248201527f696e76616c696420617267756d656e74202d207a65726f2061646472657373006044820152606401610424565b610884600182610e46565b6040516001600160a01b038216907ff68e73cec97f2d70aa641fb26e87a4383686e2efacb648f2165aeb02ac562ec590600090a250565b6108c3610de6565b6108df5760405162461bcd60e51b815260040161042490611253565b6108ea838383610ec2565b505050565b6108f7610db9565b6001600160a01b03811661094d5760405162461bcd60e51b815260206004820152601f60248201527f696e76616c696420617267756d656e74202d207a65726f2061646472657373006044820152606401610424565b610958600182610f0e565b6040516001600160a01b038216907fed9c8ad8d5a0a66898ea49d2956929c93ae2e8bd50281b2ed897c5d1a6737e0b90600090a250565b6003546000906001600160a01b0383811691161461052957506000919050565b6109b7610db9565b6001600160a01b038216600081815260046020908152604091829020849055815192835282018390527f046e8d44ac13395246a46d2f1065db8724b7c6aa2b9dd481327c2687c3ad9efd910160405180910390a15050565b600080610a1b85610f90565b90506000610a2885610f90565b9050610a3386610488565b158015610a4857506001600160a01b03861615155b15610af857610a5681610bf2565b15610af8576001600160a01b038116600090815260046020526040902054841115610a8657600092505050610aff565b6001600160a01b0381811660009081526005602090815260408083209386168352929052206001015442108015610ae857506001600160a01b03811660009081526004602052604090205484610adc8385610b06565b610ae691906112bd565b115b15610af857600092505050610aff565b6001925050505b9392505050565b6001600160a01b03918216600090815260056020908152604080832093909416825291909152205490565b610b39610db9565b6001600160a01b03811660009081526002602052604090205460ff16610ba15760405162461bcd60e51b815260206004820181905260248201527f54686973204167656e74206973206e6f742072656769737465726564207965746044820152606401610424565b6001600160a01b038116600081815260026020908152604091829020805460ff1916905590519182527f6a659bb87bb23efbdc295f8eed8ae8c4379bfb77660ced2ef0f3d7d26b05c6a6910161047d565b6001600160a01b031660009081526006602052604090205460ff1690565b6000610c1d848484610a0f565b610c2957506000610aff565b5060019392505050565b610c3b610db9565b6001600160a01b038116610c6557604051631e4fbdf760e01b815260006004820152602401610424565b610c6e81610df6565b50565b610c79610db9565b6001600160a01b03811660009081526002602052604090205460ff1615610ce25760405162461bcd60e51b815260206004820181905260248201527f54686973204167656e7420697320616c726561647920726567697374657265646044820152606401610424565b6001600160a01b038116600081815260026020908152604091829020805460ff1916600117905590519182527fd62c45e13ac30396aceb3ad37c89bd1ba9048032fe61679000e92eb93dbfd67d910161047d565b60006001600160a01b038216610d995760405162461bcd60e51b815260206004820152602260248201527f526f6c65733a206163636f756e7420697320746865207a65726f206164647265604482015261737360f01b6064820152608401610424565b506001600160a01b03166000908152602091909152604090205460ff1690565b6000546001600160a01b0316331461076b5760405163118cdaa760e01b8152336004820152602401610424565b6000610df13361098f565b905090565b600080546001600160a01b038381166001600160a01b0319831681178455604051919092169283917f8be0079c531659141344cd1fd0a4f28419497f9722a3daafe3b4186f6b6457e09190a35050565b610e508282610d36565b15610e9d5760405162461bcd60e51b815260206004820152601f60248201527f526f6c65733a206163636f756e7420616c72656164792068617320726f6c65006044820152606401610424565b6001600160a01b0316600090815260209190915260409020805460ff19166001179055565b6000610ecd84610f90565b90506000610eda84610f90565b9050610ee581610bf2565b8015610ef75750610ef585610488565b155b15610f0757610f0782828561106a565b5050505050565b610f188282610d36565b610f6e5760405162461bcd60e51b815260206004820152602160248201527f526f6c65733a206163636f756e7420646f6573206e6f74206861766520726f6c6044820152606560f81b6064820152608401610424565b6001600160a01b0316600090815260209190915260409020805460ff19169055565b600354604080516304d3863d60e21b815290516000926001600160a01b03169163134e18f49160048083019260209291908290030181865afa158015610fda573d6000803e3d6000fd5b505050506040513d601f19601f82011682018060405250810190610ffe91906112de565b604051633c3ad79560e21b81526001600160a01b038481166004830152919091169063f0eb5e5490602401602060405180830381865afa158015611046573d6000803e3d6000fd5b505050506040513d601f19601f820116820180604052508101906103b891906112de565b61107483836110e8565b6001600160a01b038316600090815260046020526040902054816110988585610b06565b6110a291906112bd565b116108ea576001600160a01b038084166000908152600560209081526040808320938616835292905290812080548392906110de9084906112bd565b9091555050505050565b6001600160a01b038083166000908152600560209081526040808320938516835292905220600101544210610755576111244262278d006112bd565b6001600160a01b0392831660009081526005602090815260408083209490951682529290925291812060018101929092559055565b6001600160a01b0381168114610c6e57600080fd5b60006020828403121561118057600080fd5b8135610aff81611159565b6000806040838503121561119e57600080fd5b82356111a981611159565b946020939093013593505050565b6000806000606084860312156111cc57600080fd5b83356111d781611159565b925060208401356111e781611159565b929592945050506040919091013590565b6000806040838503121561120b57600080fd5b823561121681611159565b9150602083013561122681611159565b809150509250929050565b60006020828403121561124357600080fd5b81518015158114610aff57600080fd5b60208082526044908201527f6572726f72203a20746869732061646472657373206973206e6f74206120746f60408201527f6b656e20626f756e6420746f2074686520636f6d706c69616e636520636f6e746060820152631c9858dd60e21b608082015260a00190565b808201808211156103b857634e487b7160e01b600052601160045260246000fd5b6000602082840312156112f057600080fd5b8151610aff8161115956fea26469706673582212209b175707eec345291ccb893272c59f73d053834ec08e80ae5bff710aeaf631ed64736f6c63430008180033","linkReferences":{}},"methodIdentifiers":{"addAgent(address)":"84e79842","addExchangeID(address)":"2bb5e721","addTokenAgent(address)":"ff3e6954","bindToken(address)":"3ff5aa02","canTransfer(address,address,uint256)":"e46638e6","complianceCheckOnExchangeMonthlyLimits(address,address,uint256)":"bba58c29","created(address,uint256)":"5f8dead3","destroyed(address,uint256)":"8d2ea772","getExchangeMonthlyLimit(address)":"95c5dbfc","getMonthlyCounter(address,address)":"ca63968d","getMonthlyTimer(address,address)":"ce32926d","isAgent(address)":"1ffbb064","isExchangeID(address)":"d22579fb","isTokenAgent(address)":"346531fa","isTokenBound(address)":"993e8b95","owner()":"8da5cb5b","removeAgent(address)":"97a6278e","removeExchangeID(address)":"74436d97","removeTokenAgent(address)":"cdde2932","renounceOwnership()":"715018a6","setExchangeMonthlyLimit(address,uint256)":"a9336def","tokenBound()":"93e62f07","transferOwnership(address)":"f2fde38b","transferred(address,address,uint256)":"8baf29b4","unbindToken(address)":"40db3b50"},"id":38}