{"abi":[{"type":"constructor","inputs":[{"name":"_token","type":"address","internalType":"address"}],"stateMutability":"nonpayable"},{"type":"function","name":"addAgentAdmin","inputs":[{"name":"_agent","type":"address","internalType":"address"}],"outputs":[],"stateMutability":"nonpayable"},{"type":"function","name":"addComplianceAgent","inputs":[{"name":"_agent","type":"address","internalType":"address"}],"outputs":[],"stateMutability":"nonpayable"},{"type":"function","name":"addFreezer","inputs":[{"name":"_agent","type":"address","internalType":"address"}],"outputs":[],"stateMutability":"nonpayable"},{"type":"function","name":"addRecoveryAgent","inputs":[{"name":"_agent","type":"address","internalType":"address"}],"outputs":[],"stateMutability":"nonpayable"},{"type":"function","name":"addSupplyModifier","inputs":[{"name":"_agent","type":"address","internalType":"address"}],"outputs":[],"stateMutability":"nonpayable"},{"type":"function","name":"addTransferManager","inputs":[{"name":"_agent","type":"address","internalType":"address"}],"outputs":[],"stateMutability":"nonpayable"},{"type":"function","name":"addWhiteListManager","inputs":[{"name":"_agent","type":"address","internalType":"address"}],"outputs":[],"stateMutability":"nonpayable"},{"type":"function","name":"callBatchBurn","inputs":[{"name":"_userAddresses","type":"address[]","internalType":"address[]"},{"name":"_amounts","type":"uint256[]","internalType":"uint256[]"},{"name":"_onchainID","type":"address","internalType":"contract IIdentity"}],"outputs":[],"stateMutability":"nonpayable"},{"type":"function","name":"callBatchForcedTransfer","inputs":[{"name":"_fromList","type":"address[]","internalType":"address[]"},{"name":"_toList","type":"address[]","internalType":"address[]"},{"name":"_amounts","type":"uint256[]","internalType":"uint256[]"},{"name":"_onchainID","type":"address","internalType":"contract IIdentity"}],"outputs":[],"stateMutability":"nonpayable"},{"type":"function","name":"callBatchFreezePartialTokens","inputs":[{"name":"_userAddresses","type":"address[]","internalType":"address[]"},{"name":"_amounts","type":"uint256[]","internalType":"uint256[]"},{"name":"_onchainID","type":"address","internalType":"contract IIdentity"}],"outputs":[],"stateMutability":"nonpayable"},{"type":"function","name":"callBatchMint","inputs":[{"name":"_toList","type":"address[]","internalType":"address[]"},{"name":"_amounts","type":"uint256[]","internalType":"uint256[]"},{"name":"_onchainID","type":"address","internalType":"contract IIdentity"}],"outputs":[],"stateMutability":"nonpayable"},{"type":"function","name":"callBatchSetAddressFrozen","inputs":[{"name":"_userAddresses","type":"address[]","internalType":"address[]"},{"name":"_freeze","type":"bool[]","internalType":"bool[]"},{"name":"_onchainID","type":"address","internalType":"contract IIdentity"}],"outputs":[],"stateMutability":"nonpayable"},{"type":"function","name":"callBatchUnfreezePartialTokens","inputs":[{"name":"_userAddresses","type":"address[]","internalType":"address[]"},{"name":"_amounts","type":"uint256[]","internalType":"uint256[]"},{"name":"_onchainID","type":"address","internalType":"contract IIdentity"}],"outputs":[],"stateMutability":"nonpayable"},{"type":"function","name":"callBurn","inputs":[{"name":"_userAddress","type":"address","internalType":"address"},{"name":"_amount","type":"uint256","internalType":"uint256"},{"name":"_onchainID","type":"address","internalType":"contract IIdentity"}],"outputs":[],"stateMutability":"nonpayable"},{"type":"function","name":"callDeleteIdentity","inputs":[{"name":"_userAddress","type":"address","internalType":"address"},{"name":"_onchainID","type":"address","internalType":"contract IIdentity"}],"outputs":[],"stateMutability":"nonpayable"},{"type":"function","name":"callForcedTransfer","inputs":[{"name":"_from","type":"address","internalType":"address"},{"name":"_to","type":"address","internalType":"address"},{"name":"_amount","type":"uint256","internalType":"uint256"},{"name":"_onchainID","type":"address","internalType":"contract IIdentity"}],"outputs":[],"stateMutability":"nonpayable"},{"type":"function","name":"callFreezePartialTokens","inputs":[{"name":"_userAddress","type":"address","internalType":"address"},{"name":"_amount","type":"uint256","internalType":"uint256"},{"name":"_onchainID","type":"address","internalType":"contract IIdentity"}],"outputs":[],"stateMutability":"nonpayable"},{"type":"function","name":"callMint","inputs":[{"name":"_to","type":"address","internalType":"address"},{"name":"_amount","type":"uint256","internalType":"uint256"},{"name":"_onchainID","type":"address","internalType":"contract IIdentity"}],"outputs":[],"stateMutability":"nonpayable"},{"type":"function","name":"callPause","inputs":[{"name":"_onchainID","type":"address","internalType":"contract IIdentity"}],"outputs":[],"stateMutability":"nonpayable"},{"type":"function","name":"callRecoveryAddress","inputs":[{"name":"_lostWallet","type":"address","internalType":"address"},{"name":"_newWallet","type":"address","internalType":"address"},{"name":"_onchainID","type":"address","internalType":"address"},{"name":"_managerOnchainID","type":"address","internalType":"contract IIdentity"}],"outputs":[],"stateMutability":"nonpayable"},{"type":"function","name":"callRegisterIdentity","inputs":[{"name":"_userAddress","type":"address","internalType":"address"},{"name":"_onchainID","type":"address","internalType":"contract IIdentity"},{"name":"_country","type":"uint16","internalType":"uint16"},{"name":"_managerOnchainID","type":"address","internalType":"contract IIdentity"}],"outputs":[],"stateMutability":"nonpayable"},{"type":"function","name":"callSetAddressFrozen","inputs":[{"name":"_userAddress","type":"address","internalType":"address"},{"name":"_freeze","type":"bool","internalType":"bool"},{"name":"_onchainID","type":"address","internalType":"contract IIdentity"}],"outputs":[],"stateMutability":"nonpayable"},{"type":"function","name":"callUnfreezePartialTokens","inputs":[{"name":"_userAddress","type":"address","internalType":"address"},{"name":"_amount","type":"uint256","internalType":"uint256"},{"name":"_onchainID","type":"address","internalType":"contract IIdentity"}],"outputs":[],"stateMutability":"nonpayable"},{"type":"function","name":"callUnpause","inputs":[{"name":"_onchainID","type":"address","internalType":"contract IIdentity"}],"outputs":[],"stateMutability":"nonpayable"},{"type":"function","name":"callUpdateCountry","inputs":[{"name":"_userAddress","type":"address","internalType":"address"},{"name":"_country","type":"uint16","internalType":"uint16"},{"name":"_onchainID","type":"address","internalType":"contract IIdentity"}],"outputs":[],"stateMutability":"nonpayable"},{"type":"function","name":"callUpdateIdentity","inputs":[{"name":"_userAddress","type":"address","internalType":"address"},{"name":"_identity","type":"address","internalType":"contract IIdentity"},{"name":"_onchainID","type":"address","internalType":"contract IIdentity"}],"outputs":[],"stateMutability":"nonpayable"},{"type":"function","name":"isAgentAdmin","inputs":[{"name":"_agent","type":"address","internalType":"address"}],"outputs":[{"name":"","type":"bool","internalType":"bool"}],"stateMutability":"view"},{"type":"function","name":"isComplianceAgent","inputs":[{"name":"_agent","type":"address","internalType":"address"}],"outputs":[{"name":"","type":"bool","internalType":"bool"}],"stateMutability":"view"},{"type":"function","name":"isFreezer","inputs":[{"name":"_agent","type":"address","internalType":"address"}],"outputs":[{"name":"","type":"bool","internalType":"bool"}],"stateMutability":"view"},{"type":"function","name":"isRecoveryAgent","inputs":[{"name":"_agent","type":"address","internalType":"address"}],"outputs":[{"name":"","type":"bool","internalType":"bool"}],"stateMutability":"view"},{"type":"function","name":"isSupplyModifier","inputs":[{"name":"_agent","type":"address","internalType":"address"}],"outputs":[{"name":"","type":"bool","internalType":"bool"}],"stateMutability":"view"},{"type":"function","name":"isTransferManager","inputs":[{"name":"_agent","type":"address","internalType":"address"}],"outputs":[{"name":"","type":"bool","internalType":"bool"}],"stateMutability":"view"},{"type":"function","name":"isWhiteListManager","inputs":[{"name":"_agent","type":"address","internalType":"address"}],"outputs":[{"name":"","type":"bool","internalType":"bool"}],"stateMutability":"view"},{"type":"function","name":"owner","inputs":[],"outputs":[{"name":"","type":"address","internalType":"address"}],"stateMutability":"view"},{"type":"function","name":"removeAgentAdmin","inputs":[{"name":"_agent","type":"address","internalType":"address"}],"outputs":[],"stateMutability":"nonpayable"},{"type":"function","name":"removeComplianceAgent","inputs":[{"name":"_agent","type":"address","internalType":"address"}],"outputs":[],"stateMutability":"nonpayable"},{"type":"function","name":"removeFreezer","inputs":[{"name":"_agent","type":"address","internalType":"address"}],"outputs":[],"stateMutability":"nonpayable"},{"type":"function","name":"removeRecoveryAgent","inputs":[{"name":"_agent","type":"address","internalType":"address"}],"outputs":[],"stateMutability":"nonpayable"},{"type":"function","name":"removeSupplyModifier","inputs":[{"name":"_agent","type":"address","internalType":"address"}],"outputs":[],"stateMutability":"nonpayable"},{"type":"function","name":"removeTransferManager","inputs":[{"name":"_agent","type":"address","internalType":"address"}],"outputs":[],"stateMutability":"nonpayable"},{"type":"function","name":"removeWhiteListManager","inputs":[{"name":"_agent","type":"address","internalType":"address"}],"outputs":[],"stateMutability":"nonpayable"},{"type":"function","name":"renounceOwnership","inputs":[],"outputs":[],"stateMutability":"nonpayable"},{"type":"function","name":"token","inputs":[],"outputs":[{"name":"","type":"address","internalType":"contract IToken"}],"stateMutability":"view"},{"type":"function","name":"transferOwnership","inputs":[{"name":"newOwner","type":"address","internalType":"address"}],"outputs":[],"stateMutability":"nonpayable"},{"type":"event","name":"OwnershipTransferred","inputs":[{"name":"previousOwner","type":"address","indexed":true,"internalType":"address"},{"name":"newOwner","type":"address","indexed":true,"internalType":"address"}],"anonymous":false},{"type":"event","name":"RoleAdded","inputs":[{"name":"_agent","type":"address","indexed":true,"internalType":"address"},{"name":"_role","type":"string","indexed":false,"internalType":"string"}],"anonymous":false},{"type":"event","name":"RoleRemoved","inputs":[{"name":"_agent","type":"address","indexed":true,"internalType":"address"},{"name":"_role","type":"string","indexed":false,"internalType":"string"}],"anonymous":false},{"type":"error","name":"OwnableInvalidOwner","inputs":[{"name":"owner","type":"address","internalType":"address"}]},{"type":"error","name":"OwnableUnauthorizedAccount","inputs":[{"name":"account","type":"address","internalType":"address"}]}],"bytecode":{"object":"0x60806040523480156200001157600080fd5b5060405162003016380380620030168339810160408190526200003491620000dd565b33806200005b57604051631e4fbdf760e01b81526000600482015260240160405180910390fd5b62000066816200008d565b50600880546001600160a01b0319166001600160a01b03929092169190911790556200010f565b600080546001600160a01b038381166001600160a01b0319831681178455604051919092169283917f8be0079c531659141344cd1fd0a4f28419497f9722a3daafe3b4186f6b6457e09190a35050565b600060208284031215620000f057600080fd5b81516001600160a01b03811681146200010857600080fd5b9392505050565b612ef7806200011f6000396000f3fe608060405234801561001057600080fd5b50600436106102745760003560e01c8063715018a611610151578063b673266a116100c3578063cdf1b69311610087578063cdf1b69314610569578063d5451e521461057c578063e86c64311461058f578063f1e92173146105a2578063f2fde38b146105b5578063fc0c546a146105c857600080fd5b8063b673266a1461050a578063bd92fcfe1461051d578063bea0790a14610530578063c6006c9a14610543578063c8777b501461055657600080fd5b80638da5cb5b116101155780638da5cb5b1461048657806394452821146104ab578063965e61ea146104be57806396df6f27146104d1578063a6a7d4e2146104e4578063aca277e1146104f757600080fd5b8063715018a6146104325780637489453d1461043a5780637ad78a461461044d5780637d684ff714610460578063860a2bcf1461047357600080fd5b806339cc8d90116101ea5780634599fb7b116101ae5780634599fb7b146103c05780634aff432c146103d3578063526606c9146103e657806365d07b2e146103f95780636b8c82b51461040c5780636c65fd6a1461041f57600080fd5b806339cc8d901461036157806339ed7a40146103745780633cdf8000146103875780633dc1c1761461039a57806341e6aa5d146103ad57600080fd5b80632001c3501161023c5780632001c350146102ef5780632228a6cf1461030257806324fdc360146103155780632acd200014610328578063393694a71461033b5780633966904d1461034e57600080fd5b80630102acff14610279578063042a36061461028e5780630878c410146102b657806314f2d276146102c957806315d8ca62146102dc575b600080fd5b61028c6102873660046127a7565b6105db565b005b6102a161029c3660046127e9565b610712565b60405190151581526020015b60405180910390f35b61028c6102c4366004612859565b610725565b61028c6102d73660046127e9565b610856565b61028c6102ea3660046127e9565b610902565b6102a16102fd3660046127e9565b6109a1565b61028c6103103660046128f4565b6109ae565b61028c6103233660046127e9565b610b21565b61028c6103363660046127e9565b610c4e565b61028c6103493660046127a7565b610ce6565b61028c61035c3660046127e9565b610de1565b61028c61036f3660046127e9565b610e82565b61028c6103823660046127a7565b610f94565b61028c6103953660046127e9565b61108f565b61028c6103a8366004612859565b61112f565b61028c6103bb3660046127a7565b611227565b6102a16103ce3660046127e9565b611322565b61028c6103e13660046127e9565b61132f565b61028c6103f43660046127e9565b6113d0565b61028c6104073660046127e9565b611468565b61028c61041a366004612859565b611503565b6102a161042d3660046127e9565b6115fb565b61028c611608565b61028c6104483660046127e9565b61161c565b6102a161045b3660046127e9565b6116ba565b61028c61046e366004612859565b6116c7565b61028c6104813660046127e9565b6117bf565b6000546001600160a01b03165b6040516001600160a01b0390911681526020016102ad565b61028c6104b9366004612859565b61185e565b61028c6104cc3660046127e9565b611956565b61028c6104df366004612940565b6119f6565b61028c6104f2366004612970565b611af2565b61028c6105053660046129cc565b611c70565b61028c610518366004612a05565b611e0a565b6102a161052b3660046127e9565b611f41565b61028c61053e366004612ab3565b611f4e565b61028c6105513660046127e9565b6120fc565b61028c6105643660046127e9565b61219c565b61028c6105773660046127e9565b61223a565b61028c61058a366004612af2565b6122d5565b6102a161059d3660046127e9565b612446565b61028c6105b0366004612b22565b612453565b61028c6105c33660046127e9565b612556565b600854610493906001600160a01b031681565b6105e481610712565b80156106815750604080513360208201526001600160a01b0383169163d202158d910160408051601f198184030181529082905280516020909101206001600160e01b031960e084901b168252600482015260026024820152604401602060405180830381865afa15801561065d573d6000803e3d6000fd5b505050506040513d601f19601f820116820180604052508101906106819190612b6a565b6106a65760405162461bcd60e51b815260040161069d90612b87565b60405180910390fd5b6008546040516340c10f1960e01b81526001600160a01b03858116600483015260248201859052909116906340c10f19906044015b600060405180830381600087803b1580156106f557600080fd5b505af1158015610709573d6000803e3d6000fd5b50505050505050565b600061071f600183612594565b92915050565b61072e816115fb565b80156107cb5750604080513360208201526001600160a01b0383169163d202158d910160408051601f198184030181529082905280516020909101206001600160e01b031960e084901b168252600482015260026024820152604401602060405180830381865afa1580156107a7573d6000803e3d6000fd5b505050506040513d601f19601f820116820180604052508101906107cb9190612b6a565b6107e75760405162461bcd60e51b815260040161069d90612bca565b600854604051634710362d60e01b81526001600160a01b0390911690634710362d9061081d908890889088908890600401612c7c565b600060405180830381600087803b15801561083757600080fd5b505af115801561084b573d6000803e3d6000fd5b505050505050505050565b336108696000546001600160a01b031690565b6001600160a01b03161480610882575061088233611322565b61089e5760405162461bcd60e51b815260040161069d90612cae565b6108a9600382612617565b604080518082018252600f81526e2a3930b739b332b926b0b730b3b2b960891b602082015290516001600160a01b03831690600080516020612ea2833981519152906108f6908490612ce5565b60405180910390a25050565b336109156000546001600160a01b031690565b6001600160a01b0316148061092e575061092e33611322565b61094a5760405162461bcd60e51b815260040161069d90612cae565b610955600182612617565b604080518082018252600e81526d29bab838363ca6b7b234b334b2b960911b602082015290516001600160a01b03831690600080516020612ea2833981519152906108f6908490612ce5565b600061071f600583612594565b6109b781611f41565b8015610a545750604080513360208201526001600160a01b0383169163d202158d910160408051601f198184030181529082905280516020909101206001600160e01b031960e084901b168252600482015260026024820152604401602060405180830381865afa158015610a30573d6000803e3d6000fd5b505050506040513d601f19601f82011682018060405250810190610a549190612b6a565b610a705760405162461bcd60e51b815260040161069d90612d34565b600860009054906101000a90046001600160a01b03166001600160a01b031663134e18f46040518163ffffffff1660e01b8152600401602060405180830381865afa158015610ac3573d6000803e3d6000fd5b505050506040513d601f19601f82011682018060405250810190610ae79190612d79565b604051633b239a7f60e01b81526001600160a01b03858116600483015261ffff851660248301529190911690633b239a7f906044016106db565b610b2a816115fb565b8015610bc75750604080513360208201526001600160a01b0383169163d202158d910160408051601f198184030181529082905280516020909101206001600160e01b031960e084901b168252600482015260026024820152604401602060405180830381865afa158015610ba3573d6000803e3d6000fd5b505050506040513d601f19601f82011682018060405250810190610bc79190612b6a565b610be35760405162461bcd60e51b815260040161069d90612bca565b600860009054906101000a90046001600160a01b03166001600160a01b0316638456cb596040518163ffffffff1660e01b8152600401600060405180830381600087803b158015610c3357600080fd5b505af1158015610c47573d6000803e3d6000fd5b5050505050565b33610c616000546001600160a01b031690565b6001600160a01b03161480610c7a5750610c7a33611322565b610c965760405162461bcd60e51b815260040161069d90612cae565b610ca1600282612693565b6040805180820182526007815266233932b2bd32b960c91b602082015290516001600160a01b03831690600080516020612e82833981519152906108f6908490612ce5565b610cef816115fb565b8015610d8c5750604080513360208201526001600160a01b0383169163d202158d910160408051601f198184030181529082905280516020909101206001600160e01b031960e084901b168252600482015260026024820152604401602060405180830381865afa158015610d68573d6000803e3d6000fd5b505050506040513d601f19601f82011682018060405250810190610d8c9190612b6a565b610da85760405162461bcd60e51b815260040161069d90612bca565b600854604051631fe56f7d60e01b81526001600160a01b0385811660048301526024820185905290911690631fe56f7d906044016106db565b33610df46000546001600160a01b031690565b6001600160a01b03161480610e0d5750610e0d33611322565b610e295760405162461bcd60e51b815260040161069d90612cae565b610e34600682612617565b604080518082018252601081526f2bb434ba32a634b9ba26b0b730b3b2b960811b602082015290516001600160a01b03831690600080516020612ea2833981519152906108f6908490612ce5565b610e8b816115fb565b8015610f285750604080513360208201526001600160a01b0383169163d202158d910160408051601f198184030181529082905280516020909101206001600160e01b031960e084901b168252600482015260026024820152604401602060405180830381865afa158015610f04573d6000803e3d6000fd5b505050506040513d601f19601f82011682018060405250810190610f289190612b6a565b610f445760405162461bcd60e51b815260040161069d90612bca565b600860009054906101000a90046001600160a01b03166001600160a01b0316633f4ba83a6040518163ffffffff1660e01b8152600401600060405180830381600087803b158015610c3357600080fd5b610f9d816115fb565b801561103a5750604080513360208201526001600160a01b0383169163d202158d910160408051601f198184030181529082905280516020909101206001600160e01b031960e084901b168252600482015260026024820152604401602060405180830381865afa158015611016573d6000803e3d6000fd5b505050506040513d601f19601f8201168201806040525081019061103a9190612b6a565b6110565760405162461bcd60e51b815260040161069d90612bca565b60085460405163125c4a3360e01b81526001600160a01b038581166004830152602482018590529091169063125c4a33906044016106db565b336110a26000546001600160a01b031690565b6001600160a01b031614806110bb57506110bb33611322565b6110d75760405162461bcd60e51b815260040161069d90612cae565b6110e2600582612617565b604080518082018252600f81526e10dbdb5c1b1a585b98d95059d95b9d608a1b602082015290516001600160a01b03831690600080516020612ea2833981519152906108f6908490612ce5565b61113881610712565b80156111d55750604080513360208201526001600160a01b0383169163d202158d910160408051601f198184030181529082905280516020909101206001600160e01b031960e084901b168252600482015260026024820152604401602060405180830381865afa1580156111b1573d6000803e3d6000fd5b505050506040513d601f19601f820116820180604052508101906111d59190612b6a565b6111f15760405162461bcd60e51b815260040161069d90612b87565b600854604051636857310760e01b81526001600160a01b039091169063685731079061081d908890889088908890600401612c7c565b61123081610712565b80156112cd5750604080513360208201526001600160a01b0383169163d202158d910160408051601f198184030181529082905280516020909101206001600160e01b031960e084901b168252600482015260026024820152604401602060405180830381865afa1580156112a9573d6000803e3d6000fd5b505050506040513d601f19601f820116820180604052508101906112cd9190612b6a565b6112e95760405162461bcd60e51b815260040161069d90612b87565b600854604051632770a7eb60e21b81526001600160a01b0385811660048301526024820185905290911690639dc29fac906044016106db565b600061071f600783612594565b336113426000546001600160a01b031690565b6001600160a01b0316148061135b575061135b33611322565b6113775760405162461bcd60e51b815260040161069d90612cae565b611382600682612693565b604080518082018252601081526f2bb434ba32a634b9ba26b0b730b3b2b960811b602082015290516001600160a01b03831690600080516020612e82833981519152906108f6908490612ce5565b336113e36000546001600160a01b031690565b6001600160a01b031614806113fc57506113fc33611322565b6114185760405162461bcd60e51b815260040161069d90612cae565b611423600282612617565b6040805180820182526007815266233932b2bd32b960c91b602082015290516001600160a01b03831690600080516020612ea2833981519152906108f6908490612ce5565b3361147b6000546001600160a01b031690565b6001600160a01b03161480611494575061149433611322565b6114b05760405162461bcd60e51b815260040161069d90612cae565b6114bb600782612693565b604080518082018252600a81526920b3b2b73a20b236b4b760b11b602082015290516001600160a01b03831690600080516020612e82833981519152906108f6908490612ce5565b61150c816115fb565b80156115a95750604080513360208201526001600160a01b0383169163d202158d910160408051601f198184030181529082905280516020909101206001600160e01b031960e084901b168252600482015260026024820152604401602060405180830381865afa158015611585573d6000803e3d6000fd5b505050506040513d601f19601f820116820180604052508101906115a99190612b6a565b6115c55760405162461bcd60e51b815260040161069d90612bca565b600854604051631a7af37960e01b81526001600160a01b0390911690631a7af3799061081d908890889088908890600401612d96565b600061071f600283612594565b611610612715565b61161a6000612742565b565b3361162f6000546001600160a01b031690565b6001600160a01b03161480611648575061164833611322565b6116645760405162461bcd60e51b815260040161069d90612cae565b61166f600482612617565b604080518082018252600d81526c149958dbdd995c9e5059d95b9d609a1b602082015290516001600160a01b03831690600080516020612ea2833981519152906108f6908490612ce5565b600061071f600483612594565b6116d0816115fb565b801561176d5750604080513360208201526001600160a01b0383169163d202158d910160408051601f198184030181529082905280516020909101206001600160e01b031960e084901b168252600482015260026024820152604401602060405180830381865afa158015611749573d6000803e3d6000fd5b505050506040513d601f19601f8201168201806040525081019061176d9190612b6a565b6117895760405162461bcd60e51b815260040161069d90612bca565b600854604051631f8fcbf560e31b81526001600160a01b039091169063fc7e5fa89061081d908890889088908890600401612c7c565b336117d26000546001600160a01b031690565b6001600160a01b031614806117eb57506117eb33611322565b6118075760405162461bcd60e51b815260040161069d90612cae565b611812600182612693565b604080518082018252600e81526d29bab838363ca6b7b234b334b2b960911b602082015290516001600160a01b03831690600080516020612e82833981519152906108f6908490612ce5565b61186781610712565b80156119045750604080513360208201526001600160a01b0383169163d202158d910160408051601f198184030181529082905280516020909101206001600160e01b031960e084901b168252600482015260026024820152604401602060405180830381865afa1580156118e0573d6000803e3d6000fd5b505050506040513d601f19601f820116820180604052508101906119049190612b6a565b6119205760405162461bcd60e51b815260040161069d90612b87565b600854604051634a6cc67760e01b81526001600160a01b0390911690634a6cc6779061081d908890889088908890600401612c7c565b336119696000546001600160a01b031690565b6001600160a01b03161480611982575061198233611322565b61199e5760405162461bcd60e51b815260040161069d90612cae565b6119a9600382612693565b604080518082018252600f81526e2a3930b739b332b926b0b730b3b2b960891b602082015290516001600160a01b03831690600080516020612e82833981519152906108f6908490612ce5565b6119ff816115fb565b8015611a9c5750604080513360208201526001600160a01b0383169163d202158d910160408051601f198184030181529082905280516020909101206001600160e01b031960e084901b168252600482015260026024820152604401602060405180830381865afa158015611a78573d6000803e3d6000fd5b505050506040513d601f19601f82011682018060405250810190611a9c9190612b6a565b611ab85760405162461bcd60e51b815260040161069d90612bca565b60085460405163c69c09cf60e01b81526001600160a01b03858116600483015284151560248301529091169063c69c09cf906044016106db565b611afb816116ba565b8015611b985750604080513360208201526001600160a01b0383169163d202158d910160408051601f198184030181529082905280516020909101206001600160e01b031960e084901b168252600482015260026024820152604401602060405180830381865afa158015611b74573d6000803e3d6000fd5b505050506040513d601f19601f82011682018060405250810190611b989190612b6a565b611bef5760405162461bcd60e51b815260206004820152602260248201527f526f6c653a2053656e646572206973204e4f54205265636f76657279204167656044820152611b9d60f21b606482015260840161069d565b600854604051634942ca4560e11b81526001600160a01b0386811660048301528581166024830152848116604483015290911690639285948a906064015b6020604051808303816000875af1158015611c4c573d6000803e3d6000fd5b505050506040513d601f19601f82011682018060405250810190610c479190612b6a565b611c7981611f41565b8015611d165750604080513360208201526001600160a01b0383169163d202158d910160408051601f198184030181529082905280516020909101206001600160e01b031960e084901b168252600482015260026024820152604401602060405180830381865afa158015611cf2573d6000803e3d6000fd5b505050506040513d601f19601f82011682018060405250810190611d169190612b6a565b611d325760405162461bcd60e51b815260040161069d90612d34565b600860009054906101000a90046001600160a01b03166001600160a01b031663134e18f46040518163ffffffff1660e01b8152600401602060405180830381865afa158015611d85573d6000803e3d6000fd5b505050506040513d601f19601f82011682018060405250810190611da99190612d79565b60405163a8d29d1d60e01b81526001600160a01b038481166004830152919091169063a8d29d1d90602401600060405180830381600087803b158015611dee57600080fd5b505af1158015611e02573d6000803e3d6000fd5b505050505050565b611e1381612446565b8015611eb05750604080513360208201526001600160a01b0383169163d202158d910160408051601f198184030181529082905280516020909101206001600160e01b031960e084901b168252600482015260026024820152604401602060405180830381865afa158015611e8c573d6000803e3d6000fd5b505050506040513d601f19601f82011682018060405250810190611eb09190612b6a565b611ecc5760405162461bcd60e51b815260040161069d90612df4565b6008546040516310a91eaf60e21b81526001600160a01b03909116906342a47abc90611f06908a908a908a908a908a908a90600401612e38565b600060405180830381600087803b158015611f2057600080fd5b505af1158015611f34573d6000803e3d6000fd5b5050505050505050505050565b600061071f600683612594565b611f5781611f41565b8015611ff45750604080513360208201526001600160a01b0383169163d202158d910160408051601f198184030181529082905280516020909101206001600160e01b031960e084901b168252600482015260026024820152604401602060405180830381865afa158015611fd0573d6000803e3d6000fd5b505050506040513d601f19601f82011682018060405250810190611ff49190612b6a565b6120105760405162461bcd60e51b815260040161069d90612d34565b600860009054906101000a90046001600160a01b03166001600160a01b031663134e18f46040518163ffffffff1660e01b8152600401602060405180830381865afa158015612063573d6000803e3d6000fd5b505050506040513d601f19601f820116820180604052508101906120879190612d79565b60405163022a501f60e51b81526001600160a01b038681166004830152858116602483015261ffff85166044830152919091169063454a03e090606401600060405180830381600087803b1580156120de57600080fd5b505af11580156120f2573d6000803e3d6000fd5b5050505050505050565b3361210f6000546001600160a01b031690565b6001600160a01b03161480612128575061212833611322565b6121445760405162461bcd60e51b815260040161069d90612cae565b61214f600582612693565b604080518082018252600f81526e10dbdb5c1b1a585b98d95059d95b9d608a1b602082015290516001600160a01b03831690600080516020612e82833981519152906108f6908490612ce5565b336121af6000546001600160a01b031690565b6001600160a01b031614806121c857506121c833611322565b6121e45760405162461bcd60e51b815260040161069d90612cae565b6121ef600482612693565b604080518082018252600d81526c149958dbdd995c9e5059d95b9d609a1b602082015290516001600160a01b03831690600080516020612e82833981519152906108f6908490612ce5565b3361224d6000546001600160a01b031690565b6001600160a01b03161480612266575061226633611322565b6122825760405162461bcd60e51b815260040161069d90612cae565b61228d600782612617565b604080518082018252600a81526920b3b2b73a20b236b4b760b11b602082015290516001600160a01b03831690600080516020612ea2833981519152906108f6908490612ce5565b6122de81611f41565b801561237b5750604080513360208201526001600160a01b0383169163d202158d910160408051601f198184030181529082905280516020909101206001600160e01b031960e084901b168252600482015260026024820152604401602060405180830381865afa158015612357573d6000803e3d6000fd5b505050506040513d601f19601f8201168201806040525081019061237b9190612b6a565b6123975760405162461bcd60e51b815260040161069d90612d34565b600860009054906101000a90046001600160a01b03166001600160a01b031663134e18f46040518163ffffffff1660e01b8152600401602060405180830381865afa1580156123ea573d6000803e3d6000fd5b505050506040513d601f19601f8201168201806040525081019061240e9190612d79565b604051638e098ca160e01b81526001600160a01b03858116600483015284811660248301529190911690638e098ca1906044016106db565b600061071f600383612594565b61245c81612446565b80156124f95750604080513360208201526001600160a01b0383169163d202158d910160408051601f198184030181529082905280516020909101206001600160e01b031960e084901b168252600482015260026024820152604401602060405180830381865afa1580156124d5573d6000803e3d6000fd5b505050506040513d601f19601f820116820180604052508101906124f99190612b6a565b6125155760405162461bcd60e51b815260040161069d90612df4565b600854604051639fc1d0e760e01b81526001600160a01b03868116600483015285811660248301526044820185905290911690639fc1d0e790606401611c2d565b61255e612715565b6001600160a01b03811661258857604051631e4fbdf760e01b81526000600482015260240161069d565b61259181612742565b50565b60006001600160a01b0382166125f75760405162461bcd60e51b815260206004820152602260248201527f526f6c65733a206163636f756e7420697320746865207a65726f206164647265604482015261737360f01b606482015260840161069d565b506001600160a01b03166000908152602091909152604090205460ff1690565b6126218282612594565b1561266e5760405162461bcd60e51b815260206004820152601f60248201527f526f6c65733a206163636f756e7420616c72656164792068617320726f6c6500604482015260640161069d565b6001600160a01b0316600090815260209190915260409020805460ff19166001179055565b61269d8282612594565b6126f35760405162461bcd60e51b815260206004820152602160248201527f526f6c65733a206163636f756e7420646f6573206e6f74206861766520726f6c6044820152606560f81b606482015260840161069d565b6001600160a01b0316600090815260209190915260409020805460ff19169055565b6000546001600160a01b0316331461161a5760405163118cdaa760e01b815233600482015260240161069d565b600080546001600160a01b038381166001600160a01b0319831681178455604051919092169283917f8be0079c531659141344cd1fd0a4f28419497f9722a3daafe3b4186f6b6457e09190a35050565b6001600160a01b038116811461259157600080fd5b6000806000606084860312156127bc57600080fd5b83356127c781612792565b92506020840135915060408401356127de81612792565b809150509250925092565b6000602082840312156127fb57600080fd5b813561280681612792565b9392505050565b60008083601f84011261281f57600080fd5b50813567ffffffffffffffff81111561283757600080fd5b6020830191508360208260051b850101111561285257600080fd5b9250929050565b60008060008060006060868803121561287157600080fd5b853567ffffffffffffffff8082111561288957600080fd5b61289589838a0161280d565b909750955060208801359150808211156128ae57600080fd5b506128bb8882890161280d565b90945092505060408601356128cf81612792565b809150509295509295909350565b803561ffff811681146128ef57600080fd5b919050565b60008060006060848603121561290957600080fd5b833561291481612792565b9250612922602085016128dd565b915060408401356127de81612792565b801515811461259157600080fd5b60008060006060848603121561295557600080fd5b833561296081612792565b9250602084013561292281612932565b6000806000806080858703121561298657600080fd5b843561299181612792565b935060208501356129a181612792565b925060408501356129b181612792565b915060608501356129c181612792565b939692955090935050565b600080604083850312156129df57600080fd5b82356129ea81612792565b915060208301356129fa81612792565b809150509250929050565b60008060008060008060006080888a031215612a2057600080fd5b873567ffffffffffffffff80821115612a3857600080fd5b612a448b838c0161280d565b909950975060208a0135915080821115612a5d57600080fd5b612a698b838c0161280d565b909750955060408a0135915080821115612a8257600080fd5b50612a8f8a828b0161280d565b9094509250506060880135612aa381612792565b8091505092959891949750929550565b60008060008060808587031215612ac957600080fd5b8435612ad481612792565b93506020850135612ae481612792565b92506129b1604086016128dd565b600080600060608486031215612b0757600080fd5b8335612b1281612792565b9250602084013561292281612792565b60008060008060808587031215612b3857600080fd5b8435612b4381612792565b93506020850135612b5381612792565b92506040850135915060608501356129c181612792565b600060208284031215612b7c57600080fd5b815161280681612932565b60208082526023908201527f526f6c653a2053656e646572206973204e4f5420537570706c79204d6f64696660408201526234b2b960e91b606082015260800190565b6020808252601b908201527f526f6c653a2053656e646572206973204e4f5420467265657a65720000000000604082015260600190565b8183526000602080850194508260005b85811015612c3f578135612c2481612792565b6001600160a01b031687529582019590820190600101612c11565b509495945050505050565b81835260006001600160fb1b03831115612c6357600080fd5b8260051b80836020870137939093016020019392505050565b604081526000612c90604083018688612c01565b8281036020840152612ca3818587612c4a565b979650505050505050565b60208082526019908201527f526f6c653a2053656e646572206973204e4f542041646d696e00000000000000604082015260600190565b60006020808352835180602085015260005b81811015612d1357858101830151858201604001528201612cf7565b506000604082860101526040601f19601f8301168501019250505092915050565b60208082526025908201527f526f6c653a2053656e646572206973204e4f542057686974654c697374204d616040820152643730b3b2b960d91b606082015260800190565b600060208284031215612d8b57600080fd5b815161280681612792565b604081526000612daa604083018688612c01565b8281036020848101919091528482528591810160005b86811015612de7578335612dd381612932565b151582529282019290820190600101612dc0565b5098975050505050505050565b60208082526024908201527f526f6c653a2053656e646572206973204e4f54205472616e73666572204d616e60408201526330b3b2b960e11b606082015260800190565b606081526000612e4c60608301888a612c01565b8281036020840152612e5f818789612c01565b90508281036040840152612e74818587612c4a565b999850505050505050505056fed211483f91fc6eff862467f8de606587a30c8fc9981056f051b897a418df803abfec83d64eaa953f2708271a023ab9ee82057f8f3578d548c1a4ba0b5b700489a264697066735822122086b540201eeb8c186f23bf297cd0ff30e053eb0ab1e6222785619193b5d359ea64736f6c63430008180033","linkReferences":{}},"methodIdentifiers":{"addAgentAdmin(address)":"cdf1b693","addComplianceAgent(address)":"3cdf8000","addFreezer(address)":"526606c9","addRecoveryAgent(address)":"7489453d","addSupplyModifier(address)":"15d8ca62","addTransferManager(address)":"14f2d276","addWhiteListManager(address)":"3966904d","callBatchBurn(address[],uint256[],address)":"94452821","callBatchForcedTransfer(address[],address[],uint256[],address)":"b673266a","callBatchFreezePartialTokens(address[],uint256[],address)":"7d684ff7","callBatchMint(address[],uint256[],address)":"3dc1c176","callBatchSetAddressFrozen(address[],bool[],address)":"6b8c82b5","callBatchUnfreezePartialTokens(address[],uint256[],address)":"0878c410","callBurn(address,uint256,address)":"41e6aa5d","callDeleteIdentity(address,address)":"aca277e1","callForcedTransfer(address,address,uint256,address)":"f1e92173","callFreezePartialTokens(address,uint256,address)":"39ed7a40","callMint(address,uint256,address)":"0102acff","callPause(address)":"24fdc360","callRecoveryAddress(address,address,address,address)":"a6a7d4e2","callRegisterIdentity(address,address,uint16,address)":"bea0790a","callSetAddressFrozen(address,bool,address)":"96df6f27","callUnfreezePartialTokens(address,uint256,address)":"393694a7","callUnpause(address)":"39cc8d90","callUpdateCountry(address,uint16,address)":"2228a6cf","callUpdateIdentity(address,address,address)":"d5451e52","isAgentAdmin(address)":"4599fb7b","isComplianceAgent(address)":"2001c350","isFreezer(address)":"6c65fd6a","isRecoveryAgent(address)":"7ad78a46","isSupplyModifier(address)":"042a3606","isTransferManager(address)":"e86c6431","isWhiteListManager(address)":"bd92fcfe","owner()":"8da5cb5b","removeAgentAdmin(address)":"65d07b2e","removeComplianceAgent(address)":"c6006c9a","removeFreezer(address)":"2acd2000","removeRecoveryAgent(address)":"c8777b50","removeSupplyModifier(address)":"860a2bcf","removeTransferManager(address)":"965e61ea","removeWhiteListManager(address)":"4aff432c","renounceOwnership()":"715018a6","token()":"fc0c546a","transferOwnership(address)":"f2fde38b"},"id":90}